:100000000C9446000C9465000C9465000C946500FB
:100010000C9465000C9465000C9465000C946500CC
:100020000C9465000C9465000C9465000C946500BC
:100030000C9465000C9465000C9465000C946500AC
:100040000C9465000C9465000C9465000C9465009C
:100050000C9465000C9465000C9465000C9465008C
:100060000C9465000C9465000C9465000C9465007C
:100070000C9465000C9465000C9465000C9465006C
:100080000C9465000C9465000C94650011241FBE4F
:10009000CFEFD0E4DEBFCDBF11E0A0E0B1E0ECE3F4
:1000A000F5E000E00BBF02C007900D92A030B10751
:1000B000D9F711E0A0E0B1E001C01D92A830B1076E
:1000C000E1F70E948B010C949C020C94000084B117
:1000D000846B84B980E58CBD08958EBD0DB407FE98
:1000E000FDCF08958EBD0DB407FEFDCF8EB50895EA
:1000F0002A9A089585B115B808950E947A0082E081
:100100000E946D0080E00E946D0080E00E946D0002
:1001100083E00E946D008FEF0E946D008FEF0E94C0
:100120006D0089E00E946D0080E60E946D0086E00F
:100130000E946D008AE00E946D0080E40E946D00C4
:1001400080E80E946D008BE00E946D0080E40E94B8
:100150006D0080E80E946D008CE00E946D0080E0E0
:100160000E946D0080E00E946D008DE00E946D0095
:1001700080E00E946D0080E00E946D008EE00E9491
:100180006D0081E00E946D0080E00E946D008FE0B4
:100190000E946D0080E00E946D0080E00E946D0072
:1001A00080E10E946D0080E00E946D0083E60E9465
:1001B0006D008AE10E946D0080E00E946D0080E386
:1001C0000E946D0081E00E946D0081EC0E946D0034
:1001D00080ED0E946D000E9478000E947A000E94CB
:1001E00078000E947A000E9478000E947A000E94A3
:1001F000780008950E947A0082E00E946D0080E0FD
:100200000E946D0080E00E946D0083E00E946D00FE
:100210008FEF0E946D008FEF0E946D0089E00E94B9
:100220006D0080E60E946D0086E00E946D008AE00D
:100230000E946D0080E40E946D0080E80E946D00C5
:100240008BE00E946D0080E40E946D0080E80E94B7
:100250006D008CE00E946D0080E00E946D0080E0E7
:100260000E946D008DE00E946D0080E00E946D0094
:1002700080E00E946D008EE00E946D0081E00E948F
:100280006D0080E00E946D008FE00E946D0080E0B4
:100290000E946D0080E00E946D0080E10E946D0070
:1002A00080E00E946D0083E60E946D008AE10E945A
:1002B0006D0080E00E946D0080E30E946D0081E08F
:1002C0000E946D0081E40E946D0080E50E946D0037
:1002D0000E94780008950E947D000E947A0080E2CA
:1002E0000E946D008FEF0E947200809303018FEFD8
:1002F0000E947200809300010E94780030910301F7
:1003000020E08091000190E0822B932B90930701D5
:100310008093060108950E9467000E9478000E9461
:100320006B01909302018093010180E090E00895B9
:100330000E947A0082E00E946D0080E00E946D00C1
:1003400080E00E946D0083E00E946D008FEF0E94AC
:100350006D008FEF0E946D0089E00E946D0080E6C5
:100360000E946D0085E00E946D008AE00E946D0091
:1003700080E00E946D0080E00E946D008BE00E9492
:100380006D0080E00E946D0080E00E946D008CE0B6
:100390000E946D0080E00E946D0080E00E946D0070
:1003A0008DE00E946D0080E00E946D0080E00E9460
:1003B0006D008EE00E946D0080E00E946D0080E084
:1003C0000E946D008FE00E946D0080E00E946D0031
:1003D00080E00E946D0080E10E946D0080E00E943C
:1003E0006D0080E00E946D008AE10E946D0080E057
:1003F0000E946D0080E30E946D0081E00E946D000C
:1004000081EC0E946D0080ED0E946D000E947800DA
:1004100008950E947A0082E00E946D0080E00E94B0
:100420006D0080E00E946D0083E00E946D008FEF00
:100430000E946D008FEF0E946D0089E00E946D00A8
:1004400080E60E946D0085E00E946D008AE00E94B7
:100450006D0080E00E946D0080E00E946D008BE0E6
:100460000E946D0080E00E946D0080E00E946D009F
:100470008CE00E946D0080E00E946D0080E00E9490
:100480006D008DE00E946D0080E00E946D0080E0B4
:100490000E946D008EE00E946D0080E00E946D0061
:1004A00080E00E946D008FE00E946D0080E00E945D
:1004B0006D0080E00E946D0080E10E946D0080E090
:1004C0000E946D0080E00E946D008AE10E946D0034
:1004D00080E00E946D0080E30E946D0081E00E9438
:1004E0006D0081E40E946D0080E50E946D000E9415
:1004F000780008950E9498011899FECF0E947A0012
:1005000080E20E946D008FEF0E94720080930301D1
:100510008FEF0E947200809300010E94780030915A
:10052000030120E08091000190E0822B932B9093B7
:0C0530000701809306010895F894FFCFA6
:00000001FF
