:100000000C9446000C9465000C9465000C946500FB
:100010000C9465000C9465000C9465000C946500CC
:100020000C9465000C9465000C9465000C946500BC
:100030000C9465000C9465000C9465000C946500AC
:100040000C9465000C9465000C9465000C9465009C
:100050000C9465000C9465000C9465000C9465008C
:100060000C9465000C9465000C9465000C9465007C
:100070000C9465000C9465000C9465000C9465006C
:100080000C9465000C9465000C94650011241FBE4F
:10009000CFEFD0E4DEBFCDBF11E0A0E0B1E0EAE2F7
:1000A000F3E000E00BBF02C007900D92A030B10753
:1000B000D9F711E0A0E0B1E001C01D92A830B1076E
:1000C000E1F70E9413010C9493010C94000084B199
:1000D000876B84B980E58CBD0895CF92DF92EF9253
:1000E000FF92CF93DF936B017C01CBE8D0E0FE0160
:1000F00009959E2D8D2D7C2D6627FE010995C60143
:1001000077276627FE010995DF91CF91FF90EF9049
:10011000DF90CF9008958EBD0DB407FEFDCF0895FA
:100120002A9A08952A980895CF93DF93CDE6D0E0D8
:1001300060E471E481E090E0FE01099560E070E028
:1001400082E090E0FE0109956FEF7FEF83E090E0A1
:10015000FE01099566E070E689E090E0FE010995F0
:1001600060E470E88AE090E0FE01099560E470E8E0
:100170008BE090E0FE01099561E070E08EE090E098
:10018000FE01099563E670E080E190E0FE010995CB
:1001900060E370E08AE190E0FE010995DF91CF9184
:1001A00008958FEF8EBD0DB407FEFDCF8EB5089577
:1001B0000E9492000E94D1000E94D1000E949000F3
:1001C00008958EBD0DB407FEFDCF8EB508958FE363
:1001D0009DE0A3E081509040A040E1F700C0000006
:1001E00081E090E008956115710571F44BB121E053
:1001F00030E0B90102C0660F771F8A95E2F7CB01A4
:10020000809584238BB90CC04BB121E030E0B9015B
:1002100002C0660F771F8A95E2F7CB01842B8BB95A
:1002200081E090E0089580E68AB90E94670000E9C5
:1002300010E0F80109950F2EF2E9EF2EF0E0FF2E05
:10024000F02DF7010995CDE6D0E060E070E082E0A6
:1002500090E0FE0109956FEF7FEF83E090E0FE01F3
:10026000099566E070E689E090E0FE01099560E49A
:1002700070E88AE090E0FE01099560E470E88BE0A8
:1002800090E0FE0109956FEF70E08EE090E0FE01D6
:10029000099563E670E080E190E0FE01099560E376
:1002A00070E08AE190E0FE010995F8010995F701F7
:1002B0000995CBE8D0E081E090E0FE01099589EC5A
:1002C00090E0FE01099580EC90E0FE010995F801AF
:1002D000099580910701882349F486E090E061E068
:1002E00070E00E94F3001092070114C0F701099515
:1002F00080E290E0FE0109950E94D1008093060102
:100300000E94D10080930501F80109958FEF9FEFBE
:100310000E94930186E090E061E070E00E94F300AB
:0A03200010920701F7CFF894FFCF09
:00000001FF
