:100000000C9446000C9466000C9466000C946600F8
:100010000C9466000C9466000C9466000C946600C8
:100020000C9466000C9466000C9466000C946600B8
:100030000C9466000C9466000C9466000C946600A8
:100040000C9466000C9466000C9466000C94660098
:100050000C9466000C9466000C9466000C94660088
:100060000C9466000C9466000C9466000C94660078
:100070000C9466000C9466000C9466000C94660068
:100080000C9466000C9466000C94660011241FBE4C
:10009000CFEFD0E4DEBFCDBF11E0A0E0B1E0EEE5F0
:1000A000F3E000E00BBF02C007900D92A030B10753
:1000B000D9F71BBE11E0A0E0B1E001C01D92A9304C
:1000C000B107E1F70E94DF000C94AD010C94000031
:1000D00084B1876B84B980E58CBD0895CF92DF929F
:1000E000EF92FF92CF93DF936B017C01CCE8D0E0DD
:1000F000FE0109959E2D8D2D7C2D6627FE0109950B
:10010000C60177276627FE010995DF91CF91FF9001
:10011000EF90DF90CF9008958EBD0DB407FEFDCF18
:1001200008952C9A08952C980895CF93DF93CEE6E6
:10013000D0E060E471E481E090E0FE01099560E0C8
:1001400070E082E090E0FE0109956FEF7FEF83E0C1
:1001500090E0FE01099566E070E689E090E0FE011E
:10016000099560E470E88AE090E0FE01099560E49A
:1001700070E88BE090E0FE01099561E070E08EE0B0
:1001800090E0FE01099563E670E080E190E0FE01F9
:10019000099560E370E08AE190E0FE010995DF9146
:1001A000CF9108958FEF8EBD0DB407FEFDCF8EB5B4
:1001B00008958EBD0DB407FEFDCF8EB50895C3E939
:1001C000D0E00CE810E00F2EF1E9EF2EF0E0FF2E6A
:1001D000F02D0E946800FE01099580E090E0F80192
:1001E000099581E090E0F8010995F7010995FE0174
:1001F000099582E00E94D90080930001F7010995DA
:10020000E8CF8FE39DE0A3E081509040A040E1F76C
:1002100000C0000081E090E008956115710571F45F
:100220004BB121E030E0B90102C0660F771F8A951B
:10023000E2F7CB01809584238BB90CC04BB121E050
:1002400030E0B90102C0660F771F8A95E2F7CB0153
:10025000842B8BB981E090E0089580E68AB90E94F2
:10026000680001E910E0F80109950F2EF3E9EF2E7F
:10027000F0E0FF2EF02DF7010995CEE6D0E060E02A
:1002800070E082E090E0FE0109956FEF7FEF83E080
:1002900090E0FE01099566E070E689E090E0FE01DD
:1002A000099560E470E88AE090E0FE01099560E459
:1002B00070E88BE090E0FE0109956FEF70E08EE052
:1002C00090E0FE01099563E670E080E190E0FE01B8
:1002D000099560E370E08AE190E0FE010995F8017C
:1002E0000995F7010995CCE8D0E081E090E0FE01A6
:1002F000099589EC90E0FE01099580EC90E0FE0103
:100300000995F801099580910801882349F486E050
:1003100090E061E070E00E940D011092080114C0AD
:10032000F701099580E290E0FE0109950E94D20054
:10033000809307010E94D20080930601F80109957D
:100340008FEF9FEF0E94AD0186E090E061E070E0EA
:0E0350000E940D0110920801F7CFF894FFCF24
:00000001FF
