:100000000C9446000C9465000C9465000C946500FB
:100010000C9465000C9465000C9465000C946500CC
:100020000C9465000C9465000C9465000C946500BC
:100030000C9465000C9465000C9465000C946500AC
:100040000C9465000C9465000C9465000C9465009C
:100050000C9465000C9465000C9465000C9465008C
:100060000C9465000C9465000C9465000C9465007C
:100070000C9465000C9465000C9465000C9465006C
:100080000C9465000C9465000C94650011241FBE4F
:10009000CFEFD0E4DEBFCDBF11E0A0E0B1E0E0E9FA
:1000A000F1E000E00BBF02C007900D92A030B10755
:1000B000D9F711E0A0E0B1E001C01D92A130B10775
:1000C000E1F70E9493000C94C6000C9400008FE3AB
:1000D0009DE0A3E081509040A040E1F700C0000007
:1000E00081E090E008956115710571F445B121E05A
:1000F00030E0B90102C0660F771F8A95E2F7CB01A5
:100100008095842385B90CC045B121E030E0B90168
:1001100002C0660F771F8A95E2F7CB01842B85B961
:1001200081E090E0089588E084B9EAE7F0E080811A
:1001300087608083ACE7B0E08C9180648C938C9175
:1001400080628C93808180688083808180648083DA
:1001500009E710E0CAE7D0E0F80180818093000150
:10016000882354F083E090E061E070E00E94730027
:10017000888180648883F0CF83E090E060E070E065
:100180000E947300888180648883E6CFF894FFCF53
:00000001FF
