:100000000C9446000C9465000C9465000C946500FB
:100010000C9465000C9465000C9465000C946500CC
:100020000C9465000C9465000C9465000C946500BC
:100030000C9465000C9465000C9465000C946500AC
:100040000C9465000C9465000C9465000C9465009C
:100050000C9465000C9465000C9465000C9465008C
:100060000C9465000C9465000C9465000C9465007C
:100070000C9465000C9465000C9465000C9465006C
:100080000C9465000C9465000C94650011241FBE4F
:10009000CFEFD0E4DEBFCDBF11E0A0E0B1E0EEE1F4
:1000A000F1E000E00BBF02C007900D92A030B10755
:1000B000D9F711E0A0E0B1E001C01D92A030B10776
:1000C000E1F70E947C000C948D000C94000090934A
:1000D000C5008093C40088E18093C10086E08093CE
:1000E000C2001092C0000895E0ECF0E0908195FF0E
:1000F000FDCF8093C600089586E090E00E946700DF
:1001000081EA90E00E947400FBCFE0ECF0E0808197
:0E0110008823ECF78091C6000895F894FFCF85
:00000001FF
