:100000000C9446000C9465000C9465000C946500FB
:100010000C9465000C9465000C9465000C946500CC
:100020000C9465000C9465000C9465000C946500BC
:100030000C9465000C9465000C9465000C946500AC
:100040000C9465000C9465000C9465000C9465009C
:100050000C9465000C9465000C9465000C9465008C
:100060000C9465000C9465000C9465000C9465007C
:100070000C9465000C9465000C9465000C9465006C
:100080000C9465000C9465000C94650011241FBE4F
:10009000CFEFD0E4DEBFCDBF11E0A0E0B1E0E4EAF5
:1000A000F4E000E00BBF02C007900D92A030B10752
:1000B000D9F711E0A0E0B1E001C01D92A330B10773
:1000C000E1F70E9408020C9450020C94000084B1E5
:1000D000826B84B980E58CBD8CB582608CBD8DB59A
:1000E0008DBD0E9441018CB58C7F8CBD8DB58E7FFE
:1000F0008DBD0895299A0895299808958EBD0DB44F
:1001000007FEFDCF08950DB407FEFDCF8EB508950F
:100110000E947E000E94830008958FE39DE0A3E08B
:1001200081509040A040E1F700C0000081E090E0E5
:1001300008956115710571F445B121E030E0B90110
:1001400002C0660F771F8A95E2F7CB018095842362
:1001500085B90CC045B121E030E0B90102C0660F9D
:10016000771F8A95E2F7CB01842B85B981E090E077
:100170000895EF92FF920F931F93CF93DF93E82E92
:10018000D42F152F062FF72EC22F8FEF0E947E003F
:100190008E2D80640E947E008F2D0E947E00802F15
:1001A0000E947E00812F0E947E008D2F0E947E0083
:1001B0008C2F0E947E008FEF0E947E008FEF0E94A6
:1001C0008800809302018FEF0E9488008FEF0E94C9
:1001D00088008FEF0E9488008FEF0E948800809334
:1001E000000180910201DF91CF911F910F91FF904B
:1001F000EF900895CF92DF92EF92FF920F931F93AB
:10020000CF93DF93C82FD92F6A017B010E947C0016
:1002100081E08093020188E1B701A6012FEF0E94DF
:10022000B900809102018823B1F78EEF0E947E0011
:100230000C2F1D2FC0E0D0E0F80181918F010E94AA
:100240007E002196F2E0C030DF07B1F785E90E9419
:100250007E0085E90E947E00C0E1D7E28FEF0E9418
:100260008800853E19F40E947A0002C02197B1F7F8
:10027000DF91CF911F910F91FF90EF90DF90CF9082
:100280000895CF930E948D000E947A00CAE08FEFFC
:100290000E947E00C150D9F70E947C008FEF0E941F
:1002A0007E008FEF0E947E0080910201813059F024
:1002B00080E040E050E0BA0125E90E94B900809159
:1002C00002018130A9F7809100018A3A61F088E04B
:1002D0004AEA51E060E070E027E80E94B9008091AE
:1002E00000018A3AA1F7809102018823A1F087E3F7
:1002F00040E050E060E070E42FEF0E94B90089E236
:1003000040E050E060E070E42FEF0E94B90080917F
:100310000201882361F78AE340E050E0BA012FEF41
:100320000E94B9008FEF0E947E000E947A00CF9158
:100330000895CF92DF92EF92FF920F931F93CF9386
:10034000DF93C82FD92F6A017B010E947C0081E0D6
:10035000809302011092010181E1B701A6012FEF04
:100360000E94B900809302018FEF0E9488008E3FA7
:10037000D9F70C2F1D2FC0E0D0E08FEF0E9488002E
:10038000F80181938F012196F2E0C030DF07A9F7D1
:100390008FEF0E9488008FEF0E9488000E947A00F1
:1003A000DF91CF911F910F91FF90EF90DF90CF9051
:1003B0000895CF92DF92EF92FF920E947C001092FC
:1003C00002010F2EF0E4CF2EFDE0DF2EF3E0EF2E42
:1003D000F0E0FF2EF02D8FEF0E9488008093020145
:1003E0000894C108D108E108F108C114D104E1045E
:1003F000F10421F40E947A0080E005C08F3F59F794
:100400000E947A0081E0FF90EF90DF90CF900895F6
:10041000CF93DF93CDB7DEB7C050D4400FB6F8947A
:10042000DEBF0FBECDBF0F2EF1E04F2EF2E05F2EEC
:10043000F02D4C0E5D1E0F2EFAEA7F2EF02D882433
:1004400099245401142D052D0E947C000E94670000
:10045000D2017C9275016401812F902FB701A60112
:100460000E94FA0080E092E0A0E0B0E0C80ED91E41
:10047000EA1EFB1E90E0C91698E0D90690E0E90656
:1004800090E0F90649F70E94D9018823E9F2CE01EC
:100490000196B501A4010E9499010E947A00D4CF6F
:0404A000F894FFCFFE
:00000001FF
