:100000000C9446000C9466000C9466000C946600F8
:100010000C9466000C9466000C9466000C946600C8
:100020000C9466000C9466000C9466000C946600B8
:100030000C9466000C9466000C9466000C946600A8
:100040000C9466000C9466000C9466000C94660098
:100050000C9466000C9466000C9466000C94660088
:100060000C9466000C9466000C9466000C94660078
:100070000C9466000C9466000C9466000C94660068
:100080000C9466000C9466000C94660011241FBE4C
:10009000CFEFD0E4DEBFCDBF11E0A0E0B1E0E6E8F5
:1000A000F8E400E00BBF02C007900D92AC31B1073D
:1000B000D9F71BBE13E0ACE1B1E001C01D92A73738
:1000C000B107E1F70E94D41F0C9441240C94000066
:1000D0004115510549F0A62FB72FE82FF92F8D9123
:1000E000819341505040D9F708954115510531F0A1
:1000F000E82FF92F619341505040E1F70895EF92B6
:10010000FF920F931F93CF93DF93FC017B018B0131
:10011000075F1F4F86859785A089B1890097A10544
:10012000B10509F465C0C289D3892881203299F0CC
:10013000DE011196F80180E090E035EE03C02D91CC
:10014000203249F0253009F4232F21938F010196A5
:1001500088309105A1F78885803281F08EE2F80120
:1001600080838885803209F04CC00F5F1F4F06C026
:100170008C0104C0F80123830C5F1F4F8B85F701AE
:1001800080878F8D90E0A0E0B0E0B82FAA27992754
:1001900088274E8D50E060E070E0BA015527442773
:1001A000482B592B6A2B7B2B8C8D90E0A0E0B0E084
:1001B000482B592B6A2B7B2B9D8D80E0A0E0B0E073
:1001C000842B952BA62BB72B80839183A283B3839B
:1001D000398D20E0888D90E0822B932B958384834A
:1001E0009F8980E02E8930E0822B932B9783868332
:1001F000F8011082DF91CF911F910F91FF90EF9046
:100200000895F8018183C80102962985203209F4F6
:10021000AFCF2283C80103962A85203209F0AACFE6
:10022000A7CF009781F0FC012081222371F0268165
:1002300037812617370759F481810E94A82180FF52
:1002400008C083E0089589E0089589E0089589E071
:10025000089580E008950F931F93CF93DF93EC01EF
:100260009A01AB01BC016E5C7F4F898101E010E017
:100270000E947A22882309F083C0FE01EF5CFD4FC3
:10028000908180E0FE01E05DFD4F208130E0822B17
:10029000932B2AEA8535920709F074C0FE01E559CF
:1002A000FF4F808190E0A0E0B0E0B82FAA27992707
:1002B0008827FE01E659FF4F408150E060E070E082
:1002C000BA0155274427482B592B6A2B7B2BFE015B
:1002D000E859FF4F808190E0A0E0B0E0482B592B17
:1002E0006A2B7B2BFE01E759FF4F908180E0A0E055
:1002F000B0E0482B592B6A2B7B2B7070463481E47D
:10030000580784E5680780E07807F1F1FE01E957B6
:10031000FF4F808190E0A0E0B0E0B82FAA27992796
:100320008827FE01EA57FF4F408150E060E070E00F
:10033000BA0155274427482B592B6A2B7B2BFE01EA
:10034000EC57FF4F808190E0A0E0B0E0482B592BA4
:100350006A2B7B2BCB57DF4F988180E0A0E0B0E089
:10036000482B592B6A2B7B2B707081E0463491E42B
:10037000590794E5690790E0790739F480E005C0F2
:1003800083E003C082E001C080E0DF91CF911F9144
:100390000F9108952F923F924F925F926F927F92AA
:1003A0008F929F92AF92BF92CF92DF92EF92FF9285
:1003B0000F931F93CF93DF93CDB7DEB760970FB640
:1003C000F894DEBF0FBECDBFDC01042FED91FC9190
:1003D0001197808190E0C0978A30910540F4218187
:1003E0002A3329F432961196FC93EE9303C0809140
:1003F0001E0190E0009709F0A0C3E0901C01F0906E
:100400001D01DB011196FC92EE92E114F10409F456
:1004100096C3F7018081882361F081810E94A82121
:1004200080FD07C0002309F48CC382FD8CC380E0EB
:10043000ABC3D7011C9211961C9280E00E94AF21A1
:1004400080FD83C3002311F082FD81C3C70140E01A
:1004500050E0BA010E942B018130E9F5F701EC5020
:10046000FE4F8081882309F474C3F701E550FE4FE5
:10047000808190E0A0E0B0E0B82FAA2799278827D4
:10048000F701E650FE4F408150E060E070E0BA01B5
:1004900055274427842B952BA62BB72BF701E85023
:1004A000FE4F408150E060E070E0482B592B6A2BF2
:1004B0007B2BF701E750FE4F908180E04C01AA248E
:1004C000BB24842A952AA62AB72AC701B501A4010C
:1004D0000E942B0103C0882499245401833009F41D
:1004E0003AC3882309F039C3F70196AD80E025AD02
:1004F00030E0822B932BF2E080309F0709F02FC36E
:10050000F701E75BFF4F308120E0F701E85BFF4F29
:10051000808190E0822B932B2C0166247724411458
:1005200051046104710489F5F701E75AFF4F4081D6
:1005300050E060E070E0742F662755274427F701EC
:10054000E85AFF4F808190E0A0E0B0E0DC019927FD
:100550008827482B592B6A2B7B2BF701EA5AFF4F30
:10056000808190E0A0E0B0E0482B592B6A2B7B2BD8
:10057000F701E95AFF4F908180E0A0E0B0E02A0146
:100580003B01482A592A6A2A7B2AD7015E964D9256
:100590005D926D927C929197F701EE5BFF4FC08068
:1005A000F701C3828C2D8150823008F0DAC2D7ACBB
:1005B000D282DD2009F4D7C28D2D90E09C0121501C
:1005C000304082239323009709F0CFC2EC5BFF4FAA
:1005D000308120E0F701ED5BFF4F808190E0190151
:1005E000282A392A19963C922E921897C1018F70A9
:1005F0009070009709F0BBC2F701EA5BFF4F3081B2
:1006000020E0F701EB5BFF4F808190E0822B932B82
:100610008C0120E030E009831A832B833C83011591
:10062000110521053105A9F5F701EB5AFF4F80812E
:1006300090E0A0E0B0E0782F662755274427F70127
:10064000EC5AFF4F808190E0A0E0B0E0DC019927F8
:100650008827482B592B6A2B7B2BF701EE5AFF4F2B
:10066000808190E0A0E0B0E0482B592B6A2B7B2BD7
:10067000F701ED5AFF4F908180E0A0E0B0E08A01E1
:100680009B01082B192B2A2B3B2B09831A832B83C5
:100690003C83F701EF5BFF4F308120E0F701E05C26
:1006A000FF4F808190E08901082B192B011511055E
:1006B00009F45FC22C2D30E040E050E0C301B201EC
:1006C0000E9400246D877E878F87988B980140E079
:1006D00050E029873A874B875C87C10192958295C4
:1006E0008F7089279F708927A0E0B0E0820F931F49
:1006F000A41FB51F0D851E852F853889080F191F6A
:100700002A1F3B1F0D831E832F83388789819A817F
:10071000AB81BC8180179107A207B30708F42BC2F5
:10072000BC01CD01601B710B820B930B2D2D30E0B2
:1007300040E050E00E941F2489019A01D901C801BC
:10074000011511052105310509F417C2063FEFE037
:100750001E07E0E02E07E0E03E0718F4DD24D39406
:1007600003C0DD246894D1F8863FFFEF9F07F0E0D7
:10077000AF07F0E0BF0708F020C2B901A8014E5F43
:100780005F4F6F4F7F4FD7015A964D935D936D9397
:100790007C935D978D819E81AF81B885880D991D71
:1007A000AA1DBB1DF70182A793A7A4A7B5A789859A
:1007B0009A85AB85BC85880D991DAA1DBB1D82A39A
:1007C00093A3A4A3B5A3F3E0DF1609F041C021145D
:1007D000310409F0D4C1F701EF59FF4F808190E057
:1007E000A0E0B0E0382F222711270027F701E05AB8
:1007F000FF4F808190E0A0E0B0E0DC0199278827DE
:10080000082B192B2A2B3B2BF701E25AFF4F808133
:1008100090E0A0E0B0E0082B192B2A2B3B2BF7012E
:10082000E15AFF4F908180E0A0E0B0E0802B912B57
:10083000A22BB32BF70186A397A3A0A7B1A7440FC0
:10084000551F661F771F440F551F661F771F2FC048
:100850002114310409F495C10D851E852F85388931
:10086000800F911FA21FB31FF70186A397A3A0A714
:10087000B1A7F2E0DF1629F4440F551F661F771F5A
:1008800016C0DB01CA01880F991FAA1FBB1F840F66
:10089000951FA61FB71FB695A79597958795417089
:1008A000507060707070480F591F6A1F7B1FDB010A
:1008B000CA0181509E4FAF4FBF4F072E79E0B695CA
:1008C000A795979587957A95D1F7702D4816590673
:1008D0006A067B0608F457C18FEF9FEFDC01F70132
:1008E00086879787A08BB18B128613861486158610
:1008F000B3E0DB1609F004C11582ED59FF4F3081DA
:1009000020E0F701EE59FF4F808190E0822B932B7E
:10091000A0E0B0E0A5019401280F391F4A1F5B1F1A
:10092000D70152962D933D934D935C935597B70104
:100930006E5C7F4F11968C9101E010E00E947A224C
:10094000882309F0DDC0F701EF5CFD4F308120E026
:10095000F701E05DFD4F808190E0822B932BBAEA96
:1009600085359B0709F0CCC0F70145A950E060E050
:1009700070E0742F66275527442784A990E0A0E0F3
:10098000B0E0DC0199278827482B592B6A2B7B2B59
:1009900082A990E0A0E0B0E0482B592B6A2B7B2B7A
:1009A00093A980E0A0E0B0E0842B952BA62BB72B79
:1009B0008235F2E59F07F1E6AF07F1E4BF0709F0E2
:1009C0009FC0F701E75EFD4F808190E0A0E0B0E0BE
:1009D000B82FAA2799278827F701E85EFD4F4081A5
:1009E00050E060E070E0BA0155274427842B952B36
:1009F000A62BB72BF701EA5EFD4F408150E060E087
:100A000070E0482B592B6A2B7B2BF701E95EFD4FD9
:100A1000908180E0A0E0B0E0842B952BA62BB72B33
:100A2000823702E7900701E4A00701E6B00709F06A
:100A300067C0F701EF5DFD4F808190E0A0E0B0E07E
:100A4000B82FAA2799278827F701E05EFD4F40813C
:100A500050E060E070E0BA0155274427842B952BC5
:100A6000A62BB72BF701E25EFD4F408150E060E01E
:100A700070E0482B592B6A2B7B2BF701E15EFD4F71
:100A8000908180E0A0E0B0E0842B952BA62BB72BC3
:100A9000F70182879387A487B587E35EFD4F808146
:100AA00090E0A0E0B0E0B82FAA2799278827F701A7
:100AB000E45EFD4F408150E060E070E0BA015527F0
:100AC0004427842B952BA62BB72BF701E65EFD4F11
:100AD000408150E060E070E0482B592B6A2B7B2B63
:100AE000F701E55EFD4F908180E0A0E0B0E0842B4F
:100AF000952BA62BB72BF70186879787A08BB18BF9
:100B0000D701DC9280911F01909120010196909372
:100B1000200180931F0117969C938E931697F701DF
:100B200016A617A610AA11AA148256961D921D92F7
:100B30001D921C92599780E027C08BE025C08CE065
:100B400023C080E021C08AE01FC083E01DC08AE08E
:100B50001BC08DE019C081E017C08DE015C08DE08D
:100B600013C08DE011C08DE00FC08DE00DC08DE091
:100B70000BC08DE009C08DE007C08DE005C08DE0A1
:100B800003C08DE001C08DE060960FB6F894DEBF23
:100B90000FBECDBFDF91CF911F910F91FF90EF90CE
:100BA000DF90CF90BF90AF909F908F907F906F908D
:100BB0005F904F903F902F900895B901A8014E5F2C
:100BC0005F4F6F4F7F4FF701428F538F648F758F49
:100BD0008D819E81AF81B885880D991DAA1DBB1D91
:100BE00082A793A7A4A7B5A789859A85AB85BC855D
:100BF000880D991DAA1DBB1D82A393A3A4A3B5A311
:100C00000F2EF3E0DF2EF02DE2CD4F925F926F9228
:100C10007F928F929F92AF92BF92CF92DF92EF928C
:100C2000FF920F931F93CF935C012A013B01FC01BC
:100C3000C6A4D7A4E0A8F1A8C416D506E606F70610
:100C400009F457C084818823E1F10F2EF2E38F2E3F
:100C50009924F02D8A0C9B1C8181B401A701960177
:100C600001E010E00E94D222882309F044C0F5017F
:100C70001482468D578D60A171A182A193A1A4A178
:100C8000B5A1840F951FA61FB71FC816D906EA067F
:100C9000FB06B8F4C381C230A0F0F501868D978DB4
:100CA000A0A1B1A1C80ED91EEA1EFB1E8181B4010C
:100CB000A701960101E010E00E94D222C150C1308C
:100CC00061F74114510461047104B9F0B5016E5C1F
:100CD0007F4FF5018181A301920101E010E00E94A4
:100CE0007A22882361F4F50146A657A660AA71AA64
:100CF00007C080E005C081E003C080E001C081E062
:100D0000CF911F910F91FF90EF90DF90CF90BF9008
:100D1000AF909F908F907F906F905F904F900895CD
:100D2000EF92FF920F931F93CF937C0140E050E02E
:100D3000BA010E940506C82F882309F077C0F70181
:100D40008081833009F069C08581882309F465C0FA
:100D500016A617A610AA11AA87010E5C1F4FC8017C
:100D600060E070E040E052E00E947500F701E05D55
:100D7000FD4F85E58083F701EF5CFD4F8AEA8083B4
:100D800082E5F70182AB83AB81E684AB91E495AB5E
:100D9000EA5EFD4F22E72083F701E95EFD4F2083E5
:100DA000F701E85EFD4F9083F701E75EFD4F80831A
:100DB000F7013685278590898189E65EFD4F30836E
:100DC000F701E55EFD4F2083F701E45EFD4F908360
:100DD000F701E35EFD4F8083F7013285238594851B
:100DE0008585E25EFD4F3083F701E15EFD4F208394
:100DF000F701E05EFD4F9083F701EF5DFD4F8083CB
:100E0000F70122893389448955898181B80101E03C
:100E100010E00E94D222F7011582F701818160E083
:100E200040E050E00E943B238111C1E08C2FCF9124
:100E30001F910F91FF90EF90089560EC73E28BE2A9
:100E400093E008950F931F93CF93DF93EC01DB01A1
:100E5000CA010297A109B1094A8D5B8D6C8D7D8D08
:100E6000425050406040704084179507A607B7076E
:100E700098F42A8130E040E050E0BC01CD010E94AE
:100E800000248B019C018AA59BA5ACA5BDA5080FDC
:100E9000191F2A1F3B1F03C000E010E09801602FBC
:100EA000712F822F932FDF91CF911F910F91089572
:100EB000BF92CF92DF92EF92FF920F931F93CF9347
:100EC000DF93EC016A017B01423051056105710538
:100ED00008F4CFC08A8D9B8DAC8DBD8D4817590706
:100EE0006A077B0708F0CAC08881823009F45CC0B9
:100EF000833009F47BC0813009F0C5C09A01369572
:100F000027958901040F151FA801452F55274695E0
:100F100060E070E08AA19BA1ACA1BDA1480F591F60
:100F20006A1F7B1FCE010E940506882309F0AFC00F
:100F3000F801F170EC0FFD1FB2A80F5F1F4FA80161
:100F4000452F5527469560E070E08AA19BA1ACA192
:100F5000BDA1480F591F6A1F7B1FCE010E940506C5
:100F6000882309F098C02B2D30E0F801F170EC0FC8
:100F7000FD1F92A980E0822B932B21E0C222DD2469
:100F8000C114D10451F0929582958F7089279F707A
:100F900089278C0120E030E089C08C0120E030E01E
:100FA0001F702070307082C0452F562F672F772713
:100FB0008AA19BA1ACA1BDA1480F591F6A1F7B1F2D
:100FC000CE010E940506882309F069C0F601EE0FE4
:100FD000FF1FF170CE0FDF1F9BA980E00AA910E070
:100FE000802B912B8C0120E030E060C0689416F8D3
:100FF00076956795579547951694D1F78AA19BA149
:10100000ACA1BDA1480F591F6A1F7B1FCE010E94D2
:101010000506882309F047C0F601EE0FFF1FEE0F0B
:10102000FF1FF170CE0FDF1F0DA910E020E030E0B0
:10103000302F2227112700278CA990E0A0E0B0E0F4
:10104000DC0199278827082B192B2A2B3B2B8AA9EF
:1010500090E0A0E0B0E0082B192B2A2B3B2B9BA99A
:1010600080E0A0E0B0E0082B192B2A2B3B2B3F702F
:101070001DC001E010E020E030E018C001E010E009
:1010800020E030E013C00FEF1FEF98010FC00FEF0B
:101090001FEF98010BC00FEF1FEF980107C00FEF74
:1010A0001FEF980103C00FEF1FEF9801602F712F02
:1010B000822F932FDF91CF911F910F91FF90EF908F
:1010C000DF90CF90BF900895EF92FF920F931F9300
:1010D000CF93DF93EC018B017D836C834E815F8125
:1010E00068857985413051056105710509F49FC016
:1010F000E881F981828D938DA48DB58D48175907AC
:101100006A077B0708F095C0411551056105710517
:1011100069F58081833049F446A157A160A571A586
:10112000411551056105710509F51A861B861C8656
:101130001D86808591850817190708F07CC0C801B5
:10114000929582958F7089279F708927AC0160E006
:1011500070E086A197A1A0A5B1A5840F951FA61F39
:10116000B71F8E879F87A88BB98B4EC0828190E076
:101170007C01EE0CFF1CEE0CFF1CEE0CFF1CEE0CB9
:10118000FF1C0E151F0528F1888199810E945807C0
:10119000AB01BC014F3F8FEF58078FEF68078FEF10
:1011A000780709F44AC0423051056105710508F419
:1011B00046C0E881F981828D938DA48DB58D481745
:1011C00059076A077B07E8F50E191F090E151F0559
:1011D000D8F64A875B876C877D87888199810E94D2
:1011E0002207AB01BC01C801929582958F708927B7
:1011F0009F708927A0E0B0E0840F951FA61FB71F3E
:101200008E879F87A88BB98B88819981C2960F7032
:101210001070000F111F02951295107F1027007F8C
:101220001027800F911F9B8B8A8B80E00BC082E080
:1012300009C082E007C082E005C081E003C082E00F
:1012400001C082E0DF91CF911F910F91FF90EF904D
:101250000895CF93DF93EC016C817D810E94640837
:10126000882391F44E855F85688979898881998181
:101270000E940506882341F4EA89FB8995EE908354
:10128000E881F98191E09483DF91CF9108958F9265
:101290009F92AF92BF92CF92DF92EF92FF920F9305
:1012A0001F93CF93DF93EC016A017B014801590141
:1012B000423051056105710508F4CAC08A8D9B8DC5
:1012C000AC8DBD8D481759076A077B0708F0C2C06F
:1012D0008881823009F46AC0833009F482C0813089
:1012E00009F0B2C09A01369527958901040F151FA0
:1012F000A801452F5527469560E070E08AA19BA183
:10130000ACA1BDA1480F591F6A1F7B1FCE010E94CF
:101310000506882309F099C0C8019170E1E0CE224A
:10132000DD24C114D10451F0FE01E80FF91F22A9F8
:101330002F70382D3295307F232B01C0282DFE01D0
:10134000E80FF91F22AB0F5F1F4F81E08C83A801CC
:10135000452F5527469560E070E08AA19BA1ACA17E
:10136000BDA1480F591F6A1F7B1FCE010E940506B1
:10137000882309F06AC01170C114D10449F068943F
:1013800013F8B694A794979487941694D1F709C04C
:10139000FE01E00FF11F22A9207F992D9F70822E60
:1013A000892A0C0F1D1FF80182AA4FC0452F562F06
:1013B000672F77278AA19BA1ACA1BDA1480F591F18
:1013C0006A1F7B1FCE010E940506882309F03DC0DD
:1013D000F601EE0FFF1FF170EC0FFD1F82AA93AA1A
:1013E00034C0689416F87695679557954795169486
:1013F000D1F78AA19BA1ACA1BDA1480F591F6A1FBB
:101400007B1FCE010E9405068823F9F49601220F66
:10141000331F220F331F3170FE01E20FF31F45A966
:1014200050E060E070E0742F662755274427407035
:1014300050706070707F482959296A297B2942AB16
:1014400053AB64AB75AB01C082E091E09C8303C0F9
:1014500082E001C082E0DF91CF911F910F91FF9058
:10146000EF90DF90CF90BF90AF909F908F900895B6
:101470002F923F924F925F926F927F928F929F92A4
:10148000AF92BF92CF92DF92EF92FF920F931F9392
:10149000CF93DF9300D000D0CDB7DEB71C014983D6
:1014A0005A836B837C834115510561057105C1F435
:1014B000DC011A968D909D90AD90BC901D97811483
:1014C0009104A104B10451F15A968D919D910D9012
:1014D000BC91A02D88169906AA06BB0620F527C048
:1014E00049815A816B817C810E9458078B019C0144
:1014F000623071058105910508F4ADC0F101828D5E
:10150000938DA48DB58D081719072A073B0708F49A
:10151000B6C089809A80AB80BC8009C08824992499
:101520005401839404C08824992454018394750140
:101530006401442455243201689441F80894C11C84
:10154000D11CE11CF11CF101828D938DA48DB58D10
:10155000C816D906EA06FB0648F0F2E08F16910499
:10156000A104B10408F47CC073016201C101B70198
:10157000A6010E9458078B019C0161157105810528
:101580009105A9F00F3F8FEF18078FEF28078FEF16
:10159000380709F474C0013011052105310509F43B
:1015A0006EC0C814D904EA04FB0441F65DC08C2C5B
:1015B0004D2CBE2CAF2CC1014C2D5D2D6E2D7F2DE1
:1015C0000FEF1FEF2FEF3FE00E9447098823E9F557
:1015D00089819A81AB81BC810097A105B10569F031
:1015E000C10149815A816B817C810C2D1D2D2E2DCD
:1015F0003F2D0E944709882341F5D1011A968C920C
:101600001A971B964C921B971C96BC921C971D9682
:10161000AC921D971E968D919D910D90BC91A02D21
:101620008F3FEFEF9E07EFEFAE07EFEFBE0701F141
:101630000197A109B109F10186879787A08BB18B2A
:1016400081E08583970186011AC08130A1F40FEFF4
:101650001FEF980114C001E010E020E030E00FC05F
:1016600000E010E098010BC000E010E0980107C016
:101670009701860104C001E010E020E030E0602F17
:10168000712F822F932F0F900F900F900F90DF915B
:10169000CF911F910F91FF90EF90DF90CF90BF906F
:1016A000AF909F908F907F906F905F904F903F9002
:1016B0002F9008958F929F92AF92BF92CF92DF9218
:1016C000EF92FF920F931F93CF93DF938C01EB0167
:1016D000DC011496ED90FC9015970894E11CF11C28
:1016E000E114F10409F409C11E968D919D910D90AC
:1016F000BC91A02D0097A105B10509F400C10F2EE2
:10170000FFE0CF2EDD24F02DCE20DF20C114D10448
:1017100009F0D8C00196A11DB11DF80186879787F1
:10172000A08BB18B42855385648575854115510524
:101730006105710551F40190F081E02D808591855E
:10174000E816F90608F0DDC0BDC00190F081E02D7B
:10175000828190E001979701329522952F7023277F
:101760003F70232782239323009709F0ABC0CF015A
:101770000E9458074B015C0162307105810591059B
:1017800008F4C1C06F3FEFEF7E07EFEF8E07EFEF7A
:101790009E0709F4BAC0D801ED91FC91828D938D1A
:1017A000A48DB58D88169906AA06BB0608F478C0E4
:1017B000209709F4ACC0D8011A964D915D916D91B6
:1017C0007C911D97CF010E94380A4B015C01611585
:1017D00071058105910509F49CC061307105810591
:1017E000910509F498C06F3FEFEF7E07EFEF8E078A
:1017F000EFEF9E0709F491C0D8018D919C9140E0D4
:1018000050E0BA010E940506882309F088C0F8015B
:1018100080819181C29660E070E040E052E00E94D9
:101820007500D801CD91DC91CE01B501A4010E94D3
:101830002207DC01CB018EA79FA7A8ABB9ABC0E004
:10184000D1E01BC0D483F8018081918140E050E059
:10185000BA010E940506882309F063C0D801ED9102
:10186000FC9186A597A5A0A9B1A90196A11DB11DBE
:1018700086A797A7A0ABB1ABCF5FD801ED91FC9144
:1018800011978281C817F0F286A597A5A0A9B1A9E2
:101890008C1B9109A109B10986A797A7A0ABB1AB91
:1018A000F80182869386A486B58680819181B501F0
:1018B000A4010E942207DC01CB01F80186879787EB
:1018C000A08BB18BD8011596FC92EE9214978D9156
:1018D0009C911197C296CC0CDD1CCC0CDD1CCC0C61
:1018E000DD1CCC0CDD1CCC0CDD1C8C0D9D1D539621
:1018F0009C938E93529780E015C084E013C084E0DF
:1019000011C084E00FC082E00DC081E00BC084E014
:1019100009C087E007C082E005C081E003C081E024
:1019200001C081E0DF91CF911F910F91FF90EF9067
:10193000DF90CF90BF90AF909F908F9008952F929F
:101940003F924F925F926F927F928F929F92AF924F
:10195000BF92CF92DF92EF92FF920F931F93CF939C
:10196000DF93CDB7DEB728970FB6F894DEBF0FBE72
:10197000CDBF8C015B01DB018C918F3211F08C3576
:1019800049F40894A11CB11CF80116821782108634
:1019900011860CC0D801ED91FC9186899789A08DA4
:1019A000B18DF80186839783A087B187D5018C918B
:1019B000803250F4C80160E070E00E946408482F53
:1019C000F801138A128A7CC10F2EFBE06F2E772458
:1019D000F02DEE24FF2444245524689443F88824F1
:1019E0004B825C826D827E82F5019F0181918F32F4
:1019F000E1F38C35D1F338872F83D8015496CD90FD
:101A0000DC905597C60160E270E0A3010E9475006A
:101A1000EF81F88580818E3259F5EEE2D601EC93A4
:101A2000AF81B88511962C9111972E3251F4F601A1
:101A3000218312962C9112972E3251F083E090E080
:101A400002C082E090E02F3249F02C3539F002C01C
:101A500083E090E0213208F022C14CC1AF80B8840D
:101A6000A80EB91E80E2D6011B968C931B974FC11E
:101A7000B701A701D201982CEF81F885E40FF51F7B
:101A800020815A010894A11CB11C213208F469C0BC
:101A90002F3209F435C12C3509F432C12E3219F038
:101AA0006A177B0778F0A830B10509F0FAC02E322A
:101AB00009F0F9C0990C990CA5016B817C81AD816D
:101AC000BE81DACF222314F4F3E09F2A822F8158BB
:101AD0008F3118F08F558D31E8F4EF81F885EA0DDC
:101AE000FB1D3081832F80548F3320F080548D373D
:101AF00008F0DBC0CD0101976817790708F0D7C05F
:101B00004E5F5F4FF601E60FF71F208331836E5F54
:101B10007F4FB2CF422F50E04232510509F4C9C085
:101B2000E1E0F1E08191882331F090E04817590716
:101B3000C9F746E0C5C0822F81548A3118F4F2E01B
:101B40009F2A07C0822F81568A3118F431E0932AE8
:101B50002052F601E60FF71F20836F5F7F4FA5012C
:101B60008BCF8F819885A80EB91E992D44E0611501
:101B7000710509F4A0C0F6018081853E11F425E0CD
:101B80002083A830B10519F4992E990C990C892D50
:101B900090E09C01237030702130310509F44061E0
:101BA0008C7090708430910509F44860D6011B96C2
:101BB0004C931B97ACC0F8014685578560897189A5
:101BC000808191810E940506482F882331F5D80134
:101BD00052962D913C915397F9018081882309F405
:101BE000A6C0838583FD12C054966D917C91559754
:101BF000C9010B96DB0169019C0104C0E217F307E0
:101C000009F48EC091918D919817C1F3C801B70165
:101C10000E945A0B482F882371F2D8015496ED91F7
:101C2000FC9155978385443009F04AC085FF0BC06D
:101C3000F8011682178210861186138A128A82FF93
:101C4000D3CE40E03DC082FF38C044E039C0D60169
:101C50001B968C911B9784FF32C05596BC91BA831A
:101C60001982F601848990E029813A81822B932B95
:101C7000A0E0B0E0BC0155274427338C2224828D9C
:101C800090E082299329A0E0B0E0842B952BA62B2D
:101C9000B72BF80186839783A087B187A5CE46E04E
:101CA0000FC046E00DC046E00BC046E009C046E06C
:101CB00007C046E005C046E003C045E001C045E07E
:101CC000842F28960FB6F894DEBF0FBECDBFDF91EC
:101CD000CF911F910F91FF90EF90DF90CF90BF9029
:101CE000AF909F908F907F906F905F904F903F90BC
:101CF0002F900895AF80B884A80EB91E84E2B3CEA9
:101D00002F813885A20EB31E992D482D30CFC801E2
:101D1000B7010E946408482F882309F44CCF7DCF77
:101D2000DB011B968C911B9782FF91CFC9CFD80105
:101D30005496ED91FC915597838578CFEF92FF9261
:101D40000F931F93CF938C0160E070E00E946408B2
:101D5000C82F8823D9F5D8011E964D915D916D91BC
:101D60007C9151978D919C910E940506C82F8823E4
:101D700069F5D8015296ED91FC9153978081853E8B
:101D800061F1882351F1C80161E070E00E945A0BB3
:101D9000C82F882301F31AC0F801E288F388C7012D
:101DA00060E070E040E250E00E947500D801549677
:101DB0006D917C915597C7014BE050E00E946800FF
:101DC000D801ED91FC91119781E084838C2FCF9104
:101DD0001F910F91FF90EF900895F8014685578568
:101DE00060897189808191810E940506C82F8823AE
:101DF00069F7D2CFCF93DF93EC0184E017C08881DD
:101E000099810E9405068823E1F4EA89FB89908183
:101E10009923F1F0953E19F0938593FF16C0CE01FA
:101E200060E070E00E945A0B882359F44E855F856C
:101E300068897989411551056105710501F7882384
:101E400021F01E861F86188A198ADF91CF91089586
:101E500084E0F7CF7F928F929F92AF92BF92CF9202
:101E6000DF92EF92FF920F931F93CF93DF93EC01DA
:101E70004A015B01423051056105710508F455C006
:101E80008A8D9B8DAC8DBD8D481759076A077B07DE
:101E900008F04DC003C04601570102C07724739477
:101EA000CE01B501A4010E9458076B017C016115A8
:101EB000710581059105E9F191E0C916D104E104AC
:101EC000F104C9F18FEFC8168FEFD8068FEFE8063F
:101ED0008FEFF80691F1CE01B501A40100E010E00A
:101EE00098010E944709882349F54E855F856889D6
:101EF00079894F3F9FEF59079FEF69079FEF790758
:101F000049F04F5F5F4F6F4F7F4F4E875F87688B02
:101F1000798B7D824A8D5B8D6C8D7D8DC416D50647
:101F2000E606F70608F4B7CF09C082E007C082E0F2
:101F300005C080E003C082E001C081E0DF91CF9165
:101F40001F910F91FF90EF90DF90CF90BF90AF90D7
:101F50009F908F907F900895882391F4E0911C01C9
:101F6000F0911D01309709F010826115710511F093
:101F7000FB01108270931D0160931C0180E00895A5
:101F80008BE008954F925F926F927F928F929F9213
:101F9000AF92BF92CF92DF92EF92FF921F93CF93B7
:101FA000DF93CDB7DEB7A4970FB6F894DEBF0FBEB0
:101FB000CDBF6C017CA36BA3DC011D921C92142F7E
:101FC0001F714E71CE018396BE016F5F7F4F0E94DD
:101FD000CA01282FCE0147969E8B8D8B222309F0B4
:101FE00040C16BA17CA1CE0101960E949F0C282FBD
:101FF000EB88FC88882321F4E114F10409F426E03D
:10200000412F50E0CA018C719070009709F482C092
:10201000222379F0243009F00DC1CE0101960E94EF
:102020009E0E282FEB88FC88882309F003C11860D6
:1020300007C0F7018385817109F016C112FD16C131
:1020400013FF1AC10E941D07D7011E966C931E979D
:102050001F967C931F9750968C93509751969C9304
:1020600051971B961C921B975C961C925C975D96F1
:102070001C925D975E961C925E975F961C925F978E
:1020800055963C91559720E054968C9190E0822B88
:10209000932BA0E0B0E05C0199248824F701338DF4
:1020A00020E0828D90E0822B932BA0E0B0E0882A84
:1020B000992AAA2ABB2A128E138E148A158AE981BC
:1020C000FA8181E0848381149104A104B10409F4AC
:1020D000D3C046A457A460A871A8CF01B501A4013C
:1020E0000E942A0F282F882309F0A4C0E981FA81D1
:1020F000D501C4010197A109B10982879387A487FB
:10210000B587CF01B301A2010E940506282F8823BD
:1021100081F090C0222309F08DC0D7011B968C91CD
:102120001B9784FDA5C011FFA7C080FDA3C0A4C05C
:1021300020E01062E981FA8146A557A560A971A93E
:10214000D6015A964D935D936D937C935D975F9600
:10215000FC92EE925E9714961C93D70155965C9173
:10216000559740E054968C9190E0842B952BA0E0FD
:10217000B0E05C0199248824D7015B965C915B9761
:1021800040E05A968C9190E0842B952BA0E0B0E033
:10219000882A992AAA2ABB2AD6011E968D929D9238
:1021A000AD92BC925197D7015F968C9190E0A0E0E0
:1021B000B0E0B82EAA2499248824D7015E964C91C9
:1021C0005E9750E060E070E0BA0155274427482947
:1021D00059296A297B295C968C9190E0A0E0B0E0B7
:1021E000482B592B6A2B7B2BD7015D969C9180E065
:1021F000A0E0B0E0482B592B6A2B7B2BD6011A9616
:102200004D935D936D937C931D9716961D921D9231
:102210001D921C92199756961D921D921D921C920A
:1022200059971196FC93EE938681978113969C9310
:102230008E931297822FA4960FB6F894DEBF0FBE2E
:10224000CDBFDF91CF911F91FF90EF90DF90CF90A6
:10225000BF90AF909F908F907F906F905F904F90C6
:102260000895EB88FC88CCCE27E0E4CF28E0E2CFCD
:1022700024E0E0CF27E0DECF13FD5ACF20E05ACF95
:102280002F923F924F925F926F927F928F929F9286
:10229000BF92CF92DF92EF92FF920F931F93CF9353
:1022A000DF9300D000D0CDB7DEB79C838B83C62EE2
:1022B000172F4A011901D9011D921C92FC0162815C
:1022C0007381808191810E941101B82E882309F0C9
:1022D0007CC1AB81BC8114968C91149788230CF43B
:1022E0006CC180FF6EC11A968D919D910D90BC912D
:1022F000A02DEB81FC814681578160857185841B0F
:10230000950BA60BB70BA40160E070E0841795074E
:10231000A607B70708F44C018114910409F455C1CC
:10232000C9821A83AB81BC8116964D915D916D91E6
:102330007C911997DB01CA019170A070B070009771
:10234000A105B10509F0DBC0AB81BC81ED91FC9129
:10235000DB01CA01072E79E0B695A7959795879579
:102360007A95D1F7702D12811150182309F041C0D0
:10237000411551056105710539F4EB81FC818685B4
:102380009785A089B1890DC0AB81BC8152964D91D2
:102390005D916D917C915597CF010E945807DC01AA
:1023A000CB0182309105A105B10548F4EB81FC8198
:1023B000848180688483BB246894B1F806C18F3F10
:1023C000FFEF9F07FFEFAF07FFEFBF0761F4AB81A0
:1023D000BC8114968C911497806814968C931497F2
:1023E000BB24B394F2C0EB81FC81828B938BA48BD2
:1023F000B58BAB81BC816D907C90119752964D91BD
:102400005D916D917C915597C3010E942207DC017B
:10241000CB010097A105B10549F4EB81FC818481D2
:1024200080688483BB246894B1F8CFC06C017D01BF
:10243000C10ED11CE11CF11C2401452C55244694ED
:102440004114510409F453C0D30112964C911297D0
:10245000C201810F911D242F30E02817390720F485
:10246000C9012C01411A5108F301818169817A81E6
:10247000A7019601042D10E00E947A22882361F0C2
:10248000AB81BC8114968C911497806814968C93C0
:102490001497BB24B39499C0AB81BC81ED91FC919E
:1024A000119784818823F1F086A597A5A0A9B1A9E9
:1024B0008C199D09AE09BF09A20160E070E0841784
:1024C0009507A607B70770F4982F8827990FBF01C3
:1024D0006E5C7F4FE981FA818E0F9F1F40E052E0D2
:1024E0000E9468006201DC2CCC24DD0C41C0AB8171
:1024F000BC815696CD92DD92ED92FC925997EB817C
:10250000FC81C680D780E084F18446895789608D3C
:10251000718D808191810E940506882361F0AB81D5
:10252000BC8114968C911497806814968C931497A0
:10253000BB24B3944AC0C6019170E0E0F2E0E81B0E
:10254000F90B6401E815F90508F46F01AB81BC8152
:1025500016966D917C9117977170CB01C2966D9113
:102560007C91680F791F89819A81A6010E94680079
:10257000E981FA81EC0DFD1DFA83E983A60160E093
:1025800070E0EB81FC8186819781A085B185840F05
:10259000951FA61FB71F86839783A087B187D10198
:1025A0008D919C9111978C0D9D1D11969C938E93EE
:1025B0008C189D0809F0B6CE08C0BB246894B1F809
:1025C00004C00F2EF7E0BF2EF02D8B2D0F900F9033
:1025D0000F900F90DF91CF911F910F91FF90EF908F
:1025E000DF90CF90BF909F908F907F906F905F9083
:1025F0004F903F902F9008952F923F924F925F926D
:102600006F927F928F929F92AF92BF92CF92DF9202
:10261000EF92FF920F931F93CF93DF9300D000D0E0
:10262000CDB7DEB79C838B83C62E172F4A011901C5
:10263000D9011D921C92FC0162817381808191817C
:102640000E941101B82E882309F0FDC1AB81BC8125
:1026500014968C91149788230CF4EDC181FFEFC17F
:102660001A964D915D916D917C911D97C401A0E0EA
:10267000B0E0840F951FA61FB71F84179507A60704
:10268000B70708F4BBC18114910409F4B7C1C9822A
:102690001A83AA24A394EB81FC814681578160852B
:1026A0007185DB01CA019170A070B0700097A1051F
:1026B000B10509F040C120813181DB01CA01072E3B
:1026C00079E0B695A795979587957A95D1F7702D6E
:1026D000F90112811150182309F058C04115510514
:1026E00061057105C9F4EB81FC8186859785A08918
:1026F000B1890097A105B10509F5C90140E050E095
:10270000BA010E94380ADC01CB01EB81FC8186878B
:102710009787A08BB18B0DC0AB81BC8152964D9138
:102720005D916D917C915597C9010E94380ADC0139
:10273000CB010097A105B10509F460C18130910575
:10274000A105B10549F4EB81FC8184818068848313
:10275000BB246894B1F877C18F3FFFEF9F07FFEF6D
:10276000AF07FFEFBF0761F4AB81BC8114968C917A
:102770001497806814968C931497BB24B39463C108
:10278000EB81FC81828B938BA48BB58BAB81BC815D
:102790002D913C91F90186A597A5A0A9B1A9EB813E
:1027A000FC8146895789608D718D84179507A6072E
:1027B000B707A1F4C90140E050E0BA010E94050644
:1027C000882361F0AB81BC8114968C91149780684A
:1027D00014968C931497BB24B39435C1EB81FC8180
:1027E000408051804289538964897589C2010E9461
:1027F0002207DC01CB010097A105B10569F4AB818B
:10280000BC8114968C911497806814968C931497BD
:10281000BB246894B1F817C16C017D01C10ED11CB5
:10282000E11CF11C3401672C772466946114710457
:1028300009F450C0F2014281C301810F911D242F80
:1028400030E02817390720F4C9013C01611A7108EA
:10285000D20111968C9169817A81A7019601062D8A
:1028600010E00E94D222882341F0EB81FC81848118
:1028700080688483BB24B394E6C0AB81BC81ED91B6
:10288000FC9186A597A5A0A9B1A98C199D09AE09AF
:10289000BF09A30160E070E084179507A607B7079A
:1028A000A0F4BC01762F6627770F29813A81620F49
:1028B000731FCF01C29640E052E00E946800AB81D6
:1028C000BC81ED91FC91119714826301DC2CCC2426
:1028D000DD0C70C0EB81FC8186819781A085B1857C
:1028E000428553856485758584179507A607B707C4
:1028F000E0F0C20140E050E0BA010E9405068823E2
:1029000061F0AB81BC8114968C9114978068149609
:102910008C931497BB24B39496C0AB81BC81ED918A
:10292000FC91C6A6D7A6E0AAF1AAEB81FC81C68AD3
:10293000D78AE08EF18EAB81BC811696CD90DD906A
:10294000ED90FC90199756964D915D916D917C910B
:1029500059978D919C910E940506882341F0EB8147
:10296000FC81848180688483BB24B3946CC0C601DD
:10297000917020E032E0281B390B640128153905DD
:1029800008F46901AB81BC8116968D919C911797D3
:1029900091709C012E5C3F4F8D919C91820F931FF3
:1029A00069817A81A6010E946800AB81BC81ED91AA
:1029B000FC91A482E981FA81EC0DFD1DFA83E98383
:1029C000A60160E070E0EB81FC8186819781A085A3
:1029D000B185840F951FA61FB71F86839783A08795
:1029E000B187D1018D919C9111978C0D9D1D1196F0
:1029F0009C938E938C189D0809F04DCEEB81FC8141
:102A000086819781A085B1854285538564857585CA
:102A1000481759076A077B0720F482879387A487A2
:102A2000B587AB81BC8114968C9114978062149603
:102A30008C93149708C0BB246894B1F804C00F2E7F
:102A4000F7E0BF2EF02D8B2D0F900F900F900F9071
:102A5000DF91CF911F910F91FF90EF90DF90CF907A
:102A6000BF90AF909F908F907F906F905F904F90AE
:102A70003F902F9008950F931F93CF93DF93EC0116
:102A80006A817B81888199810E9411018823A9F53F
:102A90009C8195FF32C04A8D5B8D6C8D7D8D8881C8
:102AA00099810E940506882341F50E8D1F8DF8013E
:102AB0008385806283878A85848F8B85858F8C85CB
:102AC000868F8D85878F8E85828F8F85838F88896E
:102AD000848B8989858B0E941D07F801668B778B13
:102AE000808F918F8C818F7D8C83E881F98181E04B
:102AF0008483888199810E949006DF91CF911F91F4
:102B00000F910895CF93DF93EC010E943B1588232A
:102B100011F419821882DF91CF910895882319F456
:102B200010921E0108958BE00895CF92DF92EF92EC
:102B3000FF92CF93DF93CDB7DEB7A4970FB6F8948B
:102B4000DEBF0FBECDBF9CA38BA3CE018396BE017B
:102B50006F5F7F4F40E00E94CA01882309F043C0A5
:102B6000CE0147969E8B8D8B6BA17CA1CE010196E9
:102B70000E949F0C8823A1F5EB89FC89309759F4BA
:102B8000E981FA814F81588569857A85468B578B13
:102B9000608F718F28C0938594FF32C0A981BA815C
:102BA000558940E0248930E0242B352B6901EE243F
:102BB000FF247601DD24CC24338D20E0428D50E0CB
:102BC000242B352BA90160E070E0C42AD52AE62A1F
:102BD000F72A5696CD92DD92ED92FC92599703C05A
:102BE000843009F485E0A4960FB6F894DEBF0FBEDA
:102BF000CDBFDF91CF91FF90EF90DF90CF90089500
:102C000085E0F1CF2F923F924F925F926F927F9229
:102C10008F929F92AF92BF92CF92DF92EF92FF92EC
:102C20000F931F93CF93DF93CDB7DEB7EC970FB61B
:102C3000F894DEBF0FBECDBF9AAF89AF7CAF6BAF4C
:102C4000DC011C92CE01C996BE016F5F7F4F40E050
:102C50000E94CA01182F882309F0E8C0CE018D9682
:102C60009E8B8D8BE981FA8186889788A08CB18CA8
:102C70008F829886A986BA8681149104A104B10432
:102C800009F4FEC0EBACFCAC0FE2CE01019661E0B2
:102C900070E00E946408182F882309F0B0C0CE01AC
:102CA00001960E94FA0E182F882309F0A8C0EB891C
:102CB000FC8935882224848990E082299329A0E028
:102CC000B0E0BC0155274427538C4424828D90E00A
:102CD00084299529A0E0B0E0842B952BA62BB72B57
:102CE0008F839887A987BA87CE01019660E070E04C
:102CF0000E946408182F882309F081C0CE01019634
:102D00000E94FA0E182F882339F5EB89FC89758803
:102D10006624848990E086299729A0E0B0E0BC0170
:102D200055274427D38CCC24828D90E08C299D2973
:102D3000A0E0B0E0842B952BA62BB72B8815990526
:102D4000AA05BB0579F0CE01019660E070E00E9413
:102D50005A0B182F882391F2143009F44DC0112317
:102D600009F04DC0CE010196BE01695E7F4F0E9401
:102D70007F0088A1882351F0FE01B19620E030E069
:102D80002F5F3F4F81918823D9F702C020E030E0C8
:102D9000C9010396E816F90688F121153105C1F03D
:102DA000C9010996E7E1F0E0EC0FFD1FE80FF91FFC
:102DB000A701421B530B0894E108F108229189AD49
:102DC0009AAD8E0D9F1DDC012C93E416F50699F744
:102DD0000894E108F10889AD9AAD8E0D9F1DFC01A4
:102DE00000838F809884A984BA8481149104A104FB
:102DF000B10409F04ACF34C012E001C011E1E9ADDD
:102E0000FAAD13C08FE2828333960FC0E9ADFAADFD
:102E1000EE0DFF1D80818D93FD010894E11CF11CD6
:102E20008BAD9CADE816F90688F31082812FEC96E5
:102E30000FB6F894DEBF0FBECDBFDF91CF911F91CB
:102E40000F91FF90EF90DF90CF90BF90AF909F9049
:102E50008F907F906F905F904F903F902F9008954C
:102E6000E9ADFAAD80911E01805D80838AE38183A4
:102E7000ABADBCADEA16FB0629F2DF011296C6CF58
:102E8000E9ADFAAD80911E01805D80838AE3818384
:102E9000B9CF2F923F924F925F926F927F928F9213
:102EA0009F92AF92BF92CF92DF92EF92FF921F93C9
:102EB000CF93DF9300D000D000D0CDB7DEB79E8394
:102EC0008D836A017B01DC0112966D917C911397D1
:102ED0008D919C910E941101182F882309F0A5C1A2
:102EE000ED81FE81248122230CF49EC1828593858D
:102EF000A485B5858C159D05AE05BF0520F421FD83
:102F000002C06C017D01AD81BE8116964D915D912F
:102F10006D917C911997FD0116821782108611869A
:102F2000C114D104E104F10409F47FC1208031808F
:102F3000D10112968C9190E0A0E0B0E04C015D01CF
:102F4000072E79E0880C991CAA1CBB1C7A95D1F736
:102F5000702D4115510561057105F1F12A013B0103
:102F600008944108510861087108C701B601615011
:102F7000704080409040A50194010E941F24298345
:102F80003A834B835C83C301B201A50194010E9483
:102F90001F2489819A81AB81BC8182179307A40782
:102FA000B507D0F088279927DC0188199909AA0963
:102FB000BB0984219521A621B721ED81FE8186835D
:102FC0009783A087B187C81AD90AEA0AFB0A4289FF
:102FD00053896489758942C0AD81BE811E964D9129
:102FE0005D916D917C915197411551056105710578
:102FF00069F5C10140E050E0BA010E94380AAB0116
:10300000BC01413051056105710539F4ED81FE8146
:1030100084818068848312E008C14F3FFFEF5F071F
:10302000FFEF6F07FFEF7F0759F4AD81BE81149664
:103030008C911497806814968C93149711E0F5C0C6
:10304000ED81FE8146875787608B718BAD81BE8194
:1030500052964D935D936D937C9355974115510511
:103060006105710509F4A8C08C149D04AE04BF0469
:1030700008F068C04D805E80F201848181FF0CC041
:10308000808191810E94380AAB01BC014115510534
:103090006105710539F452C0808191810E94580701
:1030A000AB01BC014F3FBFEF5B07BFEF6B07BFEF4B
:1030B0007B0741F45E824D82F201848180688483C3
:1030C00011E0B3C0423051056105710560F0D201D5
:1030D000ED91FC91828D938DA48DB58D4817590784
:1030E0006A077B0740F05E824D82F201848180682E
:1030F000848312E09AC0D20152964D935D936D93F2
:103100007C93559716968D919D910D90BC91A02D15
:10311000880D991DAA1DBB1DF20186839783A08788
:10312000B187C818D908EA08FB088C149D04AE04BE
:10313000BF0408F4A1CF5E824D8204C05E824D823E
:1031400075016401ED81FE8186819781A085B1853D
:103150008C0D9D1DAE1DBF1D86839783A087B187F3
:10316000D701C6019170A070B0700097A105B1059C
:1031700039F1808191810E942207DC01CB01009707
:10318000A105B10559F4AD81BE8114968C911497B7
:10319000806814968C93149712E047C00B2EB9E008
:1031A000F694E794D794C794BA95D1F7B02DC80E8A
:1031B000D91EEA1EFB1E07C0CC24DD24760103C005
:1031C000CC24DD247601ED81FE8186819781A08566
:1031D000B1859170A070B0700097A105B10569F03C
:1031E00086899789A08DB18D8C159D05AE05BF058B
:1031F00021F0C68AD78AE08EF18EED81FE8186812C
:103200009781A085B185428553856485758548176A
:1032100059076A077B0748F482879387A487B58795
:1032200084818062848301C012E0812F26960FB6CC
:10323000F894DEBF0FBECDBFDF91CF911F91FF90FD
:10324000EF90DF90CF90BF90AF909F908F907F9046
:103250006F905F904F903F902F9008950F931F9322
:10326000CF93DF93CDB7DEB72E970FB6F894DEBFBE
:103270000FBECDBF8C017E876D87CE010D96B80144
:1032800040E00E94CA01882309F04AC0CE0101969D
:10329000D80155969C938E9354976D857E85C80171
:1032A0000E949F0C8823B1F5D8015296ED91FC91B4
:1032B0005397309701F1838584FF2FC0358920E033
:1032C000848990E0822B932BAC0160E070E0BA011E
:1032D00055274427938D80E0228D30E0822B932B5D
:1032E000A0E0B0E0482B592B6A2B7B2BF8014683DA
:1032F000578360877187D801ED91FC911197868182
:10330000978113969C938E931297C80160E070E0AA
:103310000E946408843019F003C085E001C085E094
:103320002E960FB6F894DEBF0FBECDBFDF91CF91C2
:103330001F910F910895CF92DF92EF92FF921F930A
:10334000CF93DF93CDB7DEB72C970FB6F894DEBFDF
:103350000FBECDBF7C016B01FC0162817381808156
:1033600091810E941101182F882381F5C114D10485
:1033700039F4C70160E070E00E946408182F26C08D
:10338000CE010196F701958B848BC7010E94FA0E3E
:10339000843031F4F70116861786108A118A02C02C
:1033A000882389F4C701B6010E947F00C70160E04D
:1033B00070E00E945A0B843041F4F701168617869C
:1033C000108A118A03C0182F01C0182F812F2C9644
:1033D0000FB6F894DEBF0FBECDBFDF91CF911F9126
:1033E000FF90EF90DF90CF900895EF92FF921F93A0
:1033F000CF93DF93CDB7DEB7A4970FB6F894DEBFB7
:103400000FBECDBF9CA38BA37B01CE018396BE01D3
:103410006F5F7F4F40E00E94CA01182F8823C1F4DC
:10342000CE0147969E8B8D8B6BA17CA1CE01019620
:103430000E949F0C182F882359F48B899C89009730
:1034400031F0CE010196B7010E947F0001C016E065
:10345000812FA4960FB6F894DEBF0FBECDBFDF91CB
:10346000CF911F91FF90EF9008952F923F924F922E
:103470005F926F927F928F929F92AF92BF92CF9204
:10348000DF92EF92FF920F931F93CF93DF93CDB70D
:10349000DEB72A970FB6F894DEBF0FBECDBF9A8372
:1034A00089837C836B833A01CE010196BA0140E0A7
:1034B0000E94CA01182F882309F0FBC0D301ED91A7
:1034C000FC9186859785A089B189C28CD38CE48CC8
:1034D000F58CB701A601425050406040704048173B
:1034E00059076A077B0738F0EB81FC818083918361
:1034F000A283B383DEC00081013009F03FC0CC2439
:10350000DD2476016894C1F8882499245401D301FC
:103510008D919C91B701A6010E945807DC01CB0157
:103520008F3FEFEF9E07EFEFAE07EFEFBE0709F417
:10353000A4C081309105A105B10509F4A0C0009790
:10354000A105B10529F40894811C911CA11CB11C92
:103550000894C11CD11CE11CF11CD301ED91FC911C
:10356000828D938DA48DB58DC816D906EA06FB060B
:1035700070F286869786A08AB18A95C022A033A071
:1035800044A055A0E0E0F0E020E030E08824992459
:1035900054017E826D823201210121153105C1F471
:1035A000ED81FE8180819181B301A2010E94050617
:1035B000882309F066C00894411C511C611C711CD1
:1035C000AD81BE81ED91FC911197F29620E032E041
:1035D0000230A1F4B181B8871F82808190E04F81D1
:1035E0005885842B952B009729F40894811C911CF5
:1035F000A11CB11C32962250304031C0838190E032
:10360000A0E0B0E0782F662755274427828190E01C
:10361000A0E0B0E0DC0199278827482B592B6A2BC2
:103620007B2B808190E0A0E0B0E0842B952BA62B33
:10363000B72B31802224A10160E070E0842B952B10
:10364000A62BB72BBF700097A105B10529F40894EC
:10365000811C911CA11CB11C34962450304008944C
:10366000C108D108E108F108C114D104E104F10452
:1036700009F093CF6D807E8007C011E005C012E095
:1036800003C06D807E80182FD301ED91FC911197BE
:1036900086869786A08AB18A033029F4ED91FC9141
:1036A000119781E08583EB81FC8180829182A282E7
:1036B000B382812F2A960FB6F894DEBF0FBECDBF1E
:1036C000DF91CF911F910F91FF90EF90DF90CF90FE
:1036D000BF90AF909F908F907F906F905F904F9032
:1036E0003F902F900895CF92DF92EF92FF920F9329
:1036F0001F93CF93DF93EC016A817B81888199814D
:103700000E941101882309F063C09C81992324F051
:1037100091FD67C087E05CC082E05AC04A875B8742
:103720006C877D878C8180628C8341155105610592
:10373000710569F44E855F856889798988819981E9
:103740000E942A0F1E861F86188A198A3CC04A8941
:103750005B896C897D89888199810E9458076B01FA
:103760007C0181E0C816D104E104F10409F448C0E9
:1037700081E09FEFC9169FEFD9069FEFE9069FEF03
:10378000F90609F080E0882301F5E881F981428D8E
:10379000538D648D758DC416D506E606F706C0F404
:1037A0004A895B896C897D89CF010FEF1FEF2FEF6D
:1037B0003FE00E944709882341F488819981B7013D
:1037C000A6010E942A0F882319F09C8190689C838F
:1037D000DF91CF911F910F91FF90EF90DF90CF90ED
:1037E00008954E815F81688579850A851B852C85C2
:1037F0003D85401751076207730708F48FCFE8CF64
:1038000082E0E3CFCF92DF92EF92FF92CF93DF93EC
:10381000CDB7DEB7EA970FB6F894DEBF0FBECDBFC7
:103820009AAF89AFCE01C996BE016F5F7F4F41E06D
:103830000E94CA01882309F060C0CE018D969E8B3C
:103840008D8B69AD7AADCE0101960E949F0C8823C5
:1038500009F053C0ED89FE89838585FF5BC086E052
:103860004CC0838580FF65C087E047C086E045C0C7
:1038700082E0C816D104E104F10408F451C0CE017D
:103880004796BE016F5F7F4F46E150E00E9468009F
:10389000CD8EDE8EEF8EF8A2CE01479662E070E00C
:1038A0000E946408882349F5CE0147960E94FA0ECB
:1038B000882371F0EF89F88D46895789608D718D65
:1038C0004C155D056E057F0529F0843059F115C052
:1038D00087E013C087E011C0C114D104E104F104F2
:1038E00041F089819A81B701A6010E942A0F88239D
:1038F00021F489819A810E949006EA960FB6F89485
:10390000DEBF0FBECDBFDF91CF91FF90EF90DF9074
:10391000CF900895EB89FC89309709F0A2CFA6CF0C
:1039200082E0EBCFCE0101960E9429098823A1F203
:10393000E4CF958980E0448950E0842B952BAC013D
:1039400060E070E0BA0155274427938D80E0C28C77
:10395000DD248C299D296C01EE24FF24C42AD52A5C
:10396000E62AF72A838584FD83CFDCCF2F923F920E
:103970004F925F926F927F928F929F92AF92BF927F
:10398000CF92DF92EF92FF920F931F93CF93DF932B
:10399000CDB7DEB7A9970FB6F894DEBF0FBECDBF87
:1039A0009CA38BA30E941D076B017C01CE01839613
:1039B000BE016F5F7F4F41E00E94CA01182F88232C
:1039C00009F00FC1CE0147969E8B8D8B6BA17CA118
:1039D000CE0101960E949F0C882349F0843041F467
:1039E000ED89FE89838585FF16C186E001C088E0E8
:1039F000182FF7C081E0481651046104710409F4DE
:103A00001AC1EFEF4E16EFEF5E06EFEF6E06EFEF27
:103A10007E0609F412C101C017E0112309F0C1C0EC
:103A200089819A8140E050E0BA010E940506182F72
:103A3000882309F0B6C009811A81C801B301A20127
:103A40000E9422074B015C010F2EF2E32F2E33243C
:103A5000F02D200E311EC10160E070E040E052E028
:103A60000E947500C10160E270E04BE050E00E94EE
:103A700075008EE2F80182AB80E185AFCDA2E85BF4
:103A8000FF4FC0828D2D99278EA3F801E75BFF4F72
:103A90008083C701AA27BB278FA3F801E65BFF4FEE
:103AA0008083CF2CDD24EE24FF24C8A6F801E55B3B
:103AB000FF4FC08249A6F801E45BFF4F4082852D8D
:103AC0009927D82EF801E35BFF4F8083C301AA2713
:103AD000BB27E82EF801EA5BFF4F8083892F9927E7
:103AE000F82EF801E95BFF4F8083C8018E5A9F4F83
:103AF000B10140E250E00E946800F801ED5AFF4F2A
:103B00008EE280834F81588569857A8529813A8143
:103B1000F9018081833061F486A197A1A0A5B1A5A8
:103B200084179507A607B70719F440E050E0BA01DB
:103B3000F801E459FF4F4083F801E359FF4F5083E8
:103B4000AB0166277727F801EA59FF4F4083F80158
:103B5000E959FF4F5083F9010281002309F46FC036
:103B6000CC24C39489819A81FC0186A697A6A0AA39
:103B7000B1AA0894811C911CA11CB11CC48240E014
:103B800050E0BA010E940506182F882351F4C101A4
:103B900060E070E040E052E00E947500015011F7D3
:103BA0004EC089819A81B301A2010E942A0F19C0D7
:103BB000EB89FC8980E183878DA1868B8EA1878B21
:103BC0008FA1808F88A5818F89A5828FD38EE48A6B
:103BD000F58A89819A8121E0FC0124830E94900664
:103BE000182F812FA9960FB6F894DEBF0FBECDBF58
:103BF000DF91CF911F910F91FF90EF90DF90CF90C9
:103C0000BF90AF909F908F907F906F905F904F90FC
:103C10003F902F90089589819A8140E050E0BA0149
:103C20000E94380A2B013C0161157105810591053F
:103C300009F4F2CEDFCE12E0B4CF11E0B2CFCE0164
:103C400001960E949E0E182F882309F4B1CFA9CFA8
:103C50000F931F93CF93DF93CDB7DEB7A4970FB623
:103C6000F894DEBF0FBECDBF9CA38BA3062F142FED
:103C7000CE018396BE016F5F7F4F41E00E94CA0173
:103C8000882329F5CE0147969E8B8D8B6BA17CA155
:103C9000CE0101960E949F0C8823C9F4ED89FE890C
:103CA000838585FF1FC086E012C01772912F909503
:103CB000838589230123182F102B138789819A81EB
:103CC00021E0FC0124830E94900601C086E0A496B6
:103CD0000FB6F894DEBF0FBECDBFDF91CF911F911D
:103CE0000F910895EB89FC893097F9F6EFCF0F9388
:103CF0001F93CF93DF93CDB7DEB7A4970FB6F89499
:103D0000DEBF0FBECDBF9CA38BA38B01CE018396DC
:103D1000BE016F5F7F4F41E00E94CA01882361F5B9
:103D2000CE0147969E8B8D8B6BA17CA1CE01019617
:103D30000E949F0C882301F5ED89FE89838585FF0C
:103D400026C086E019C0D80116968C911697868BEE
:103D500017968C911797878B14968C911497808F58
:103D600015968C91818F89819A8121E0FC012483B1
:103D70000E94900601C086E0A4960FB6F894DEBFBC
:103D80000FBECDBFDF91CF911F910F910895EB89A9
:103D9000FC893097C1F6EFCFEF92FF920F931F93FC
:103DA000CF93DF93CDB7DEB7CF54D0400FB6F894A2
:103DB000DEBF0FBECDBF60969FAF8EAF60978B0109
:103DC000CE01825B9F4FBE016F5F7F4F41E00E943B
:103DD000CA01882309F0D1C089819A81988F8F8B7D
:103DE000CE018E5B9F4F9E8B8D8B60966EAD7FADAF
:103DF0006097CE0101960E949F0C882309F0BDC0F8
:103E0000ED89FE89838585FFC6C086E0B6C0655F03
:103E10007F4FCE018D9645E150E00E946800CE01B3
:103E20004796BE016F5F7F4F46E150E00E946800F9
:103E3000CE014796B8010E949F0C882309F49AC0CE
:103E4000843009F09AC0CE0147960E949E0E8823C6
:103E500009F093C009A51AA5C8010D96BE01615DC0
:103E60007F4F43E150E00E9468008DA58062F80119
:103E70008387E981FA8181E084834F815885698550
:103E80007A858D8D9E8DAF8DB8A1481759076A0729
:103E90007B0709F464C0F801838584FF60C0EF8864
:103EA000F88C358920E0848990E0822B932BAC013B
:103EB00060E070E0BA0155274427338D20E0828D01
:103EC00090E0822B932BA0E0B0E0482B592B6A2B7B
:103ED0007B2BC7010E942207AB01BC014115510594
:103EE0006105710509F45EC0C7010E940506EF89EE
:103EF000F88D882309F041C0DF01AD5ABF4F8C9186
:103F00008E3269F58081833069F44D8D5E8D6F8DC1
:103F100078A186A197A1A0A5B1A5481759076A075E
:103F20007B0729F04D8D5E8D6F8D78A103C040E039
:103F300050E0BA01DF01A459BF4F4C93DF01A359F0
:103F4000BF4F5C93AB0166277727DF01AA59BF4FAC
:103F50004C93DF01A959BF4F5C9381E08483CE016C
:103F600001960E942909882341F489819A810E943F
:103F7000900603C088E001C084E0C15BDF4F0FB64C
:103F8000F894DEBF0FBECDBFDF91CF911F910F918F
:103F9000FF90EF9008956B897C896115710509F098
:103FA00036CFEACF82E0E9CF80E68AB98BB980E0EC
:103FB0000E94AF2180E063E271E00E94AC0F809329
:103FC0005603882349F487E593E06FE071E042E00F
:103FD0000E94C20F8093560387E593E00E948215EA
:103FE000FFCF23B10197E9F70895FC018191882360
:103FF00014F42D9A01C02D982F9A2F9886FF02C095
:104000002D9A01C02D982F9A2F9885FF02C02D9AC6
:1040100001C02D982F9A2F9884FF02C02D9A01C0BD
:104020002D982F9A2F9883FF02C02D9A01C02D98AA
:104030002F9A2F9882FF02C02D9A01C02D982F9A97
:104040002F9881FF02C02D9A01C02D982F9A2F988A
:1040500080FF02C02D9A01C02D982F9A2F98615091
:10406000704021F60895FC012D9A21E030E093B1D3
:104070002F9A2F98822F96FF832F880F1E998F5F7C
:104080002F9A2F98880F1E998F5F2F9A2F98880F3D
:104090001E998F5F2F9A2F98880F1E998F5F2F9AE6
:1040A0002F98880F1E998F5F2F9A2F98880F1E992F
:1040B0008F5F2F9A2F98880F1E998F5F2F9A2F98B6
:1040C00081936150704099F608950F931F93CF9399
:1040D000DF930F92CDB7DEB708E813E1CE0101966A
:1040E00061E070E00E94332089818F3F39F084E6DF
:1040F00090E00E94F11F0150104081F781E090E0B4
:104100000115110511F480E090E00F90DF91CF913F
:104110001F910F910895CF93DF930F92CDB7DEB724
:104120002C9ACE01019661E070E00E9433200F903E
:10413000DF91CF910895CF93DF930F92CDB7DEB784
:104140002C98CE01019661E070E00E9433200E941D
:104150006520009729F40E948B2080E090E002C047
:1041600081E090E00F90DF91CF910895CF92DF92A0
:10417000EF92FF920F931F93CF93DF9300D0CDB7B1
:10418000DEB77C016B0108EE13E0CE01019661E021
:1041900070E00E94332089818F3F39F484E690E0FB
:1041A0000E94F11F0150104081F789818E3F69F410
:1041B000C701B6010E943320CE01019662E070E093
:1041C0000E94332081E090E002C080E090E00F90F8
:1041D0000F90DF91CF911F910F91FF90EF90DF90A3
:1041E000CF900895EF92FF921F93CF93DF9300D06B
:1041F000CDB7DEB77C01162F0E946520009719F11C
:104200001983CE01019661E070E00E94F51F1D3F09
:10421000E9F0C70160E072E00E94F51FCE0101964F
:1042200062E070E00E943320CE01019661E070E010
:104230000E94332029812F7181E090E0253041F0E8
:1042400080E090E005C080E090E002C081E090E076
:104250000F900F90DF91CF911F91FF90EF900895F5
:10426000DF92EF92FF920F931F93CF93DF93CDB71F
:10427000DEB727970FB6F894DEBF0FBECDBF182F5D
:10428000D42E052FF62EE72E88234CF487E340E04A
:1042900050E0BA010E943021823098F51F771C301F
:1042A000F1F10E948B200E949B20009749F1812F01
:1042B00080648A83EB82FC820D83DE82112309F401
:1042C0003EC0183099F181E08F83CE01029666E0FE
:1042D00070E00E94F51F1C3031F4CE01019661E0C0
:1042E00070E00E9433201AE0CE01019661E070E098
:1042F0000E9433208981882324F41150A9F701C03A
:104300008FEF27960FB6F894DEBF0FBECDBFDF91BB
:10431000CF911F910F91FF90EF90DF9008958CE463
:104320008A83EB82FC820D83DE82CDCF87E88F8388
:10433000CE01029666E070E00E94F51FD4CF85E9B9
:104340008F83CE01029666E070E00E94F51FCBCF0E
:10435000882319F480911B01089581E00895EF925C
:10436000FF920F931F93CF93DF9300D000D0CDB770
:10437000DEB7882309F0B1C080E197E20E94F11F07
:10438000249A2C9A279A2F98259A0AE0CE01019612
:1043900061E070E00E9433200150C1F780E040E00E
:1043A00050E0BA010E943021813009F07BC088E0E2
:1043B0004AEA51E060E070E00E943021813009F06B
:1043C0003DC0CE01019664E070E00E9433208B81F5
:1043D000813009F069C08C818A3A09F067C008EE23
:1043E00013E089EA40E050E060E070E40E94302190
:1043F000882349F088EE93E00E94F11F015010409D
:1044000081F7FF2460C00115110509F451C08AE34A
:1044100040E050E0BA010E943021882309F04AC0F0
:10442000CE01019664E070E00E943320898186FF0E
:1044300043C00F2EFCE0FF2EF02D45C089EA40E07E
:1044400050E0BA010E943021823040F40F2EF9EA88
:10445000EF2EF02DFF246894F1F804C0EE24E394CD
:10446000FF24F39408EE13E08E2D40E050E0BA01F3
:104470000E943021882349F088EE93E00E94F11FCA
:104480000150104089F7FF241EC001151105C1F02D
:1044900080E140E052E060E070E00E94302188233B
:1044A00089F411C0FF240FC0FF240DC0FF240BC0EE
:1044B000FF2409C0FF2407C0FF246894F2F803C05A
:1044C000FF2401C0FF24F092550301E0F11000E049
:1044D00000931B010E948B2001C003E0802F0F90EE
:1044E0000F900F900F90DF91CF911F910F91FF9040
:1044F000EF900895BF92CF92DF92EF92FF920F93C9
:104500001F93CF93DF93EB0169017A010E94A821E9
:1045100080FD3DC08091550383FD09C00B2EB9E09D
:10452000CC0CDD1CEE1CFF1CBA95D1F7B02D02306F
:10453000110528F00F2EF2E1BF2EF02D04C00F2E32
:10454000F1E1BF2EF02D8B2DB701A6010E94302185
:104550008823A9F4CE0160E072E00E94B6200097A3
:1045600029F0C050DE4F01501040A1F782E1B8168B
:1045700031F48CE040E050E0BA010E9430210E940A
:104580008B2081E00115110519F480E001C083E062
:10459000DF91CF911F910F91FF90EF90DF90CF901F
:1045A000BF900895CF92DF92EF92FF920F931F93E7
:1045B000CF93DF93EB0169017A010E94A82180FD6E
:1045C00050C08091550390E083FD09C00B2EB9E0E7
:1045D000CC0CDD1CEE1CFF1CBA95D1F7B02D0130C0
:1045E000110571F488E1B701A6010E9430218823EA
:1045F00081F5CE016EEF0E94F220009729F529C0C7
:1046000086709070009731F0A80160E070E087E953
:104610000E94302189E1B701A6010E943021882340
:10462000C1F4CE016CEF0E94F220009729F0C05037
:10463000DE4F01501040A9F780E090E06DEF0E943E
:10464000F220009721F005C000E010E002C001E078
:1046500010E00E948B2081E00115110519F480E023
:1046600001C083E0DF91CF911F910F91FF90EF90F8
:10467000DF90CF900895EF92FF920F931F93CF9307
:10468000DF93CDB7DEB760970FB6F894DEBF0FBEED
:10469000CDBF162F7A010E94A82180FDA2C0113043
:1046A00069F0113020F0133009F091C085C00E94EC
:1046B0009B20009709F08DC011E090C089E040E098
:1046C00050E0BA010E943021882309F084C0CE0155
:1046D000019660E170E00E94B620009709F47DC069
:1046E00089818295869586958370813061F54885AC
:1046F00050E060E070E04F73507060707070BA010D
:10470000552744274F5F5F4F6F4F7F4F998580E05C
:104710002A85820F911DA0E0B0E0480F591F6A1F43
:104720007B1FDB01CA01072E7AE0880F991FAA1FA1
:10473000BB1F7A95D1F7702DF70180839183A283F7
:10474000B38310E04BC029852295269526952370CA
:10475000888590E0880F991F880F991F820F911DFF
:1047600001964F8150E043705070542F4427550FED
:10477000550F840F951FAC0160E070E09E819F7023
:104780008B85881F8827881F980F9E5F8A85837076
:10479000880F890F90E009978A019B0104C0000FE0
:1047A000111F221F331F8A95D2F7F701008311834F
:1047B0002283338310E012C080E890E0A0E0B0E0F4
:1047C000F70180839183A283B38310E007C014E0D4
:1047D00005C010E003C011E001C011E00E948B2071
:1047E00001C013E0812F60960FB6F894DEBF0FBEB4
:1047F000CDBFDF91CF911F910F91FF90EF90089562
:10480000629FD001739FF001829FE00DF11D649FB4
:10481000E00DF11D929FF00D839FF00D749FF00D40
:10482000659FF00D9927729FB00DE11DF91F639FE1
:10483000B00DE11DF91FBD01CF0111240895A1E2C2
:104840001A2EAA1BBB1BFD010DC0AA1FBB1FEE1F0A
:10485000FF1FA217B307E407F50720F0A21BB30B55
:10486000E40BF50B661F771F881F991F1A9469F7D1
:1048700060957095809590959B01AC01BD01CF012D
:064880000895F894FFCF3B
:10488600222A2B2C3A3B3C3D3E3F5B5D7C7F0063FE
:0C4896006865636B2E74787400000101EB
:00000001FF
