:100000000C9446000C9465000C9465000C946500FB
:100010000C9465000C9465000C9465000C946500CC
:100020000C9465000C9465000C9465000C946500BC
:100030000C9465000C9465000C9465000C946500AC
:100040000C9465000C9465000C9465000C9465009C
:100050000C9465000C9465000C9465000C9465008C
:100060000C9465000C9465000C9465000C9465007C
:100070000C9465000C9465000C9465000C9465006C
:100080000C9465000C9465000C94650011241FBE4F
:10009000CFEFD0E4DEBFCDBF11E0A0E0B1E0ECE8EF
:1000A000F6E400E00BBF02C007900D92AA32B10740
:1000B000D9F713E0AAE2B1E001C01D92A53AB10759
:1000C000E1F70E94361B0C9444230C940000CF935C
:1000D000DF93EC0142305105B8F0FB01DC01CA01AD
:1000E000219131912D933D93029782309105C0F774
:1000F000CA0102978E7F0296FE01E80FF91F860F54
:10010000971F4170507002C0CB01FE01411551058F
:1001100031F0DC018D91819341505040D9F7DF914E
:10012000CF9108954115510531F0E82FF92F6193D2
:1001300041505040E1F708950F931F93FB01028D4A
:10014000138D20E030E0DC018C91833059F48489F8
:100150009589A0E0B0E0DC0199278827082B192BAE
:100160002A2B3B2B602F712F822F932F1F910F91E2
:100170000895FC01538F428F758B648B0895CF9344
:10018000DF93FC01EB01299686859785A089B189CB
:100190000097A105B10581F122893389F90180E039
:1001A00090E0AEE255EE41910196403241F045308B
:1001B00009F4452F8930910509F4A99349938B30AF
:1001C000910589F7F9018385FB018087F901848D09
:1001D000958DA68DB78DFB0180839183A283B38318
:1001E000F901808D918DFB0195838483F9018689C6
:1001F0009789FB01978386831882DF91CF910895B9
:10020000CF93DF93EC01A881B981109739F18C91DC
:10021000813268F08A33A9F1FD013196AD014F5F5B
:100220005F4F9191913228F09A33C9F704C0982F0B
:10023000AD019A33B1F490E0BC01605370406A3074
:10024000710590F4CD0101964817590781F46115A5
:10025000710581F41296B983A8830EC06FEF7FEF0A
:100260000BC060E070E008C06FEF7FEF05C06FEF7C
:100270007FEF02C06FEF7FEF862F972FDF91CF9137
:100280000895AD01D8CF0097C9F0DC01ED91FC9144
:1002900011973097A9F020812223A1F02681378180
:1002A00012968D919C9113972817390769F48181D3
:1002B0000E94601D80FF0AC083E0089589E00895D0
:1002C00089E0089589E0089589E0089580E008951F
:1002D0008F929F92AF92BF92CF92DF92EF92FF9256
:1002E0000F931F93CF93DF935C01FC0184818823DC
:1002F00009F446C0C6A4D7A4E0A8F1A80F2EF2E3E3
:100300008F2E9924F02D8A0C9B1C8181B401A701AA
:10031000960101E010E00E94C01D882399F5F501C7
:10032000148282A193A1A4A1B5A1B701A601481B83
:10033000590B6A0B7B0B828D938DA48DB58D48175D
:1003400059076A077B0700F5C381D0E0C230D105A9
:10035000E8F0F501828D938DA48DB58DC80ED91E60
:10036000EA1EFB1E8181B401A701960101E010E0A5
:100370000E94C01D2197C130D10559F780E007C008
:1003800080E005C081E003C080E001C080E0DF9133
:10039000CF911F910F91FF90EF90DF90CF90BF9082
:1003A000AF909F908F900895AF92BF92CF92DF92BF
:1003B000EF92FF920F931F93CF935C016A017B0131
:1003C000FC0186A597A5A0A9B1A984179507A60742
:1003D000B707F1F0C5010E946801C82F8823C9F44E
:1003E000B5016E5C7F4FF5018181A701960101E0A7
:1003F00010E00E94671D882329F0C1E0CC24CA9434
:10040000DC2C7601F501C6A6D7A6E0AAF1AA01C0A8
:10041000C0E08C2FCF911F910F91FF90EF90DF9054
:10042000CF90BF90AF900895CF93DF93EC011C82E3
:100430008FEF9FEFDC018EA79FA7A8ABB9ABCE01D2
:100440000E94D401882359F5FE01E05DFD4F8081B3
:1004500091812AEA8535920721F5FE01E859FF4F7F
:1004600080819181A281B381B070863421E49207AA
:1004700024E5A20720E0B207B1F0CC57DF4F488156
:1004800059816A817B81707081E0463491E459071B
:1004900094E5690790E0790739F480E005C083E0CE
:1004A00003C082E001C080E0DF91CF9108953F92C8
:1004B0004F925F926F927F928F929F92AF92BF9274
:1004C000CF92DF92EF92FF920F931F93CF93DF9320
:1004D000CDB7DEB7A0970FB6F894DEBF0FBECDBF85
:1004E0007C01CB01D42ED7011D921C920E940001E9
:1004F0008C0199230CF469C2FC01EE0FFF1FE65D2D
:10050000FE4FA080B180A114B10409F460C2F701CC
:10051000B182A082D5018C91882369F011968C91CB
:100520000E94601D80FD07C0DD2009F452C282FDDB
:1005300052C280E06FC2F50110820183802F0E94B9
:100540008D1C80FD4AC2DD2011F082FD48C2C5012C
:1005500040E050E0BA010E941402813009F04AC024
:10056000A5014C505E4F8E010F5F1F4FB8012EEB5F
:1005700031E0CC24DD247601DA018C91882341F02E
:10058000F501E20FF31F82AD93ADA4ADB5AD02C08E
:10059000D701C601FB0181939193A193B193BF0150
:1005A000405F5F4F205F3F4FF1E02E3F3F0721F755
:1005B0000F2EF1E1EF2EFF24F02DEC0EFD1EDD24B9
:1005C0006894D1F8D8014D905D906D907D908D012B
:1005D000411451046104710441F0C501B301A20149
:1005E0000E941402882311F40EC08D2D0E151F05D4
:1005F00049F703C0442455243201833009F4F1C182
:10060000882309F0F0C1F50185AD96ADF2E08030A8
:100610009F0709F0EAC1F501E85BFF4F80819181F6
:100620006C01EE24FF24C114D104E104F10439F477
:10063000F501EA5AFF4FC080D180E280F380D501F6
:100640005A96CD92DD92ED92FC925D97F501EE5BAC
:10065000FF4F4081F5014383842F8150823008F0A1
:10066000C6C137AC3282332009F4C3C1832D90E078
:100670009C012150304082239323009709F0BBC195
:10068000ED5BFF4F8080918019969C928E92189717
:10069000C4018F709070009709F0AFC1F501EB5B5A
:1006A000FF4F808191818C0120E030E0098B1A8B13
:1006B0002B8B3C8B011511052105310559F4F501F2
:1006C000EE5AFF4F0081118122813381098B1A8BF1
:1006D0002B8B3C8BF501E05CFF4F008111810115F4
:1006E000110509F48CC1242F30E040E050E0C7012F
:1006F000B6010E9436206D8F7E8F8F8F98A3980150
:1007000040E050E0298F3A8F4B8F5C8FC401929567
:1007100082958F7089279F708927A0E0B0E0820FB3
:10072000931FA41FB51F0D8D1E8D2F8D38A1080F8F
:10073000191F2A1F3B1F0D8B1E8B2F8B388F89890A
:100740009A89AB89BC8980179107A207B30708F47F
:1007500058C1BC01CD01601B710B820B930B232D83
:1007600030E040E050E00E94692089019A01D901FF
:10077000C801011511052105310509F444C1063FE1
:10078000EFE01E07E0E02E07E0E03E0718F4332418
:10079000339403C03324689431F8863FFFEF9F07FA
:1007A000F0E0AF07F0E0BF0708F04CC1B901A801C5
:1007B0004E5F5F4F6F4F7F4FD50156964D935D93C0
:1007C0006D937C935997F501468E578E60A271A266
:1007D000098D1A8D2B8D3C8D040D151D261D371D81
:1007E00092960D931D932D933C9395978D899E8999
:1007F000AF89B88D840D951DA61DB71D82A793A73F
:10080000A4A7B5A7F3E03F16D9F48114910409F029
:10081000FCC0F501E25AFF4F80819181A281B38132
:10082000F50186A397A3A0A7B1A7DB01CA01880F92
:10083000991FAA1FBB1F880F991FAA1FBB1F35C076
:100840008114910409F4E3C08D8D9E8DAF8DB8A104
:10085000800F911FA21FB31FF50186A397A3A0A726
:10086000B1A7F2E03F1639F4DB01CA01880F991FE6
:10087000AA1FBB1F1AC0DB01CA01880F991FAA1F3C
:10088000BB1F840F951FA61FB71F8C019D013695B6
:10089000279517950795DB01CA0181709070A070AC
:1008A000B070800F911FA21FB31F81509E4FAF4F9A
:1008B000BF4F072E79E0B695A795979587957A95BE
:1008C000D1F7702DC816D906EA06FB0608F4A1C0B8
:1008D0008FEF9FEFDC01F50186879787A08BB18BA7
:1008E00082879387A487B58780E88583F3E03F16E6
:1008F00009F055C0F501EE59FF4F8081918181309B
:10090000910509F04CC0B301A2014F5F5F4F6F4FDB
:100910007F4FC5010E94D401882309F040C0D50152
:1009200015961C921597F501E05DFD4F8081918130
:10093000BAEA85359B0799F5F50182A993A9A4A97F
:10094000B5A98235F2E59F07F1E6AF07F1E4BF07ED
:1009500031F5F501EA5EFD4F80819181A281B3817D
:10096000823702E7900701E4A00701E6B007B9F477
:10097000F501E65EFD4F80819181A281B381F50191
:1009800086879787A08BB18BE25EFD4F8081918136
:10099000A281B381F50182879387A487B587D501AA
:1009A0003C9280912C0190912D01019690932D0104
:1009B00080932C0117969C938E931697F501128ABB
:1009C000138A148A158A80E025C08BE023C08CE04E
:1009D00021C080E01FC08AE01DC083E01BC08AE008
:1009E00019C081E017C08DE015C08DE013C08DE007
:1009F00011C08DE00FC08DE00DC08DE00BC08DE00B
:100A000009C08DE007C08DE005C08DE003C08DE01A
:100A100001C08DE0A0960FB6F894DEBF0FBECDBF2B
:100A2000DF91CF911F910F91FF90EF90DF90CF90CA
:100A3000BF90AF909F908F907F906F905F904F90FE
:100A40003F900895B901A8014E5F5F4F6F4F7F4FF0
:100A5000D50156964D935D936D937C935997F5010F
:100A6000468E578E60A271A2898D9A8DAB8DBC8DFA
:100A7000840D951DA61DB71D82A393A3A4A3B5A3A2
:100A80008D899E89AF89B88D840D951DA61DB71DD2
:100A900082A793A7A4A7B5A70F2EF3E03F2EF02DB2
:100AA000B4CE0F931F93CF93DF93EC01DB01CA0108
:100AB0000297A109B1094E895F89688D798D4250ED
:100AC00050406040704084179507A607B70798F418
:100AD0002A8130E040E050E0BC01CD010E94362088
:100AE0008B019C018AA59BA5ACA5BDA5080F191F6C
:100AF0002A1F3B1F03C000E010E09801602F712FF8
:100B0000822F932FDF91CF911F910F910895BF9264
:100B1000CF92DF92EF92FF920F931F93CF93DF93C9
:100B2000EC016A017B01423051056105710508F451
:100B3000AAC08E899F89A88DB98D481759076A0761
:100B40007B0708F0A5C08881823009F45CC083303F
:100B500009F476C0813009F0A0C09A013695279536
:100B60008901040F151FA801452F5527469560E000
:100B700070E08AA19BA1ACA1BDA1480F591F6A1FBB
:100B80007B1FCE010E94D401882309F08BC0F8019D
:100B9000F170EC0FFD1FB2A80F5F1F4FA801452F8A
:100BA0005527469560E070E08AA19BA1ACA1BDA14C
:100BB000480F591F6A1F7B1FCE010E94D401882352
:100BC00009F074C02B2D30E0F801F170EC0FFD1F1F
:100BD00092A980E0822B932B21E0C222DD24C11454
:100BE000D10451F0929582958F7089279F70892743
:100BF0008C0120E030E065C08C0120E030E01F7007
:100C0000207030705EC0452F562F672F77278AA13E
:100C10009BA1ACA1BDA1480F591F6A1F7B1FCE012C
:100C20000E94D401882309F045C0F601EE0FFF1F92
:100C3000F170CE0FDF1F0AA91BA920E030E041C0F0
:100C4000689416F876956795579547951694D1F759
:100C50008AA19BA1ACA1BDA1480F591F6A1F7B1F90
:100C6000CE010E94D401882349F5F601EE0FFF1F43
:100C7000EE0FFF1FF170CE0FDF1F0AA91BA92CA9D1
:100C80003DA93F701EC001E010E020E030E019C037
:100C900001E010E020E030E014C001E010E020E0CE
:100CA00030E00FC00FEF1FEF98010BC00FEF1FEFE9
:100CB000980107C00FEF1FEF980103C00FEF1FEF60
:100CC0009801602F712F822F932FDF91CF911F9169
:100CD0000F91FF90EF90DF90CF90BF900895AF926B
:100CE000BF92CF92DF92EF92FF920F931F93CF9319
:100CF000DF93EC018B017D836C83CE80DF80E88401
:100D0000F98481E0C816D104E104F10409F496C025
:100D1000E881F98186899789A08DB18DC816D90699
:100D2000EA06FB0608F08CC0C114D104E104F1040A
:100D3000C1F48081833041F486A197A1A0A5B1A51B
:100D40000097A105B10559F4808591850817190709
:100D500008F078C046A157A160A571A542C06C01FA
:100D60007D01828190E05C01AA0CBB1CAA0CBB1C1B
:100D7000AA0CBB1CAA0CBB1C0A151B0550F18881D0
:100D80009981B701A6010E9487056B017C018FEF55
:100D9000C8168FEFD8068FEFE8068FEFF80609F434
:100DA00053C082E0C816D104E104F10408F44EC037
:100DB000E881F98186899789A08DB18DC816D906F9
:100DC000EA06FB0608F044C00A191B090A151B05B0
:100DD000B0F688819981B701A6010E945105AB0147
:100DE000BC01CA86DB86EC86FD864115510561058E
:100DF000710581F1C801929582958F7089279F7046
:100E00008927A0E0B0E0840F951FA61FB71F8E872B
:100E10009F87A88BB98B88819981C2960F701070BB
:100E2000000F111F02951295107F1027007F1027C9
:100E3000800F911F9B8B8A8B80E00DC082E00BC0DE
:100E400082E009C082E007C081E005C082E003C003
:100E500082E001C082E0DF91CF911F910F91FF905E
:100E6000EF90DF90CF90BF90AF9008958F929F92B8
:100E7000AF92BF92CF92DF92EF92FF920F931F93A8
:100E8000CF93DF93EC016A017B01480159014230A5
:100E900051056105710508F4CBC08E899F89A88D25
:100EA000B98D481759076A077B0708F0C3C08881C6
:100EB000823009F46CC0833009F487C0813009F0B6
:100EC000BBC09A01369527958901040F151FA8010B
:100ED000452F5527469560E070E08AA19BA1ACA103
:100EE000BDA1480F591F6A1F7B1FCE010E94D4016C
:100EF000882309F0A2C0C80191700F5F1F4FE1E085
:100F0000CE22DD24C114D10451F0FE01E80FF91FF7
:100F100022A92F70382D3295307F232B01C0282D28
:100F2000FE01E80FF91F22AB81E08C83A801452F59
:100F30005527469560E070E08AA19BA1ACA1BDA1B8
:100F4000480F591F6A1F7B1FCE010E94D4018823BE
:100F500009F073C01170C114D10449F0689413F8FA
:100F6000B694A794979487941694D1F709C0FE017C
:100F7000E00FF11F22A9207F992D9F70822E892AD0
:100F80000C0F1D1FF80182AA91E09C8356C0452FCB
:100F9000562F672F77278AA19BA1ACA1BDA1480F2F
:100FA000591F6A1F7B1FCE010E94D401882309F0BC
:100FB00044C0F601EE0FFF1FF170F296EC0FFD1F1B
:100FC0009182808291E09C8338C0689416F876956F
:100FD0006795579547951694D1F78AA19BA1ACA127
:100FE000BDA1480F591F6A1F7B1FCE010E94D4016B
:100FF000882319F59601220F331F220F331F3170FA
:101000002E5C3F4FFE01E20FF31F40815181628150
:101010007381407050706070707F482959296A2927
:101020007B29408351836283738391E09C8305C055
:1010300082E003C082E001C082E0DF91CF911F9186
:101040000F91FF90EF90DF90CF90BF90AF909F9067
:101050008F9008952F923F924F925F926F927F925E
:101060008F929F92AF92BF92CF92DF92EF92FF92B8
:101070000F931F93CF93DF9300D000D0CDB7DEB78F
:101080001C0149835A836B837C834115510561059B
:101090007105C1F4DC011A968D909D90AD90BC90C5
:1010A0001D9781149104A104B10499F156968D9174
:1010B0009D910D90BC91A02D88169906AA06BB069D
:1010C00068F530C049815A816B817C810E94870517
:1010D0008B019C01623071058105910508F4B8C04F
:1010E0006F3FBFEF7B07BFEF8B07BFEF9B0709F495
:1010F000C3C0F10186899789A08DB18D08171907A2
:101100002A073B0708F4B8C089809A80AB80BC806E
:1011100009C0882499245401839404C08824992404
:101120005401839475016401442455243201689468
:1011300041F80894C11CD11CE11CF11CF101868905
:101140009789A08DB18DC816D906EA06FB0648F02E
:10115000F2E08F169104A104B10408F47EC073017B
:101160006201C101B701A6010E9487058B019C01A4
:101170006115710581059105A9F00F3F8FEF1807E3
:101180008FEF28078FEF380709F476C0013011057B
:101190002105310509F470C0C814D904EA04FB0420
:1011A00041F65FC08C2C4D2CBE2CAF2CC1014C2DB8
:1011B0005D2D6E2D7F2D0FEF1FEF2FEF3FE00E9473
:1011C0003607882309F03EC089819A81AB81BC81B2
:1011D0000097A105B10569F0C10149815A816B8170
:1011E0007C810C2D1D2D2E2D3F2D0E94360788232E
:1011F00049F5D1011A968C921A971B964C921B971F
:101200001C96BC921C971D96AC921D971E968D91B4
:101210009D910D90BC91A02D8F3FEFEF9E07EFEFBA
:10122000AE07EFEFBE0709F10197A109B109F1017E
:1012300086879787A08BB18B858181608583970195
:1012400086011AC08130A1F40FEF1FEF980114C07E
:1012500001E010E020E030E00FC000E010E0980175
:101260000BC000E010E0980107C09701860104C0A0
:1012700001E010E020E030E0602F712F822F932FEB
:101280000F900F900F900F90DF91CF911F910F91C2
:10129000FF90EF90DF90CF90BF90AF909F908F9096
:1012A0007F906F905F904F903F902F9008958F9216
:1012B0009F92AF92BF92CF92DF92EF92FF920F93E5
:1012C0001F93CF93DF938C01EB01DC011496ED901B
:1012D000FC9015970894E11CF11CE114F10409F449
:1012E00009C11E968D919D910D90BC91A02D0097E6
:1012F000A105B10509F400C10F2EFFE0CF2EDD24BA
:10130000F02DCE20DF20C114D10409F0D8C0019601
:10131000A11DB11DF80186879787A08BB18B4285EF
:10132000538564857585411551056105710551F435
:101330000190F081E02D80859185E816F90608F08E
:10134000DDC0BDC00190F081E02D828190E0019769
:101350009701329522952F7023273F7023278223F0
:101360009323009709F0ABC0CF010E9487054B0182
:101370005C01623071058105910508F4C1C06F3FC1
:10138000EFEF7E07EFEF8E07EFEF9E0709F4BAC08D
:10139000D801ED91FC9186899789A08DB18D881631
:1013A0009906AA06BB0608F478C0209709F4ACC0D9
:1013B000D8011A964D915D916D917C911D97CF0149
:1013C0000E942A084B015C01611571058105910598
:1013D00009F49CC0613071058105910509F498C03C
:1013E0006F3FEFEF7E07EFEF8E07EFEF9E0709F4F9
:1013F00091C0D8018D919C910E946801882309F0C9
:101400008BC0F80180819181C29660E070E040E07D
:1014100052E00E949200D801CD91DC91CE01B5013D
:10142000A4010E945105DC01CB018EA79FA7A8ABA8
:10143000B9ABC0E0D0E019C0B1E0B483F80180815D
:1014400091810E946801882309F068C0D801ED915C
:10145000FC9186A597A5A0A9B1A90196A11DB11DD2
:1014600086A797A7A0ABB1AB2196D801ED91FC91CF
:101470001197828190E0C817D907F0F2AE0160E0C1
:1014800070E086A597A5A0A9B1A9841B950BA60B12
:10149000B70B86A797A7A0ABB1ABF801828693865E
:1014A000A486B58680819181B501A4010E94510571
:1014B000DC01CB01F80186879787A08BB18BD8011F
:1014C0001596FC92EE9214978D919C911197C2966D
:1014D000CC0CDD1CCC0CDD1CCC0CDD1CCC0CDD1CC8
:1014E000CC0CDD1C8C0D9D1D53969C938E935297B6
:1014F00080E015C084E013C084E011C084E00FC018
:1015000082E00DC081E00BC084E009C087E007C025
:1015100082E005C081E003C081E001C081E0DF918D
:10152000CF911F910F91FF90EF90DF90CF90BF90E0
:10153000AF909F908F900895CF92DF92EF92FF929D
:101540000F931F93CF93DF93EC017B0184E0CC24B6
:10155000DD24C39400E010E020C0888199810E94BE
:10156000D401882329F5EA89FB899081992369F1BF
:101570002385953E61F0922F9F739F3041F09F71BC
:101580009601983009F098012E153F05A9F0CE017B
:10159000B8010E945709882359F44E855F856889F0
:1015A00079894115510561057105B9F6882321F046
:1015B0001E861F86188A198ADF91CF911F910F917D
:1015C000FF90EF90DF90CF90089584E0F1CF2F92BD
:1015D0003F924F925F926F927F928F929F92AF92C3
:1015E000BF92CF92DF92EF92FF920F931F93CF9310
:1015F000DF9300D000D0CDB7DEB78C013B01DB011B
:101600008C918F3211F08C3549F40894611C711C57
:10161000F80116821782108611860CC0D801ED9150
:10162000FC9182899389A489B589F801868397837F
:10163000A087B187D3018C91803250F4C80160E05B
:1016400070E00E946F06482FF801138A128A34C195
:101650000F2EFBE04F2E5524F02DCC24DD24222428
:101660003324689423F829823A824B825C82F30106
:101670009F0181918F32E1F38C35D1F33901D8018B
:101680005496AD90BC905597C50160E270E0A20100
:101690000E949200F30180818E3231F0D3017601F5
:1016A000B601410130E029C0EEE2D501EC93D3014F
:1016B00011962C9111972E3259F48EE2F501818307
:1016C00012962C9112972E3251F083E090E002C0D6
:1016D00082E090E02F3249F02C3539F002C083E0EF
:1016E00090E0213208F0D7C0FFC0680E791E80E27A
:1016F000D5011B968C931B9700C12D916F5F7F4F77
:10170000213208F442C02F3209F4F2C02C3509F41A
:10171000EFC02E3219F0E814F90478F0E8E08E16E4
:10172000910409F0BAC02E3209F0B9C0330F330F5B
:10173000E980FA808B809C80E0CF22230CF4B1C03A
:10174000422F50E04232510509F4ADC0E1E0F1E032
:101750008191882331F090E048175907C9F746E096
:10176000ABC0822F81548A3110F4326006C0822FC0
:1017700081568A3110F431602052F501EE0DFF1DC3
:1017800020830894E11CF11CB8CF660E771E832FCE
:1017900044E0E114F10409F488C0D5019C91953E20
:1017A00011F4E5E0EC93F8E08F16910419F4382F6A
:1017B000330F330F832F90E09C0123703070213062
:1017C000310509F440618C7090708430910509F402
:1017D0004860D5011B964C931B978FC0F801468536
:1017E000578560897189808191810E94D401882305
:1017F00031F5D80152964D915C915397FA01908141
:10180000992309F488C0938593FD13C054966D9174
:101810007C9155979A01255F3F4FDB017A01482F54
:1018200004C0E217F30709F470C091918D919817E5
:10183000C1F3C801B6010E945709882379F2D80183
:101840005496ED91FC91559793858430A1F595FFC1
:101850000BC0F8011682178210861186138A128A2D
:1018600092FF05CF40E028C092FF21C044E024C091
:101870001B968C911B9784FF1CC0F801808191817D
:10188000BD010E949C00DC01CB01F8018683978397
:10189000A087B187ECCE46E00FC046E00DC046E021
:1018A0000BC046E009C046E007C046E005C045E081
:1018B00003C045E001C0482F842F0F900F900F9078
:1018C0000F90DF91CF911F910F91FF90EF90DF90DC
:1018D000CF90BF90AF909F908F907F906F905F90D0
:1018E0004F903F902F900895680E791E84E200CFAC
:1018F000660E771E832F40E04CCFC801B6010E94D0
:101900006F06882309F46ACF9ACFD701FB0193852C
:1019100092FFAECFD1CFD8015496ED91FC9155975F
:10192000938595CF1F93CF93DF9300D000D000D045
:10193000CDB7DEB79C838B837E836D83142F7A8330
:101940006983CE0101960E94000199233CF1FC01BC
:10195000EE0FFF1FE65DFE4F0190F081E02D309706
:1019600009F01082EB81FC81309739F110822B81D4
:101970003C81FC01EE0FFF1FE65DFE4F31832083AB
:101980002115310569F0113069F4CE010396BE01CD
:101990006B5F7F4F40E00E94570205C08BE003C0A1
:1019A00080E001C080E026960FB6F894DEBF0FBE3F
:1019B000CDBFDF91CF911F910895FC01EE0FFF1F66
:1019C000E65DFE4F1182108280E0EDCF2F923F92B4
:1019D0004F925F926F927F928F929F92AF92BF923F
:1019E000CF92DF92EF92FF920F931F93CF93DF93EB
:1019F000CDB7DEB7AC970FB6F894DEBF0FBECDBF44
:101A00006C017CA36BA3009709F48CC1DC011D92CF
:101A10001C920F2EFFE1EF2EF02DE4224E71CE012D
:101A20000196BE016D5D7F4F0E945702F82E8823FC
:101A300009F07CC1CE0147969E8B8D8B6BA17CA15A
:101A4000CE0101960E94E70A182FAB88BC88882334
:101A500021F4A114B10409F416E02E2D30E0C901DF
:101A60008C719070009709F414C1112309F454C0CB
:101A7000143009F055C1CE01019660E070E00E947B
:101A80006F06182F8823D9F44F85588969897A8978
:101A900089819A810E94D401182F882381F4EB89CF
:101AA000FC898081853E79F0882369F0CE0101961A
:101AB00061E070E00E945709182F882329F3143041
:101AC00011F1112309F54F85588969897A8989812E
:101AD0009A810E94D401182F8823B1F48B899C89A4
:101AE00060E070E040E250E00E9492006D897E89E3
:101AF0008B899C894BE050E00E946700E981FA8164
:101B000081E0848301C017E0AB88BC88112309F011
:101B100007C1B8E0EB2A07C0F5018385817109F0A0
:101B20001FC1E2FC1FC1E3FE2BC10E94761BDC013A
:101B3000CB01F50186879787A08BB18B1386148E16
:101B4000158E168E178E89819A81B5010E949C0090
:101B50006DA37EA38FA398A7C50140E050E0BA0112
:101B60000E94B90089809A8081E0F40184832DA1CC
:101B70003EA14FA158A5211531054105510509F494
:101B8000FFC086A597A5A0A9B1A989A79AA7ABA7C9
:101B9000BCA7223031054105510508F4E5C086890E
:101BA0009789A08DB18D281739074A075B0708F080
:101BB000DDC01DA10EA13FA028A404C0142D052D39
:101BC000362C272CC401412F502F632D722D0E94DB
:101BD00087052B013C01611571058105910509F40B
:101BE00040C0613071058105910509F4C1C06F3FA6
:101BF0002FEF72072FEF82072FEF920709F4BAC079
:101C0000C401412F502F632D722D00E010E0980188
:101C10000E943607182F882309F082C0F4018685B8
:101C20009785A089B1898F3FFFEF9F07FFEFAF072F
:101C3000FFEFBF0759F00196A11DB11DF401868782
:101C40009787A08BB18B858181608583F40186891C
:101C50009789A08DB18D481659066A067B0608F44F
:101C6000ADCFE981FA818DA19EA1AFA1B8A5019761
:101C7000A109B10982879387A487B587CF0149A5B8
:101C80005AA56BA57CA50E94D401182F882379F052
:101C900047C0112309F044C0D5011B968C911B97B6
:101CA00084FD6AC0E1FE6CC080FD68C069C0B0E21E
:101CB000EB2A09811A81F80186A597A5A0A9B1A9E7
:101CC000F601828F938FA48FB58FB78EA68EE48294
:101CD0001582C801B5010E949C00DC01CB01F60110
:101CE00086879787A08BB18BF501848D958DA68D06
:101CF000B78DF60182879387A487B58716821782EE
:101D000010861186168A178A108E118E1183008311
:101D1000D80116968D919C9117979383828306C064
:101D2000F12E04C00F2EF9E0FF2EF02D8F2DAC9672
:101D30000FB6F894DEBF0FBECDBFDF91CF911F91DC
:101D40000F91FF90EF90DF90CF90BF90AF909F905A
:101D50008F907F906F905F904F903F902F9008955D
:101D600017E0DECF18E0DCCF12E0DACF12E0D8CFF8
:101D700012E0D6CF11E0D4CF14E0D2CF17E0D0CF0D
:101D8000E3FE97CF94CF2F923F924F925F926F9244
:101D90007F928F929F92BF92CF92DF92EF92FF92AB
:101DA0000F931F93CF93DF9300D000D0CDB7DEB752
:101DB0009C838B83C62E172F4A011901D9011D92CE
:101DC0001C920E944301B82E882309F067C1EB8161
:101DD000FC818581882309F05BC1848180FF5AC121
:101DE00082859385A485B5854681578160857185F7
:101DF000841B950BA60BB70BA40160E070E0841761
:101E00009507A607B70708F44C018114910409F45B
:101E100045C1C9821A83AB81BC8116964D915D91F3
:101E20006D917C911997DB01CA019170A070B0701F
:101E30000097A105B10509F0D0C0AB81BC81ED913F
:101E4000FC91DB01CA01072E79E0B695A79597951D
:101E500087957A95D1F7702D128111501823E9F5E5
:101E6000411551056105710539F4EB81FC818685C9
:101E70009785A089B1890DC0AB81BC8152964D91E7
:101E80005D916D917C915597CF010E948705DC0192
:101E9000CB0182309105A105B10540F482E0EB81D0
:101EA000FC818583BB246894B1F8F8C08F3FFFEFB5
:101EB0009F07FFEFAF07FFEFBF0749F481E0AB815A
:101EC000BC8115968C931597BB24B394E7C0EB8126
:101ED000FC81828B938BA48BB58BAB81BC81ED9005
:101EE000FC90119752964D915D916D917C91559713
:101EF000C7010E945105DC01CB010097A105B10586
:101F000041F482E0EB81FC818583BB246894B1F8C5
:101F1000C5C02C013D01410E511C611C711C6401A6
:101F2000CD2CDD24C694C114D10409F44EC0D701D0
:101F300012964C911297C601810F911D242F30E00B
:101F40002817390720F4C9016C01C11AD108F7011B
:101F5000818169817A81A301920186010E94671DB6
:101F6000882349F081E0AB81BC8115968C9315974D
:101F7000BB24B39493C0AB81BC81ED91FC911197CC
:101F800084818823F1F086A597A5A0A9B1A9841919
:101F90009509A609B709A60160E070E084179507C6
:101FA000A607B70770F4982F8827990FBF016E5CBA
:101FB0007F4FE981FA818E0F9F1F40E052E00E941F
:101FC0006700DC2CCC24DD0C3EC0AB81BC81569676
:101FD0004D925D926D927C925997EB81FC81C68007
:101FE000D780E084F18446895789608D718D808126
:101FF00091810E94D401882349F081E0AB81BC81AA
:1020000015968C931597BB24B39448C0C601917064
:10201000E0E0F2E0E81BF90B6401E815F90508F4CB
:102020006F01AB81BC8116966D917C911797717091
:10203000CB01C2966D917C91680F791F89819A813D
:10204000A6010E946700E981FA81EC0DFD1DFA836B
:10205000E983A60160E070E0EB81FC8186819781D5
:10206000A085B185840F951FA61FB71F8683978310
:10207000A087B187D1018D919C9111978C0D9D1DE9
:1020800011969C938E938C189D0809F0C4CE06C0BF
:10209000B82E04C00F2EF7E0BF2EF02D8B2D0F9021
:1020A0000F900F900F90DF91CF911F910F91FF90A4
:1020B000EF90DF90CF90BF909F908F907F906F9028
:1020C0005F904F903F902F9008952F923F924F92A4
:1020D0005F926F927F928F929F92AF92BF92CF92B8
:1020E000DF92EF92FF920F931F93CF93DF9300D075
:1020F00000D0CDB7DEB79C838B83C62E172F4A0145
:102100001901D9011D921C920E944301B82E882307
:1021100009F0ECC1EB81FC818581882309F0E0C1E5
:10212000848181FFDFC14681578160857185C4014B
:10213000A0E0B0E0840F951FA61FB71F8417950776
:10214000A607B70708F4AFC18114910409F4ABC125
:10215000C9821A83AA24A394AB81BC8116964D919F
:102160005D916D917C911997DB01CA019170A0700E
:10217000B0700097A105B10509F033C1EB81FC8176
:1021800020813181DB01CA01072E79E0B695A79540
:10219000979587957A95D1F7702DF9011281115095
:1021A000182309F05BC0411551056105710599F4CB
:1021B000EB81FC8186859785A089B1890097A1056F
:1021C000B105D9F4C90140E050E0BA010E942A08E3
:1021D000DC01CB010DC0AB81BC8152964D915D916C
:1021E0006D917C915597C9010E942A08DC01CB01B1
:1021F0000097A105B10509F456C181309105A105EB
:10220000B10541F482E0EB81FC818583BB246894B5
:10221000B1F86CC18F3FFFEF9F07FFEFAF07FFEFF4
:10222000BF0749F481E0AB81BC8115968C9315976B
:10223000BB24B3945BC1EB81FC81828B938BA48B19
:10224000B58B4685578560897189411551056105B2
:10225000710521F486879787A08BB18BAB81BC81F8
:102260002D913C91F90186A597A5A0A9B1A9EB8173
:10227000FC8146895789608D718D84179507A60763
:10228000B70771F4C9010E946801882349F081E011
:10229000AB81BC8115968C931597BB24B39426C152
:1022A000EB81FC81E080F1804289538964897589E2
:1022B000C7010E945105DC01CB010097A105B105C2
:1022C00051F482E0AB81BC8115968C931597BB24A9
:1022D0006894B1F80BC12C013D01410E511C611CE9
:1022E000711C6401CD2CDD24C694C114D10409F401
:1022F0004DC0F7014281C601810F911D242F30E0AE
:102300002817390720F4C9016C01C11AD108D70177
:1023100011968C9169817A81A301920186010E94B4
:10232000C01D882339F081E0EB81FC818583BB24CB
:10233000B394DCC0AB81BC81ED91FC9186A597A5DF
:10234000A0A9B1A984199509A609B709A60160E059
:1023500070E084179507A607B707A0F4BC01762F95
:102360006627770F29813A81620F731FCF01C296CA
:1023700040E052E00E946700AB81BC81ED91FC918E
:1023800011971482DC2CCC24DD0C69C0EB81FC811C
:1023900086819781A085B185428553856485758541
:1023A00084179507A607B707B0F0C7010E94680118
:1023B000882349F081E0AB81BC8115968C931597F9
:1023C000BB24B39493C0AB81BC81ED91FC9146A634
:1023D00057A660AA71AAEB81FC81468A578A608E53
:1023E000718EAB81BC811696CD90DD90ED90FC9006
:1023F000199756964D915D916D917C9159978D915C
:102400009C910E94D401882339F081E0EB81FC810A
:102410008583BB24B3946AC0C601917020E032E08A
:10242000281B390B64012815390508F46901AB81B3
:10243000BC8116968D919C91179791709C012E5C92
:102440003F4F8D919C91820F931F69817A81A601E4
:102450000E946700AB81BC81ED91FC91A482E9816F
:10246000FA81EC0DFD1DFA83E983A60160E070E0BE
:10247000EB81FC8186819781A085B185840F951FB2
:10248000A61FB71F86839783A087B187D1018D913F
:102490009C9111978C0D9D1D11969C938E938C1879
:1024A0009D0809F059CEEB81FC8186819781A0853A
:1024B000B1854285538564857585481759076A0734
:1024C0007B0720F482879387A487B587AB81BC8183
:1024D00014968C911497806214968C93149706C06E
:1024E000B82E04C00F2EF7E0BF2EF02D8B2D0F90CD
:1024F0000F900F900F90DF91CF911F910F91FF9050
:10250000EF90DF90CF90BF90AF909F908F907F9093
:102510006F905F904F903F902F900895EF92FF92B1
:102520000F931F93CF93DF9300D0CDB7DEB78C010D
:10253000FC01E280F380FF204CF1EE0DFF1D66836D
:102540000894E11CF11CFDE3EF16F104BCF0BC01A2
:102550006A5F7F4FFC0180819181A7019E012F5FFF
:102560003F4F0E94651089819A81E816F90619F497
:10257000EE24FF2403C0EE24EA94FE2CF801F3823B
:10258000E282848195810196958384830F900F90D8
:10259000DF91CF911F910F91FF90EF900895EF92EF
:1025A000FF920F931F93CF93DF938C010E944301FF
:1025B000C82F882309F0B1C0D80114968C911497C4
:1025C00085FFABC05A964D915D916D917C915D9761
:1025D0008D919C910E94D401C82F882309F09DC041
:1025E000F801C68DD78D8B8580628B878285938518
:1025F000A485B5858C8F9D8FAE8FBF8F46855785FF
:1026000060897189CE010E94B9000E94761BDC01AD
:10261000CB018E8B9F8BA88FB98F1B8A1A8AD8010A
:1026200014968C9114978F7D14968C931497ED913A
:10263000FC91119781E08483ED90FC90C7010E948A
:102640006801C82F882309F068C0F70180818330B2
:1026500009F059C08581813009F055C087010E5CB1
:102660001F4FC80160E070E040E052E00E9492001D
:10267000F701E05DFD4F85E59AEA9183808382E56D
:1026800092E5A1E6B1E4F70182AB93ABA4ABB5ABA5
:10269000EA5EFD4F82E792E7A1E4B1E68083918391
:1026A000A283B3839701265E3D4FF7018685978508
:1026B000A089B189F90180839183A283B3839701B3
:1026C000225E3D4FF70182859385A485B585F9018A
:1026D00080839183A283B383F701868D978DA0A118
:1026E000B1A19C01AD012F5F3F4F4F4F5F4F26A718
:1026F00037A740AB51AB8181B80101E010E00E94E7
:10270000C01DF7011582D70111968C9160E040E061
:1027100050E00E943A1E8111C1E08C2FDF91CF91D1
:102720001F910F91FF90EF900895CF93DF93EC01ED
:102730000E94CF12882339F4CE010E9443018823DE
:1027400011F419821882DF91CF910895EF92FF92D0
:102750001F93CF93DF93CDB7DEB7A4970FB6F8944E
:10276000DEBF0FBECDBF9CA38BA3CE010196BE01E1
:102770006D5D7F4F40E00E945702182F882381F53E
:10278000CE0147969E8B8D8B6BA17CA1CE010196CD
:102790000E94E70A182F882301F5EB89FC893097FE
:1027A00059F4E981FA818F819885A985BA85828B50
:1027B000938BA48BB58B14C0838584FF1EC0E980E6
:1027C000FA80C701BF010E949C00DC01CB01F70128
:1027D000828B938BA48BB58B03C0843009F415E0F6
:1027E000812FA4960FB6F894DEBF0FBECDBFDF9148
:1027F000CF911F91FF90EF90089515E0F1CF8F9248
:102800009F92AF92BF92CF92DF92EF92FF920F937F
:102810001F93CF93DF93CDB7DEB7EA970FB6F89447
:10282000DEBF0FBECDBF9AAF89AF6B01FC01108236
:10283000CE010196BE01675C7F4F40E00E945702C7
:10284000182F882309F0C6C0CE018D969E8B8D8BE4
:10285000E981FA8182889388A488B5888F829886D6
:10286000A986BA8681149104A104B10409F4CEC0EA
:1028700076010FE2CE01019661E070E00E946F06E2
:10288000182F882309F090C0CE01019660E070E017
:102890000E949C0A182F882309F086C06B897C89C6
:1028A00089819A810E949C00DC01CB018F839887EB
:1028B000A987BA87CE01019660E070E00E946F069A
:1028C000182F882309F070C0CE01019660E070E0F7
:1028D0000E949C0A182F8823B1F46B897C89898116
:1028E0009A810E949C00DC01CB0188159905AA05FC
:1028F000BB0579F0CE01019660E070E00E945709B7
:10290000182F882309F3143009F44BC0112309F060
:102910004BC0CE010196BE01695E7F4F0E94BF0091
:1029200088A1882349F0FE01B19680E090E00196ED
:1029300021912223E1F702C080E090E09C012D5F0D
:102940003F4FE216F30678F10097C1F0DC011996CB
:1029500027E130E02C0F3D1FA20FB31FF701E81B4A
:10296000F90BCF010894E108F1082E91E9ADFAAD19
:10297000EE0DFF1D2083E816F906A1F70894E10883
:10298000F108E9ADFAADEE0DFF1D00838F8098844C
:10299000A984BA8481149104A104B10409F06ACF16
:1029A0002DC012E001C011E1E9ADFAAD12C0E92F6E
:1029B000F82F8FE281930DC0E9ADFAADEE0DFF1D4A
:1029C00080818D93FD010894E11CF11CEC14FD0441
:1029D00098F31082812FEA960FB6F894DEBF0FBEEF
:1029E000CDBFDF91CF911F910F91FF90EF90DF90BE
:1029F000CF90BF90AF909F908F90089599AD8AAD82
:102A0000EC14FD04A1F2A92FB82FD6CF99AD8AAD51
:102A1000CECF2F923F924F925F926F927F928F9282
:102A20009F92AF92BF92CF92DF92EF92FF921F934D
:102A3000CF93DF9300D000D000D0CDB7DEB79E8318
:102A40008D836A017B010E944301182F882309F0BE
:102A50009FC1AD81BE8115968C911597882309F091
:102A600096C11A968D919D910D90BC91A02D8C15BB
:102A70009D05AE05BF0538F4ED81FE81248121FD61
:102A800002C06C017D01AD81BE8116964D915D91B4
:102A90006D917C911997FD0116821782108611861F
:102AA000C114D104E104F10409F472C12080318021
:102AB000D10112968C9190E0A0E0B0E04C015D0154
:102AC000072E79E0880C991CAA1CBB1C7A95D1F7BB
:102AD000702D4115510561057105F1F12A013B0188
:102AE00008944108510861087108C701B601615096
:102AF000704080409040A50194010E946920298384
:102B00003A834B835C83C301B201A50194010E9407
:102B1000692089819A81AB81BC8182179307A407C0
:102B2000B507D0F088279927DC0188199909AA09E7
:102B3000BB0984219521A621B721ED81FE818683E1
:102B40009783A087B187C81AD90AEA0AFB0A428983
:102B50005389648975893EC0AD81BE811E964D91B1
:102B60005D916D917C9151974115510561057105FC
:102B700049F5C10140E050E0BA010E942A08AB01CA
:102B8000BC01413051056105710531F482E0ED81F0
:102B9000FE81858312E0FCC04F3FFFEF5F07FFEF30
:102BA0006F07FFEF7F0741F481E0AD81BE8115968D
:102BB0008C93159711E0ECC0ED81FE814687578715
:102BC000608B718BAD81BE8152964D935D936D93F9
:102BD0007C935597411551056105710509F49FC016
:102BE0008C149D04AE04BF0408F062C04D805E806A
:102BF000F201848181FF0CC0808191810E942A08AA
:102C0000AB01BC01411551056105710539F44CC09A
:102C1000808191810E948705AB01BC014F3FBFEFCE
:102C20005B07BFEF6B07BFEF7B0729F481E0F20181
:102C3000858311E0ADC0423051056105710560F03A
:102C4000D201ED91FC9186899789A08DB18D4817AD
:102C500059076A077B0728F082E0F201858312E0BA
:102C600097C0D20152964D935D936D937C93559787
:102C700016968D919D910D90BC91A02D880D991D5A
:102C8000AA1DBB1DF20186839783A087B187C81850
:102C9000D908EA08FB088C149D04AE04BF0408F4AC
:102CA000A7CF5E824D8204C05E824D8275016401B1
:102CB000ED81FE8186819781A085B1858C0D9D1D5A
:102CC000AE1DBF1D86839783A087B187D701C6013C
:102CD0009170A070B0700097A105B10521F18081BD
:102CE00091810E945105DC01CB010097A105B1053E
:102CF00041F482E0AD81BE8115968C93159712E068
:102D000047C00B2EB9E0F694E794D794C794BA95D0
:102D1000D1F7B02DC80ED91EEA1EFB1E07C0CC2469
:102D2000DD24760103C0CC24DD247601ED81FE8113
:102D300086819781A085B1859170A070B070009751
:102D4000A105B10569F086899789A08DB18D8C1593
:102D50009D05AE05BF0521F0C68AD78AE08EF18EAB
:102D6000ED81FE8186819781A085B185428553855D
:102D700064857585481759076A077B0748F4828779
:102D80009387A487B58784818062848301C0182FCC
:102D9000812F26960FB6F894DEBF0FBECDBFDF9110
:102DA000CF911F91FF90EF90DF90CF90BF90AF90A9
:102DB0009F908F907F906F905F904F903F902F905B
:102DC00008950F931F93CF93DF93CDB7DEB760972E
:102DD0000FB6F894DEBF0FBECDBF8C01788B6F8726
:102DE000009709F44BC0CE010196BE01615F7F4F91
:102DF00040E00E9457028823E9F589819A81D80131
:102E000011969C938E93CE01039655969C938E9328
:102E100054976F857889C8010E94E70A882321F5B5
:102E2000D8015296ED91FC915397309779F08385B4
:102E300084FF1DC089819A81BF010E949C00DC0132
:102E4000CB01F80186839783A087B187E981FA8156
:102E500086819781D80113969C938E931297C8010F
:102E600060E070E00E946F06843011F413C085E0CA
:102E7000882329F0F8011182108201C089E0609650
:102E80000FB6F894DEBF0FBECDBFDF91CF911F917B
:102E90000F91089585E0EECFCF93DF93EC010E9470
:102EA0004301882311F419821882DF91CF9108958C
:102EB000CF92DF92EF92FF921F93CF93DF93CDB724
:102EC000DEB72C970FB6F894DEBF0FBECDBF7C01E6
:102ED0006B010E944301182F882391F5C114D1047E
:102EE00039F4C70160E070E00E946F06182F28C017
:102EF000CE010196F701958B848BC70160E070E0ED
:102F00000E949C0A843031F4F70116861786108AD5
:102F1000118A02C0882389F4C701B6010E94BF004C
:102F2000C70160E070E00E945709843041F4F70166
:102F300016861786108A118A03C0182F01C0182F11
:102F4000812F2C960FB6F894DEBF0FBECDBFDF9158
:102F5000CF911F91FF90EF90DF90CF9008956F92E7
:102F60007F928F929F92AF92BF92CF92DF92EF9219
:102F7000FF920F931F93CF93DF9300D000D0CDB774
:102F8000DEB73C014A018C01CC24DD245B010894AE
:102F9000A108B1081BC0C401BE016F5F7F4F41E0B3
:102FA00050E09E012D5F3F4F0E94C30E8B819C819C
:102FB0008130910579F48981F70180830F5F1F4F7C
:102FC00078010894C11CD11C8A3021F07801CA1400
:102FD000DB040CF3F7011082C114D10411F4662450
:102FE0007724862D972D0F900F900F900F90DF91E3
:102FF000CF911F910F91FF90EF90DF90CF90BF90F6
:10300000AF909F908F907F906F900895CF93DF93B4
:10301000CDB7DEB7C854D0400FB6F894DEBF0FBEB0
:10302000CDBF482F7A8369831C821B821E821D823A
:10303000CE010196642F0E948E124B815C81552334
:10304000C4F089819A81BE01695F7F4F9E01295B2F
:103050003F4F0E946510882379F42B813C8129968B
:103060008EAD9FAD29972817390749F48D819E8130
:1030700008C08FEF9FEF05C08FEF9FEF02C08FEF6B
:103080009FEFC85BDF4F0FB6F894DEBF0FBECDBF1A
:10309000DF91CF9108950F931F93CF93DF93CDB717
:1030A000DEB7C854D0400FB6F894DEBF0FBECDBF18
:1030B0007A8369831C821B821E821D82FC016081CF
:1030C000662361F08C010F5F1F4FCE0101960E94B5
:1030D0008E12F80161918F016623B9F74B815C81F3
:1030E0005523C4F089819A81BE01695F7F4F9E019B
:1030F000295B3F4F0E946510882379F42B813C8126
:1031000029968EAD9FAD29972817390749F48D81EF
:103110009E8108C08FEF9FEF05C08FEF9FEF02C029
:103120008FEF9FEFC85BDF4F0FB6F894DEBF0FBE87
:10313000CDBFDF91CF911F910F9108952F923F92B4
:103140004F925F926F927F928F929F92AF92BF92B7
:10315000CF92DF92EF92FF920F931F93CF93DF9363
:10316000CDB7DEB7CB55D0400FB6F894DEBF0FBE5B
:10317000CDBFE4962EAC3FACE497E2968EAD9FAD0A
:10318000E2979C8B8B8B1E8A1D8A188E1F8A9E014C
:103190002C583F4F6C963FAF2EAF6C97F10160817A
:1031A000662309F4DCC1653241F00894211C311C0E
:1031B000CE0143960E948E12F1CFF10101810033BE
:1031C00051F4028123E030E0220E331E31E06A9692
:1031D0003FAF6A9714C00D3241F082E090E0280EB4
:1031E000391E6A961FAE6A970AC0F101028123E078
:1031F00030E0220E331E32E06A963FAF6A97802F8E
:1032000080538A30D0F4F101AA24BB24C5019C016B
:10321000220F331F880F991F880F991F880F991F3E
:10322000820F931F800F911DC09701911F01202FC6
:1032300020532A3060F35C0102C0AA24BB240C3660
:1032400011F00C3451F46A968FAD6A9784606A96D7
:103250008FAF6A97F10101911F01002309F47FC12B
:10326000802F81568A3118F4202F205201C0202F40
:103270002F3409F495C0203550F4233409F46CC080
:10328000243409F47AC0223409F080C085C0253581
:1032900009F473C0283509F475C0233509F076C0E8
:1032A0006C96EEADFFAD6C979F012E5F3F4F6C9615
:1032B0003FAF2EAF6C97C080D180F601808188230C
:1032C00049F0319600E010E00F5F1F4F8191882395
:1032D000D9F702C000E010E06A96FFAD6A97F1FDF1
:1032E0001BC048010894811C911C0A151B0598F409
:1032F0007801CE01439660E20E948E120894E11C90
:10330000F11CEA14FB04A8F3C501801B910B8C018E
:10331000080D191D01C08401F6016081662369F062
:1033200076010894E11CF11CCE0143960E948E1296
:10333000F70161917F016623B9F70A151B0508F0B3
:103340002DCFCE01439660E20E948E120F5F1F4F79
:103350000A151B05B0F322CF6C96EEADFFAD6C974E
:103360009F012E5F3F4F6C963FAF2EAF6C97CE0103
:10337000439660810E948E1211CF0F2EFAE04F2EDD
:10338000F02D11C04424689444F80DC0CE0143963A
:10339000602F0E948E1202CF4424689441F803C02B
:1033A0004424689443F86A963FAD6A9732FF11C08F
:1033B0006C96EEADFFAD6C97CF0104966C969FAF07
:1033C0008EAF6C9780819181A281B381243499F56D
:1033D00022C0243491F46C96EEADFFAD6C979F0142
:1033E0002E5F3F4F6C963FAF2EAF6C9780819181DF
:1033F000AA2797FDA095BA2F0EC06C96EEADFFAD33
:103400006C9780819181A0E0B0E032966C96FFAF1E
:10341000EEAF6C9710C0BB2374F4B095A095909557
:1034200081959F4FAF4FBF4F6A96FFAD6A97F86087
:103430006A96FFAF6A970F2EF3E0CF2EDD24F02DB2
:10344000CC0EDD1E8824992455246624772401C0DF
:103450004701BC01CD01A30192010E946920822F86
:10346000932FA42FB52F6A3030F0083711F427E2DC
:1034700001C027E0620F605DF60161936F01740186
:103480000894E11CF11C0097A105B10531F0F0E1B1
:10349000EF16F104E9F6F70101C0F7016A968FAD66
:1034A0006A9783FF0EC023E030E02C0F3D1FE20F30
:1034B000F31F3DE23083EE24FF246894E1F8E80C2A
:1034C000F91C80FF05C00F2EF0E39F2EF02D03C0E6
:1034D0009924689495F881FD1EC067010894C11C69
:1034E000D11CEA14FB04C0F4CE014396692D0E945E
:1034F0008E1287010F5F1F4F0A151B0508F46BC062
:10350000C50101968C0D9D1D9701209530956C018C
:10351000C20ED31E01C0670103E010E00C0F1D1F97
:103520000E0D1F1D0894E108F108CE014396F80125
:1035300062918F010E948E12E114F10499F7CA146E
:10354000DB0408F02BCECE014396692D0E948E122B
:103550000894C11CD11CCA14DB04A8F31FCE4D89EA
:103560005E895523B4F08B899C89BE01675E7F4FCD
:103570009E012F5F3F4F0E946510882369F42D89BB
:103580003E8989819A812817390749F48F89988D56
:1035900008C08FEF9FEF05C08FEF9FEF02C08FEF46
:1035A0009FEFC55ADF4F0FB6F894DEBF0FBECDBFF9
:1035B000DF91CF911F910F91FF90EF90DF90CF900F
:1035C000BF90AF909F908F907F906F905F904F9043
:1035D0003F902F900895CE014396692D0E948E1240
:1035E00089CF0F931F93CF93DF93CDB7DEB7C25729
:1035F000D0400FB6F894DEBF0FBECDBF8DE691E090
:103600006FE071E040E00E94920CCE01019660E113
:1036100071E041E00E94E60C882359F01BC000D005
:10362000EDB7FEB7128301830E948B200F900F909D
:1036300003C08E010F5D1F4FC80162E570E0AE014F
:103640004F5F5F4F0E94AF17009749F7CE01019679
:103650000E949513CE58DF4F0FB6F894DEBF0FBE11
:10366000CDBFDF91CF911F910F9108950E94F11A64
:1036700080E090E00895CF92DF92EF92FF920F9357
:103680001F93CF93DF93CDE6D1E00FE011E00F2E33
:10369000F4E3EF2EF1E0FF2EF02D0F2EFCE1CF2E04
:1036A000F1E0DF2EF02D15C0CE01B80140E00E9400
:1036B000920C80933301C701B6014AE00E94E60CE8
:1036C00080933301882329F010922701109226015C
:1036D00004C080913301882339F3DF91CF911F918A
:1036E0000F91FF90EF90DF90CF90089560E070E62B
:1036F00087E792E408951CBC84B18F7484B985B1C6
:103700008F7485B908958EBD0DB407FEFDCF8EB5BB
:1037100008956AE070E00E94552060932E018FEFBB
:103720000E94831B8F3F21F090912E019923B9F7BE
:1037300021E030E08F3F11F020E030E0822F932F26
:1037400008952C9A8FEF0E94831B08952C988FEF79
:103750000E94831B84EF91E00E94891B009729F44B
:103760000E94A11B80E090E0089581E090E0089520
:103770000F931F93CF93DF93EC018B0184E1809330
:103780002F018FEF0E94831B8F3F39F480912F010F
:103790008823B9F780E090E01EC08E3FD1F48FEF10
:1037A0008EBD0DB407FEFDCF9EB598838EBD0DB4C2
:1037B00007FEFDCF9EB5998322960250104081F7F7
:1037C0008FEF0E94831B8FEF0E94831B81E090E0AC
:1037D00002C080E090E0DF91CF911F910F9108959A
:1037E0001F93CF93DF93EC01162F84EF91E00E949B
:1037F000891B009741F1812F0E94831B1D3F31F1EE
:10380000CE0180509E4F28812EBD0DB407FEFDCF06
:1038100029812EBD22960DB407FEFDCF8C179D0782
:1038200091F78FEF0E94831B8FEF0E94831B8FEF16
:103830000E94831B8F7121E030E0853011F020E081
:1038400030E0C90105C080E090E002C081E090E076
:10385000DF91CF911F910895FF920F931F93CF9304
:10386000DF93C82FD42F152F062FF72E88234CF463
:1038700087E340E050E0BA010E942C1C823078F5CA
:10388000CF77CC3091F10E94A11B0E94A61B00971C
:1038900029F18C2F80640E94831B8F2D0E94831B33
:1038A000802F0E94831B812F0E94831B8D2F0E94DB
:1038B000831BCC2371F1C83041F181E00E94831B4E
:1038C000CC3019F48FEF0E94831BCAE08FEF0E9467
:1038D000831B882324F4C150C9F701C08FEFDF9107
:1038E000CF911F910F91FF9008958CE40E94831B4C
:1038F0008F2D0E94831B802F0E94831B812F0E948B
:10390000831B8D2F0E94831BD8CF87E80E94831BC7
:10391000DCCF85E90E94831BD8CFCF92DF92EF9254
:10392000FF920F931F93CF93DF9300D000D0CDB7BA
:10393000DEB7882309F0ABC00E947B1B8091280171
:1039400081FF03C080912801A3C085B1806385B940
:1039500084B1806B84B982E58CBD91E09DBD8CBD46
:103960000AE08FEF0E94831B0150D9F780E040E00E
:1039700050E0BA010E942C1C813009F09CC084E602
:1039800080932F0188E04AEA51E060E070E00E94F5
:103990002C1C813009F042C06E010894C11CD11C5E
:1039A0008E010B5F1F4F76018FEF0E94831BF70183
:1039B00081937F01E017F107B9F78B81813009F01E
:1039C0007AC08C818A3A09F076C080912F018823D1
:1039D00049F089EA40E050E060E070E40E942C1C6D
:1039E000882399F780912F01882309F464C08AE322
:1039F00040E050E0BA010E942C1C882309F05BC013
:103A000004E08FEF0E94831BF60181936F01015048
:103A1000C1F7898186FD49C084E048C089EA40E059
:103A200050E0BA010E942C1C823018F412E009EA1E
:103A300002C011E001E080912F01882341F0802F26
:103A400040E050E0BA010E942C1C8823A1F780912D
:103A50002F01882381F180E140E052E060E070E0D6
:103A60000E942C1C882339F5109330010E94A11B61
:103A7000112341F0809128018E7F8093280180E5F9
:103A80008CBD02C00E947B1B8091280101C081E097
:103A90000F900F900F900F90DF91CF911F910F918A
:103AA000FF90EF90DF90CF9008958CE080933001ED
:103AB0000E94A11BDFCF109230010E94A11BE2CF18
:103AC000882319F480912801089581E00895FF92D8
:103AD0000F931F93CF93DF93EB01882309F045C029
:103AE0000115110509F443C08091280180FD41C0F2
:103AF0008091300183FD09C0012E19E0220F331F90
:103B0000441F551F1A95D1F7102D0230110528F0CA
:103B10000F2EF2E1FF2EF02D04C00F2EF1E1FF2E4B
:103B2000F02D8F2DBA01A9010E942C1C8823A9F425
:103B3000CE0160E072E00E94B81B009729F0C050EF
:103B4000DE4F01501040A1F782E1F81631F48CE00D
:103B500040E050E0BA010E942C1C0E94A11B81E0B1
:103B60000115110539F480E005C084E003C084E04C
:103B700001C083E0DF91CF911F910F91FF900895D5
:103B8000CF92DF92EF92FF920F931F93CF93DF9329
:103B9000EB0169017A01882309F05CC00115110568
:103BA00009F45AC08091280180FD58C080912801F5
:103BB00082FD56C08091300190E083FD09C00B2E3C
:103BC000B9E0CC0CDD1CEE1CFF1CBA95D1F7B02D72
:103BD0000130110571F488E1B701A6010E942C1C87
:103BE000882381F5CE016EEF0E94F01B009729F526
:103BF00029C086709070009731F0A80160E070E0F5
:103C000087E90E942C1C89E1B701A6010E942C1CA7
:103C10008823C1F4CE016CEF0E94F01B009729F0BD
:103C2000C050DE4F01501040A9F780E090E06DEFEA
:103C30000E94F01B009721F005C000E010E002C0D8
:103C400001E010E00E94A11B81E00115110549F47B
:103C500080E007C084E005C084E003C083E001C0C9
:103C600082E0DF91CF911F910F91FF90EF90DF9055
:103C7000CF900895EF92FF920F931F93CF93DF930E
:103C8000CDB7DEB760970FB6F894DEBF0FBECDBFDD
:103C90007A01882309F0BCC18091280180FDBAC156
:103CA000623309F435C1633358F46130E9F06130AF
:103CB000A0F0633009F494C0673009F089C17FC176
:103CC000643309F43EC1643308F428C1653309F450
:103CD0004BC1663309F07CC15EC10E94A61B0097F0
:103CE00009F078C101E091C189E040E050E0BA01FB
:103CF0000E942C1C882309F06FC1CE01019660E15F
:103D000070E00E94B81B009709F468C18981829510
:103D1000869586958370813051F5488550E060E046
:103D200070E04F73507060707070BA01552744276F
:103D30004F5F5F4F6F4F7F4F998580E02A85820FDD
:103D4000911DA0E0B0E0840F951FA61FB71F072E9E
:103D50007AE0880F991FAA1FBB1F7A95D1F7702DA3
:103D6000F70180839183A283B38300E04EC129854C
:103D70002295269526952370888590E0880F991FB7
:103D8000880F991F820F911D01962F8130E02370BB
:103D90003070322F2227330F330F820F931FAC0165
:103DA00060E070E09E819F708B85881F8827881F48
:103DB000980F9E5F8A858370880F890F90E009971E
:103DC0008A019B0104C0000F111F221F331F8A9517
:103DD000D2F7F701008311832283338300E015C1FA
:103DE0000091300102FF2FC08DE840E050E0BA01A1
:103DF0000E942C1C882309F0F3C08FEF0E94831BC4
:103E0000CE01019660E170E00E94B81B009709F4B2
:103E1000E9C000E38FEF0E94831B0150D9F72B8587
:103E200022952F7080E190E0A0E0B0E004C0880F00
:103E3000991FAA1FBB1F2A95D2F7F7018083918390
:103E4000A283B383E2C089E040E050E0BA010E945F
:103E50002C1C882309F0C8C0CE01019660E170E0F7
:103E60000E94B81B009709F4C1C001FF25C08C85D2
:103E7000881F8827881F90E001962B8530E02F73DC
:103E80003070220F331F280F391F8E85829586953B
:103E90008695837090E00197890102C0000F111F81
:103EA0008A95E2F7C801A0E0B0E0F7018083918332
:103EB000A283B38300E0A9C08C85482F50E04370F3
:103EC0005070440F551F440F551F440F551F8295C6
:103ED00086958770480F511D4F5F5F4F2B8530E0EF
:103EE0002C77307035952795359527952F5F3F4F67
:103EF000429FC001439F900D529F900D1124A0E05E
:103F0000B0E0F70180839183A283B38300E07DC09A
:103F100080913001FA01808300E077C089E040E0C1
:103F200050E0BA010E942C1C882309F061C0C7012F
:103F300060E170E00E94B81B009709F05BC001E0EF
:103F400064C08AE040E050E0BA010E942C1C882343
:103F500009F052C0C70160E170E00E94B81B0097F1
:103F600009F04CC001E051C08AE340E050E0BA01E2
:103F70000E942C1C882309F043C087010C5F1F4F4F
:103F80008FEF0E94831BF70181937F01E017F107F8
:103F9000B9F700E03AC08DE840E050E0BA010E9475
:103FA0002C1C882379F58FEF0E94831BC70160E4E6
:103FB00070E00E94B81B009739F501E026C00E940E
:103FC0007B1B8091280181608093280100E01DC047
:103FD00004E01BC000E019C001E017C001E015C0FB
:103FE00001E013C001E011C001E00FC001E00DC00D
:103FF00001E00BC000E009C001E007C000E005C01F
:1040000001E003C001E001C000E00E94A11B03C069
:1040100004E001C003E0802F60960FB6F894DEBF85
:104020000FBECDBFDF91CF911F910F91FF90EF9009
:10403000089580912F01882319F0815080932F01DA
:1040400080912E01882319F0815080932E01809158
:1040500028011D9B02C0846001C08B7F1C9902C097
:104060008D7F01C08360809328010895629FD001F5
:10407000739FF001829FE00DF11D649FE00DF11D23
:10408000929FF00D839FF00D749FF00D659FF00DD2
:104090009927729FB00DE11DF91F639FB00DE11DBF
:1040A000F91FBD01CF0111240895AA1BBB1B51E1CB
:1040B00007C0AA1FBB1FA617B70710F0A61BB70B98
:1040C000881F991F5A95A9F780959095BC01CD013D
:1040D0000895A1E21A2EAA1BBB1BFD010DC0AA1F49
:1040E000BB1FEE1FFF1FA217B307E407F50720F061
:1040F000A21BB30BE40BF50B661F771F881F991FDC
:104100001A9469F760957095809590959B01AC0124
:10411000BD01CF010895CF93DF93CDB7DEB7FE0188
:104120003596619171918091A1039091A203AF01A5
:104130000E949D20DF91CF9108952F923F924F9240
:104140005F926F927F928F929F92AF92BF92CF9227
:10415000DF92EF92FF920F931F93CF93DF93CDB730
:10416000DEB72D970FB6F894DEBF0FBECDBF3C0172
:104170007D876C875A01FC0117821682838181FF3B
:10418000C8C12E010894411C511CF3019381EC8598
:10419000FD8593FD859193FF8191FD87EC878823B1
:1041A00009F4B3C1853241F493FD859193FF819168
:1041B000FD87EC87853229F490E0B3010E94BA2292
:1041C000E4CFFF24EE2410E01032B0F48B3269F01B
:1041D0008C3228F4803251F0833271F40BC08D326E
:1041E00039F0803349F411602CC01260146029C08A
:1041F000186027C0106125C017FD2EC0282F20533E
:104200002A3098F416FF08C08F2D880FF82EFF0C67
:10421000FF0CF80EF20E15C08E2D880FE82EEE0C56
:10422000EE0CE80EE20E10620CC08E3221F416FD88
:104230006CC1106406C08C3611F4106802C0883658
:1042400059F4EC85FD8593FD859193FF8191FD8760
:10425000EC87882309F0B8CF982F9554933018F045
:104260009052933038F424E030E0A20EB31E3FE3C6
:1042700039830FC0833631F0833781F0833509F0FD
:104280005AC022C0F5018081898322E030E0A20E6D
:10429000B31E21E0C22ED12C420114C092E0292E7F
:1042A000312C2A0C3B1CF5018080918016FF03C045
:1042B0006F2D70E002C06FEF7FEFC4010E94AF224C
:1042C0006C0151011F7715C082E0282E312C2A0C79
:1042D0003B1CF5018080918016FF03C06F2D70E0BC
:1042E00002C06FEF7FEFC4010E94A4226C0110682E
:1042F000510113FD1CC006C080E290E0B3010E9492
:10430000BA22EA948E2D90E0C816D906A8F30FC001
:10431000F40117FD859117FF81914F0190E0B301E2
:104320000E94BA22E110EA940894C108D108C1148D
:10433000D10471F7E7C0843611F0893651F5F501E3
:1043400017FF07C080819181A281B38124E030E012
:1043500008C080819181AA2797FDA095BA2F22E0FD
:1043600030E0A20EB31E012F0F76B7FF08C0B09544
:10437000A095909581959F4FAF4FBF4F0068BC01AE
:10438000CD01A2012AE030E00E94E622D82ED41806
:104390003FC0853721F41F7E2AE030E020C0197F1E
:1043A0008F36A9F0803720F4883509F0AEC00BC0F5
:1043B000803721F0883709F0A8C001C0106114FFD0
:1043C00009C0146007C014FF08C0166006C028E0CA
:1043D00030E005C020E130E002C020E132E0F5012C
:1043E00017FF07C0608171818281938144E050E0B2
:1043F00006C06081718180E090E042E050E0A40E50
:10440000B51EA2010E94E622D82ED418012F0F77E4
:1044100006FF09C00E7FDF1430F404FF06C002FD62
:1044200004C00F7E02C01D2D01C01F2D802F90E003
:1044300004FF0CC0FE01ED0DF11D2081203311F4AD
:10444000097E09C002FF06C01E5F05C08678907015
:10445000009709F01F5F802E992403FD12C000FF12
:104460000DC0FD2C1E1550F4FE0CF11A1E2D06C0B9
:1044700080E290E0B3010E94BA221F5F1E15C0F3D4
:1044800004C01E1510F4E11A01C0EE2484FE0FC012
:1044900080E390E0B3010E94BA2282FE1FC081FE39
:1044A00003C088E590E010C088E790E00DC0C4012B
:1044B00086789070009791F081FC02C080E201C084
:1044C0008BE207FD8DE290E0B3010E94BA2206C0A4
:1044D00080E390E0B3010E94BA22FA94DF14C0F3A3
:1044E000DA94F201ED0DF11D808190E0B3010E949C
:1044F000BA22DD20A9F706C080E290E0B3010E9455
:10450000BA22EA94EE20C1F740CEF301868197816A
:1045100002C08FEF9FEF2D960FB6F894DEBF0FBE4F
:10452000CDBFDF91CF911F910F91FF90EF90DF9062
:10453000CF90BF90AF909F908F907F906F905F9043
:104540004F903F902F900895FC010590615070406E
:104550000110D8F7809590958E0F9F1F0895FC014C
:104560006150704001900110D8F7809590958E0FA2
:104570009F1F08950F931F93CF93DF938C01EB013F
:104580008B8181FF1BC082FF0DC02E813F818C81FA
:104590009D812817390764F4E881F9810193F98333
:1045A000E88306C0E885F985802F0995009731F4E6
:1045B0008E819F8101969F838E8302C00FEF1FEF34
:1045C000C801DF91CF911F910F910895FA01AA2799
:1045D000283051F1203181F1E8946F936E7F6E5F46
:1045E0007F4F8F4F9F4FAF4FB1E03ED0B4E03CD0F4
:1045F000670F781F891F9A1FA11D680F791F8A1FD7
:10460000911DA11D6A0F711D811D911DA11D20D03D
:1046100009F468943F912AE0269F11243019305DF7
:104620003193DEF6CF010895462F4770405D4193E8
:10463000B3E00FD0C9F7F6CF462F4F70405D4A3335
:1046400018F0495D31FD4052419302D0A9F7EACFFD
:10465000B4E0A6959795879577956795BA95C9F72C
:1046600000976105710508959B01AC010A2E06941F
:104670005795479537952795BA95C9F7620F731FD8
:0C468000841F951FA01D0895F894FFCF23
:10468C00222A2B2C3A3B3C3D3E3F5B5D7C7F00005D
:10469C006D6573736167652E747874002F64617433
:0A46AC00612E747874000100010013
:00000001FF
