:100000000C9446000C9465000C9465000C946500FB
:100010000C9465000C9465000C9465000C946500CC
:100020000C9465000C9465000C9465000C946500BC
:100030000C9465000C9465000C9465000C946500AC
:100040000C9465000C9465000C9465000C9465009C
:100050000C94B5230C94E3230C9465000C94650078
:100060000C9465000C9465000C9465000C9465007C
:100070000C9465000C9465000C9465000C9465006C
:100080000C9465000C9465000C94650011241FBE4F
:10009000CFEFD0E4DEBFCDBF11E0A0E0B1E0E2ECF5
:1000A000F8E400E00BBF02C007900D92A832B10740
:1000B000D9F716E0A8E2B1E001C01D92A632B1075F
:1000C000E1F70E9454230C945F240C9400001CBCA4
:1000D000249885B18F7485B908958EBD0DB407FE3F
:1000E000FDCF8EB5089582E3809328018FEF0E94A3
:1000F0006D008F3F21F0909128019923B9F721E0FD
:1001000030E08F3F11F020E030E0822F932F0895F0
:100110002C9A8FEF0E946D0008952C988FEF0E940B
:100120006D000E947300009729F40E94880080E00F
:1001300090E0089581E090E008950F931F93CF938E
:10014000DF93EC018B0184E1809329018FEF0E9402
:100150006D008F3F39F4809129018823B9F780E041
:1001600090E01EC08E3FD1F48FEF8EBD0DB407FE20
:10017000FDCF9EB598838EBD0DB407FEFDCF9EB515
:10018000998322960250104081F78FEF0E946D00F4
:100190008FEF0E946D0081E090E002C080E090E06F
:1001A000DF91CF911F910F9108951F93CF93DF930C
:1001B000EC01162F0E947300009741F1812F0E94DD
:1001C0006D001D3F31F1CE0180509E4F28812EBD24
:1001D0000DB407FEFDCF29812EBD22960DB407FE7A
:1001E000FDCF8C179D0791F78FEF0E946D008FEF69
:1001F0000E946D008FEF0E946D008F7121E030E052
:10020000853011F020E030E0C90105C080E090E0C9
:1002100002C081E090E0DF91CF911F910895FF929D
:100220000F931F93CF93DF93C82FD42F152F062F33
:10023000F72E88234CF487E340E050E0BA010E9497
:100240000F01823068F5CF770E9488000E948D00F0
:10025000009729F18C2F80640E946D008F2D0E94E1
:100260006D00802F0E946D00812F0E946D008D2FE8
:100270000E946D00CC23F1F0C830C1F081E00E94F3
:100280006D00CC3019F48FEF0E946D00CAE08FEF43
:100290000E946D00882324F4C150C9F701C08FEF7C
:1002A000DF91CF911F910F91FF90089587E80E94F1
:1002B0006D00ECCF85E90E946D00E8CFCF92DF9210
:1002C000EF92FF920F931F93CF93DF9300D000D054
:1002D000CDB7DEB7882309F0AAC00E9467008091DD
:1002E000000181FF03C080910001A2C085B1806739
:1002F00085B984B1806B84B981E58CBD82E58CBD04
:100300000AE08FEF0E946D000150D9F780E040E0D5
:1003100050E0BA010E940F01813009F09CC084E6D0
:100320008093290188E04AEA51E060E070E00E9491
:100330000F01813009F042C06E010894C11CD11C2C
:100340008E010B5F1F4F76018FEF0E946D00F7014A
:1003500081937F01E017F107B9F78B81813009F0B4
:100360007AC08C818A3A09F076C08091290188236D
:1003700049F089EA40E050E060E070E40E940F013B
:10038000882399F780912901882309F464C08AE3BE
:1003900040E050E0BA010E940F01882309F05BC0E1
:1003A00004E08FEF0E946D00F60181936F01015010
:1003B000C1F7898186FD49C084E048C089EA40E0F0
:1003C00050E0BA010E940F01823018F412E009EAED
:1003D00002C011E001E080912901882341F0802FC3
:1003E00040E050E0BA010E940F018823A1F78091FC
:1003F0002901882381F180E140E052E060E070E073
:100400000E940F01882339F510932A010E94880069
:10041000112341F0809100018E7F8093000180E5DF
:100420008CBD02C00E9467008091000101C081E084
:100430000F900F900F900F90DF91CF911F910F9120
:10044000FF90EF90DF90CF9008958CE080932A0189
:100450000E948800DFCF10922A010E948800E2CF1C
:10046000882319F480910001089581E008950F9385
:10047000CF93DF93EB01882309F046C0002309F4F2
:1004800045C08091000180FD43C080912A0183FD19
:1004900009C0012E19E0220F331F441F551F1A9562
:1004A000D1F7102D013079F481E1BA01A9010E9440
:1004B0000F01882311F5CE0160E072E00E949D00DB
:1004C0000097D1F41AC082E1BA01A9010E940F017C
:1004D000882399F4CE0160E072E00E949D000097AD
:1004E00021F0C050DE4F0150A9F78CE040E050E011
:1004F000BA010E940F0101C000E00E94880081E063
:10050000002339F480E005C084E003C084E001C02A
:1005100083E0DF91CF910F910895CF92DF92EF9218
:10052000FF920F93CF93DF93EB0169017A01882348
:1005300009F057C0002309F456C08091000180FDE6
:1005400054C08091000182FD52C080912A0190E048
:1005500083FD09C00B2EB9E0CC0CDD1CEE1CFF1C8A
:10056000BA95D1F7B02D013071F488E1B701A60139
:100570000E940F01882371F5CE016EEF0E94D50015
:10058000009729F527C086709070009739F0402FAA
:1005900050E060E070E087E90E940F0189E1B70157
:1005A000A6010E940F018823A9F4CE016CEF0E94DE
:1005B000D500009721F0C050DE4F0150B1F780E028
:1005C00090E06DEF0E94D500009719F003C000E0A5
:1005D00001C001E00E94880081E0002349F480E02E
:1005E00007C084E005C084E003C083E001C082E06E
:1005F000DF91CF910F91FF90EF90DF90CF90089512
:10060000EF92FF920F931F93CF93DF93CDB7DEB797
:1006100060970FB6F894DEBF0FBECDBF7A01882376
:1006200009F0CEC1653089F4FA018081882321F078
:10063000813009F0C7C104C00E94670000E0C5C155
:1006400081E0FA01818300E0C0C18091000180FD5A
:10065000BBC16A3009F43EC16B3058F46130F9F027
:100660006130A0F0623009F496C0633009F088C1AF
:1006700099C06C3009F447C16C3008F431C16D3059
:1006800009F454C16E3009F07BC166C10E948D002F
:10069000009709F477C10E94880000E08EC189E0CC
:1006A00040E050E0BA010E940F01882309F06CC1BC
:1006B000CE01019660E170E00E949D00009709F470
:1006C00065C189818295869586958370813051F5C3
:1006D000488550E060E070E04F735070607070705B
:1006E000BA01552744274F5F5F4F6F4F7F4F998562
:1006F00080E02A85820F911DA0E0B0E0840F951F55
:10070000A61FB71F072E7AE0880F991FAA1FBB1FCD
:100710007A95D1F7702DF70180839183A283B383FB
:1007200000E04BC129852295269526952370888562
:1007300090E0880F991F880F991F820F911D0196D5
:100740002F8130E023703070322F2227330F330F88
:10075000820F931FAC0160E070E09E819F708B85DB
:10076000881F8827881F980F9E5F8A858370880F4F
:10077000890F90E009978A019B0104C0000F111FA7
:10078000221F331F8A95D2F7F7010083118322833A
:10079000338300E012C180E092E0FA01918380830C
:1007A00000E00BC100912A0102FF2FC08DE840E05C
:1007B00050E0BA010E940F01882309F0E9C08FEFD1
:1007C0000E946D00CE01019660E170E00E949D00E4
:1007D000009709F4DFC000E38FEF0E946D00015025
:1007E000D9F72B8522952F7080E190E0A0E0B0E052
:1007F00004C0880F991FAA1FBB1F2A95D2F7F701C3
:1008000080839183A283B383D8C089E040E050E025
:10081000BA010E940F01882309F0BEC0CE010196E3
:1008200060E170E00E949D00009709F4B7C001FFED
:1008300025C08C85881F8827881F90E001962B850E
:1008400030E02F733070220F331F280F391F8E8531
:10085000829586958695837090E00197890102C004
:10086000000F111F8A95E2F7C801A0E0B0E0F70180
:1008700080839183A283B38300E09FC08C85482F3F
:1008800050E043705070440F551F440F551F440FE4
:10089000551F829586958770480F511D4F5F5F4F9A
:1008A0002B8530E02C773070359527953595279539
:1008B0002F5F3F4F429FC001439F900D529F900D6D
:1008C0001124A0E0B0E0F70180839183A283B38379
:1008D00000E073C080912A01FA01808300E06DC0BE
:1008E00089E040E050E0BA010E940F01882309F03E
:1008F00057C0C70160E170E00E949D00009709F0B9
:1009000051C001E05AC08AE040E050E0BA010E94C4
:100910000F01882309F048C0C70160E170E00E9420
:100920009D00009709F042C001E047C08AE340E023
:1009300050E0BA010E940F018823D1F587010C5FB6
:100940001F4F8FEF0E946D00F70181937F01E01729
:10095000F107B9F700E031C08DE840E050E0BA019E
:100960000E940F01882331F58FEF0E946D00C701AF
:1009700060E470E00E949D000097F1F401E01DC06A
:1009800004E01BC001E019C001E017C001E015C080
:1009900001E013C001E011C001E00FC001E00DC093
:1009A00001E00BC000E009C001E007C000E005C0A5
:1009B00001E003C001E001C000E00E94880005C022
:1009C00004E003C004E001C003E0802F60960FB68E
:1009D000F894DEBF0FBECDBFDF91CF911F910F9175
:1009E000FF90EF90089580912901882319F081509C
:1009F0008093290180912801882319F081508093E8
:100A0000280180910001189B02C0846001C08B7F87
:100A1000199902C08D7F01C0836080930001089501
:100A20004115510549F0A62FB72FE82FF92F8D91C9
:100A3000819341505040D9F708954115510531F047
:100A4000E82FF92F619341505040E1F708950F933B
:100A50001F93DC01FB01938D80E0028D10E0082BD9
:100A6000192B20E030E08C91833079F4558940E0F7
:100A7000848990E0842B952BA0E0B0E0DC019927DD
:100A80008827082B192B2A2B3B2B602F712F822FA5
:100A9000932F1F910F910895FC01428F538FAB014B
:100AA00066277727448B558B0895EF92FF920F931B
:100AB0001F93CF93DF93FC017B018B01075F1F4FD7
:100AC00086859785A089B1890097A105B10509F4AC
:100AD00065C0C289D3892881203299F0DE01119640
:100AE000F80180E090E035EE03C02D91203249F00E
:100AF000253009F4232F21938F0101968830910529
:100B0000A1F78885803281F08EE2F80180838885A4
:100B1000803209F04CC00F5F1F4F06C08C0104C02B
:100B2000F80123830C5F1F4F8B85F70180878F8D22
:100B300090E0A0E0B0E0B82FAA27992788274E8D33
:100B400050E060E070E0BA0155274427482B592B4C
:100B50006A2B7B2B8C8D90E0A0E0B0E0482B592BCA
:100B60006A2B7B2B9D8D80E0A0E0B0E0842B952B41
:100B7000A62BB72B80839183A283B383398D20E08A
:100B8000888D90E0822B932B958384839F8980E0CE
:100B90002E8930E0822B932B97838683F801108275
:100BA000DF91CF911F910F91FF90EF900895F80181
:100BB0008183C80102962985203209F4AFCF2283B0
:100BC000C80103962A85203209F0AACFA7CFDC01FD
:100BD000ED91FC911197309799F08081882391F0E5
:100BE0002681378112968D919C911397281739078A
:100BF00059F481810E94300280FF08C083E008958B
:100C000089E0089589E0089589E0089580E00895D5
:100C10000F93CF93DF93EC019A01AB01BC016E5CA3
:100C20007F4F898101E00E943702882309F083C049
:100C3000FE01EF5CFD4F908180E0FE01E05DFD4F25
:100C4000208130E0822B932B2AEA8535920709F028
:100C500074C0FE01E559FF4F808190E0A0E0B0E054
:100C6000B82FAA2799278827FE01E659FF4F408110
:100C700050E060E070E0BA0155274427482B592B1B
:100C80006A2B7B2BFE01E859FF4F808190E0A0E0AA
:100C9000B0E0482B592B6A2B7B2BFE01E759FF4F05
:100CA000908180E0A0E0B0E0482B592B6A2B7B2B91
:100CB0007070463481E4580784E5680780E078075F
:100CC000F1F1FE01E957FF4F808190E0A0E0B0E034
:100CD000B82FAA2799278827FE01EA57FF4F40819E
:100CE00050E060E070E0BA0155274427482B592BAB
:100CF0006A2B7B2BFE01EC57FF4F808190E0A0E038
:100D0000B0E0482B592B6A2B7B2BCB57DF4F9881B8
:100D100080E0A0E0B0E0482B592B6A2B7B2B707051
:100D200081E0463491E4590794E5690790E079073A
:100D300039F480E005C083E003C082E001C080E0B8
:100D4000DF91CF910F9108952F923F924F925F9232
:100D50006F927F928F929F92AF92BF92CF92DF92CB
:100D6000EF92FF920F931F93CF93DF93CDB7DEB730
:100D70002F970FB6F894DEBF0FBECDBF142FDC0146
:100D8000ED91FC911197808190E0C0978A30910598
:100D900040F421812A3329F432961196FC93EE9384
:100DA00003C080912D0190E0FB0111821082009719
:100DB00009F0D2C320912B0130912C013F872E875F
:100DC0002115310509F4CAC331832083D9018C91DF
:100DD000882369F011968C910E94300280FD07C033
:100DE000112309F4BDC382FDBDC380E0DCC3EE85E1
:100DF000FF851082118280E00E945E0180FDB4C3F5
:100E0000112311F082FDB2C38E859F8540E050E032
:100E1000BA010E940806813009F043C0EE85FF85C3
:100E2000EC50FE4F8081882309F4A2C3EE85FF8534
:100E3000E550FE4F808190E0A0E0B0E0B82FAA27F7
:100E400099278827EE85FF85E650FE4F408150E0C8
:100E500060E070E0BA0155274427842B952BA62B20
:100E6000B72BEE85FF85E850FE4F408150E060E0F3
:100E700070E0482B592B6A2B7B2BEE85FF85E750C2
:100E8000FE4F908180E06C01EE24FF24C42AD52A15
:100E9000E62AF72A8E859F85B701A6010E940806DB
:100EA00003C0CC24DD247601833009F463C3882396
:100EB00009F062C3AE85BF85DE969C91DE9780E027
:100EC000DD962C91DD9730E0822B932BB2E08030C1
:100ED0009B0709F053C3EE85FF85E75BFF4F308129
:100EE00020E0EE85FF85E85BFF4F808190E0822B5C
:100EF000932B4C01AA24BB2481149104A104B104B6
:100F0000A9F5EE85FF85E75AFF4F408150E060E08C
:100F100070E0742F662755274427EE85FF85E85A31
:100F2000FF4F808190E0A0E0B0E0DC0199278827A6
:100F3000482B592B6A2B7B2BEE85FF85EA5AFF4FF6
:100F4000808190E0A0E0B0E0482B592B6A2B7B2BEE
:100F5000EE85FF85E95AFF4F908180E0A0E0B0E088
:100F60004A015B01882A992AAA2ABB2AEE85FF85B5
:100F7000868E978EA0A2B1A2EE5BFF4F00810983FF
:100F8000AE85BF8513960C931397802F81508230C6
:100F900008F0F6C2DF960C91DF970D8312960C9342
:100FA0001297002309F4EEC2802F90E09C0121509B
:100FB000304082239323009709F0E6C2FD01EC5BE9
:100FC000FF4F308120E0FD01ED5BFF4F808190E01D
:100FD0001901282A392A19963C922E921897C10194
:100FE0008F709070009709F0D1C2FD01EA5BFF4F4E
:100FF000308120E0FD01EB5BFF4F808190E0822B90
:10100000932B2C016624772441145104610471044C
:10101000A1F5FD01EB5AFF4F808190E0A0E0B0E028
:10102000782F662755274427EE85FF85EC5AFF4F1A
:10103000808190E0A0E0B0E0DC0199278827482B70
:10104000592B6A2B7B2BEE85FF85EE5AFF4F808153
:1010500090E0A0E0B0E0482B592B6A2B7B2BEE856B
:10106000FF85ED5AFF4F908180E0A0E0B0E02A01BB
:101070003B01482A592A6A2A7B2AEE85FF85EF5BC5
:10108000FF4F308120E0EE85FF85E05CFF4F8081DF
:1010900090E08901082B192B0115110509F478C27C
:1010A0008981282F30E040E050E0C501B4010E9462
:1010B0001E246A877B878C879D87980140E050E0DB
:1010C0002E833F8348875987C101929582958F70FF
:1010D00089279F708927A0E0B0E0820F931FA41F8B
:1010E000B51F0A851B852C853D85080F191F2A1FF2
:1010F0003B1F09831A832B833C83401651066206EB
:10110000730608F447C2C301B201601B710B820B66
:10111000930B1D81212F30E040E050E00E943D24E0
:1011200089019A01D901C80101151105210531056F
:1011300009F432C2063F4FE0140740E0240740E0C4
:10114000340718F44424439403C04424689441F8B9
:10115000863F5FEF950750E0A50750E0B50708F020
:101160003BC2B901A8014E5F5F4F6F4F7F4FAE8505
:10117000BF855A964D935D936D937C935D9789815E
:101180009A81AB81BC818C0D9D1DAE1DBF1DEE856E
:10119000FF8582A793A7A4A7B5A78E819F81A88565
:1011A000B9858C0D9D1DAE1DBF1D82A393A3A4A365
:1011B000B5A3F3E04F1609F046C02114310409F03D
:1011C000EDC1EE85FF85EF59FF4F808190E0A0E0F3
:1011D000B0E0382F222711270027EE85FF85E05A3F
:1011E000FF4F808190E0A0E0B0E0DC0199278827E4
:1011F000082B192B2A2B3B2BEE85FF85E25AFF4F3C
:10120000808190E0A0E0B0E0082B192B2A2B3B2B2B
:10121000EE85FF85E15AFF4F908180E0A0E0B0E0CD
:10122000802B912BA22BB32BEE85FF8586A397A352
:10123000A0A7B1A7440F551F661F771F440F551F66
:10124000661F771F30C02114310409F4A9C10A8533
:101250001B852C853D85800F911FA21FB31FEE8536
:10126000FF8586A397A3A0A7B1A7F2E04F1629F4A4
:10127000440F551F661F771F16C0DB01CA01880F78
:10128000991FAA1FBB1F840F951FA61FB71FB695D6
:10129000A795979587954170507060707070480F52
:1012A000591F6A1F7B1FDB01CA0181509E4FAF4F40
:1012B000BF4F072E79E0B695A795979587957A95B4
:1012C000D1F7702D88169906AA06BB0608F46AC1E4
:1012D0008FEF9FEFDC01EE85FF8586879787A08BD8
:1012E000B18B1286138614861586B3E04B1609F06F
:1012F00015C11582ED59FF4F308120E0EE85FF8545
:10130000EE59FF4F808190E0822B932BA0E0B0E05C
:10131000A7019601280F391F4A1F5B1FAE85BF85A5
:1013200052962D933D934D935C935597BD016E5C02
:101330007F4F11968C9101E00E943702882309F0BB
:10134000EDC0EE85FF85EF5CFD4F308120E0EE853E
:10135000FF85E05DFD4F808190E0822B932BBAEA00
:1013600085359B0709F0DAC0EE85FF8545A950E079
:1013700060E070E0742F66275527442784A990E029
:10138000A0E0B0E0DC0199278827482B592B6A2B75
:101390007B2B82A990E0A0E0B0E0482B592B6A2B70
:1013A0007B2B93A980E0A0E0B0E0842B952BA62BAB
:1013B000B72B8235F2E59F07F1E6AF07F1E4BF07EF
:1013C00009F0ACC0EE85FF85E75EFD4F808190E0BF
:1013D000A0E0B0E0B82FAA2799278827EE85FF85DF
:1013E000E85EFD4F408150E060E070E0BA015527B3
:1013F0004427842B952BA62BB72BEE85FF85EA5E21
:10140000FD4F408150E060E070E0482B592B6A2B83
:101410007B2BEE85FF85E95EFD4F908180E0A0E0AB
:10142000B0E0842B952BA62BB72B823702E79007D1
:1014300001E4A00701E6B00709F070C0EE85FF8562
:10144000EF5DFD4F808190E0A0E0B0E0B82FAA27CB
:1014500099278827EE85FF85E05EFD4F408150E0AB
:1014600060E070E0BA0155274427842B952BA62B0A
:10147000B72BEE85FF85E25EFD4F408150E060E0D6
:1014800070E0482B592B6A2B7B2BEE85FF85E15EA4
:10149000FD4F908180E0A0E0B0E0842B952BA62B3F
:1014A000B72BEE85FF8582879387A487B587E35E98
:1014B000FD4F808190E0A0E0B0E0B82FAA279927E7
:1014C0008827EE85FF85E45EFD4F408150E060E0B7
:1014D00070E0BA0155274427842B952BA62BB72BF8
:1014E000EE85FF85E65EFD4F408150E060E070E0F4
:1014F000482B592B6A2B7B2BEE85FF85E55EFD4F34
:10150000908180E0A0E0B0E0842B952BA62BB72B38
:10151000EE85FF8586879787A08BB18BAE85BF85CB
:101520004C9280912E0190912F01019690932F0162
:1015300080932E0117969C938E931697FD0116A605
:1015400017A610AA11AA148256961D921D921D92DA
:101550001C92599780E027C08BE025C08CE023C007
:1015600080E021C08AE01FC083E01DC08AE01BC06C
:101570008DE019C081E017C08DE015C08DE013C06B
:101580008DE011C08DE00FC08DE00DC08DE00BC06F
:101590008DE009C08DE007C08DE005C08DE003C07F
:1015A0008DE001C08DE02F960FB6F894DEBF0FBE20
:1015B000CDBFDF91CF911F910F91FF90EF90DF9002
:1015C000CF90BF90AF909F908F907F906F905F90E3
:1015D0004F903F902F900895B901A8014E5F5F4F43
:1015E0006F4F7F4FEE85FF85428F538F648F758FCE
:1015F00089819A81AB81BC818C0D9D1DAE1DBF1D63
:1016000082A793A7A4A7B5A78E819F81A885B98536
:101610008C0D9D1DAE1DBF1D82A393A3A4A3B5A3D6
:101620000F2EF3E04F2EF02DC8CD4F925F926F92A8
:101630007F928F929F92AF92BF92CF92DF92EF9262
:10164000FF920F93CF935C012A013B01FC01C6A4DA
:10165000D7A4E0A8F1A8C416D506E606F70609F453
:1016600054C084818823D1F10F2EF2E38F2E992468
:10167000F02D8A0C9B1C8181B401A701960101E029
:101680000E948D02882309F042C0F5011482468D24
:10169000578D60A171A182A193A1A4A1B5A1840FCE
:1016A000951FA61FB71FC816D906EA06FB06B0F499
:1016B000C381C23098F0F501868D978DA0A1B1A1AC
:1016C000C80ED91EEA1EFB1E8181B401A701960136
:1016D00001E00E948D02C150C13069F741145104EC
:1016E00061047104B1F0B5016E5C7F4FF501818139
:1016F000A301920101E00E943702882361F4F50101
:1017000046A657A660AA71AA07C080E005C081E07E
:1017100003C080E001C081E0CF910F91FF90EF9076
:10172000DF90CF90BF90AF909F908F907F906F9001
:101730005F904F900895EF92FF920F931F93CF9376
:101740007C0140E050E0BA010E94150BC82F8823AD
:1017500009F076C0F7018081833009F068C0858187
:10176000882309F464C016A617A610AA11AA870137
:101770000E5C1F4FC80160E070E040E052E00E9444
:101780001D05F701E05DFD4F85E58083F701EF5C06
:10179000FD4F8AEA808382E5F70182AB83AB81E665
:1017A00084AB91E495ABEA5EFD4F22E72083F7011D
:1017B000E95EFD4F2083F701E85EFD4F9083F7015E
:1017C000E75EFD4F8083F701368527859089818903
:1017D000E65EFD4F3083F701E55EFD4F2083F701A4
:1017E000E45EFD4F9083F701E35EFD4F8083F701D8
:1017F0003285238594858585E25EFD4F3083F70130
:10180000E15EFD4F2083F701E05EFD4F9083F7011D
:10181000EF5DFD4F8083F701228933894489558923
:101820008181B80101E00E948D02F7011582F70164
:10183000818160E040E050E00E9400038111C1E03E
:101840008C2FCF911F910F91FF90EF90089560E042
:1018500070E0CB0108950F931F93CF93DF93EC01BA
:10186000DB01CA010297A109B1094A8D5B8D6C8D1C
:101870007D8D425050406040704084179507A60708
:10188000B70798F42A8130E040E050E0BC01CD0178
:101890000E941E248B019C018AA59BA5ACA5BDA519
:1018A000080F191F2A1F3B1F03C000E010E098011A
:1018B000602F712F822F932FDF91CF911F910F9166
:1018C0000895BF92CF92DF92EF92FF920F931F93F2
:1018D000CF93DF93EC016A017B0142305105610532
:1018E000710508F4CFC08A8D9B8DAC8DBD8D4817D6
:1018F00059076A077B0708F0CAC08881823009F45B
:101900005CC0833009F47BC0813009F0C5C09A0106
:10191000369527958901040F151FA801452F5527D6
:10192000469560E070E08AA19BA1ACA1BDA1480FE3
:10193000591F6A1F7B1FCE010E94150B882309F0D7
:10194000AFC0F801F170EC0FFD1FB2A80F5F1F4F81
:10195000A801452F5527469560E070E08AA19BA11C
:10196000ACA1BDA1480F591F6A1F7B1FCE010E9469
:10197000150B882309F098C02B2D30E0F801F17089
:10198000EC0FFD1F92A980E0822B932B21E0C22255
:10199000DD24C114D10451F0929582958F7089276E
:1019A0009F7089278C0120E030E089C08C0120E005
:1019B00030E01F702070307082C0452F562F672F87
:1019C00077278AA19BA1ACA1BDA1480F591F6A1F0F
:1019D0007B1FCE010E94150B882309F069C0F60118
:1019E000EE0FFF1FF170CE0FDF1F9BA980E00AA949
:1019F00010E0802B912B8C0120E030E060C06894D7
:101A000016F876956795579547951694D1F78AA15C
:101A10009BA1ACA1BDA1480F591F6A1F7B1FCE011E
:101A20000E94150B882309F047C0F601EE0FFF1F37
:101A3000EE0FFF1FF170CE0FDF1F0DA910E020E0A9
:101A400030E0302F2227112700278CA990E0A0E05A
:101A5000B0E0DC0199278827082B192B2A2B3B2B78
:101A60008AA990E0A0E0B0E0082B192B2A2B3B2B91
:101A70009BA980E0A0E0B0E0082B192B2A2B3B2B80
:101A80003F701DC001E010E020E030E018C001E030
:101A900010E020E030E013C00FEF1FEF98010FC0FF
:101AA0000FEF1FEF98010BC00FEF1FEF980107C05A
:101AB0000FEF1FEF980103C00FEF1FEF9801602F8A
:101AC000712F822F932FDF91CF911F910F91FF9054
:101AD000EF90DF90CF90BF900895EF92FF920F9319
:101AE0001F93CF93DF93EC018B017D836C834E8139
:101AF0005F8168857985413051056105710509F47B
:101B00009FC0E881F981828D938DA48DB58D481792
:101B100059076A077B0708F095C041155105610513
:101B2000710569F58081833049F446A157A160A50C
:101B300071A5411551056105710509F51A861B86C8
:101B40001C861D86808591850817190708F07CC0C2
:101B5000C801929582958F7089279F708927AC0163
:101B600060E070E086A197A1A0A5B1A5840F951FA4
:101B7000A61FB71F8E879F87A88BB98B4EC0828107
:101B800090E07C01EE0CFF1CEE0CFF1CEE0CFF1C29
:101B9000EE0CFF1C0E151F0528F1888199810E940B
:101BA000610CAB01BC014F3F8FEF58078FEF680707
:101BB0008FEF780709F44AC042305105610571057D
:101BC00008F446C0E881F981828D938DA48DB58D8E
:101BD000481759076A077B07E8F50E191F090E1504
:101BE0001F05D8F64A875B876C877D878881998136
:101BF0000E942B0CAB01BC01C801929582958F709D
:101C000089279F708927A0E0B0E0840F951FA61F49
:101C1000B71F8E879F87A88BB98B88819981C296C1
:101C20000F701070000F111F02951295107F102772
:101C3000007F1027800F911F9B8B8A8B80E00BC049
:101C400082E009C082E007C082E005C081E003C0F5
:101C500082E001C082E0DF91CF911F910F91FF9050
:101C6000EF900895CF93DF93EC016C817D810E940A
:101C70006D0D882391F44E855F8568897989888107
:101C800099810E94150B882341F4EA89FB8995EE1E
:101C90009083E881F98191E09483DF91CF91089559
:101CA0008F929F92AF92BF92CF92DF92EF92FF926C
:101CB0000F931F93CF93DF93EC016A017B014801DF
:101CC0005901423051056105710508F4CAC08A8D79
:101CD0009B8DAC8DBD8D481759076A077B0708F0AF
:101CE000C2C08881823009F46AC0833009F482C09E
:101CF000813009F0B2C09A01369527958901040F09
:101D0000151FA801452F5527469560E070E08AA170
:101D10009BA1ACA1BDA1480F591F6A1F7B1FCE011B
:101D20000E94150B882309F099C0C8019170E1E069
:101D3000CE22DD24C114D10451F0FE01E80FF91FB9
:101D400022A92F70382D3295307F232B01C0282DEA
:101D5000FE01E80FF91F22AB0F5F1F4F81E08C835C
:101D6000A801452F5527469560E070E08AA19BA108
:101D7000ACA1BDA1480F591F6A1F7B1FCE010E9455
:101D8000150B882309F06AC01170C114D10449F001
:101D9000689413F8B694A794979487941694D1F7FF
:101DA00009C0FE01E00FF11F22A9207F992D9F702D
:101DB000822E892A0C0F1D1FF80182AA4FC0452FC1
:101DC000562F672F77278AA19BA1ACA1BDA1480FF1
:101DD000591F6A1F7B1FCE010E94150B882309F033
:101DE0003DC0F601EE0FFF1FF170EC0FFD1F82AA40
:101DF00093AA34C0689416F87695679557954795D9
:101E00001694D1F78AA19BA1ACA1BDA1480F591F7F
:101E10006A1F7B1FCE010E94150B8823F9F49601DF
:101E2000220F331F220F331F3170FE01E20FF31F09
:101E300045A950E060E070E0742F662755274427DD
:101E4000407050706070707F482959296A297B2939
:101E500042AB53AB64AB75AB01C082E091E09C83B5
:101E600003C082E001C082E0DF91CF911F910F910A
:101E7000FF90EF90DF90CF90BF90AF909F908F90AA
:101E800008952F923F924F925F926F927F928F921E
:101E90009F92AF92BF92CF92DF92EF92FF920F93F9
:101EA0001F93CF93DF9300D000D0CDB7DEB71C01D6
:101EB00049835A836B837C83411551056105710504
:101EC000C1F4DC011A968D909D90AD90BC901D9749
:101ED00081149104A104B10451F15A968D919D9100
:101EE0000D90BC91A02D88169906AA06BB0620F578
:101EF00027C049815A816B817C810E94610C8B01D2
:101F00009C01623071058105910508F4ADC0F101B5
:101F1000828D938DA48DB58D081719072A073B076D
:101F200008F4B6C089809A80AB80BC8009C0882440
:101F300099245401839404C08824992454018394DF
:101F400075016401442455243201689441F80894D1
:101F5000C11CD11CE11CF11CF101828D938DA48D5B
:101F6000B58DC816D906EA06FB0648F0F2E08F16D2
:101F70009104A104B10408F47CC073016201C101A1
:101F8000B701A6010E94610C8B019C0161157105CE
:101F900081059105A9F00F3F8FEF18078FEF2807F4
:101FA0008FEF380709F474C00130110521053105A0
:101FB00009F46EC0C814D904EA04FB0441F65DC0FC
:101FC0008C2C4D2CBE2CAF2CC1014C2D5D2D6E2DBB
:101FD0007F2D0FEF1FEF2FEF3FE00E94500E882361
:101FE000E9F589819A81AB81BC810097A105B10592
:101FF00069F0C10149815A816B817C810C2D1D2DB5
:102000002E2D3F2D0E94500E882341F5D1011A96A6
:102010008C921A971B964C921B971C96BC921C97FD
:102020001D96AC921D971E968D919D910D90BC9121
:10203000A02D8F3FEFEF9E07EFEFAE07EFEFBE074C
:1020400001F10197A109B109F10186879787A08B5A
:10205000B18B81E08583970186011AC08130A1F49C
:102060000FEF1FEF980114C001E010E020E030E016
:102070000FC000E010E098010BC000E010E09801F4
:1020800007C09701860104C001E010E020E030E0C5
:10209000602F712F822F932F0F900F900F900F9022
:1020A000DF91CF911F910F91FF90EF90DF90CF9034
:1020B000BF90AF909F908F907F906F905F904F9068
:1020C0003F902F9008958F929F92AF92BF92CF92A0
:1020D000DF92EF92FF920F931F93CF93DF938C01C8
:1020E000EB01DC011496ED90FC9015970894E11C2F
:1020F000F11CE114F10409F409C11E968D919D9122
:102100000D90BC91A02D0097A105B10509F400C167
:102110000F2EFFE0CF2EDD24F02DCE20DF20C114C6
:10212000D10409F0D8C00196A11DB11DF801868720
:102130009787A08BB18B4285538564857585411542
:1021400051056105710551F40190F081E02D808504
:102150009185E816F90608F0DDC0BDC00190F08158
:10216000E02D828190E001979701329522952F70A2
:1021700023273F70232782239323009709F0ABC0C6
:10218000CF010E94610C4B015C0162307105810539
:10219000910508F4C1C06F3FEFEF7E07EFEF8E07A8
:1021A000EFEF9E0709F4BAC0D801ED91FC91828D42
:1021B000938DA48DB58D88169906AA06BB0608F4E2
:1021C00078C0209709F4ACC0D8011A964D915D9162
:1021D0006D917C911D97CF010E94410F4B015C01D5
:1021E000611571058105910509F49CC06130710587
:1021F0008105910509F498C06F3FEFEF7E07EFEF7F
:102200008E07EFEF9E0709F491C0D8018D919C9144
:1022100040E050E0BA010E94150B882309F088C005
:10222000F80180819181C29660E070E040E052E068
:102230000E941D05D801CD91DC91CE01B501A4010C
:102240000E942B0CDC01CB018EA79FA7A8ABB9ABDA
:10225000C0E0D1E01BC0D483F8018081918140E0CF
:1022600050E0BA010E94150B882309F063C0D80121
:10227000ED91FC9186A597A5A0A9B1A90196A11DF4
:10228000B11D86A797A7A0ABB1ABCF5FD801ED91E9
:10229000FC9111978281C817F0F286A597A5A0A995
:1022A000B1A98C1B9109A109B10986A797A7A0AB79
:1022B000B1ABF80182869386A486B5868081918130
:1022C000B501A4010E942B0CDC01CB01F80186872B
:1022D0009787A08BB18BD8011596FC92EE9214973C
:1022E0008D919C911197C296CC0CDD1CCC0CDD1C01
:1022F000CC0CDD1CCC0CDD1CCC0CDD1C8C0D9D1D18
:1023000053969C938E93529780E015C084E013C03F
:1023100084E011C084E00FC082E00DC081E00BC0FA
:1023200084E009C087E007C082E005C081E003C007
:1023300081E001C081E0DF91CF911F910F91FF906B
:10234000EF90DF90CF90BF90AF909F908F900895C7
:102350002F923F924F925F926F927F928F929F92B5
:10236000AF92BF92CF92DF92EF92FF920F931F93A3
:10237000CF93DF9300D000D000D0CDB7DEB78C0173
:102380005B01DB018C918F3211F08C3549F408949C
:10239000A11CB11CF80116821782108611860CC090
:1023A000D801ED91FC9186899789A08DB18DF801B6
:1023B00086839783A087B187D5018C91803250F4B2
:1023C000C80160E070E00E946D0D482FF801138A8B
:1023D000128A6BC10F2EFBE06F2E7724F02DEE24B6
:1023E000FF2444245524689443F8882449825A825F
:1023F0006B827C820F2EF3E02F2E3324F02DF5011B
:102400009F0181918F32E1F38C35D1F33E832D838F
:10241000D8015496CD90DC905597C60160E270E0EB
:10242000A3010E941D05ED81FE8180818E3249F558
:10243000EEE2D601EC93AD81BE8111962C911197FD
:102440002E3249F4F601818312962C9112972E3286
:1024500049F0C10102C082E090E02F3241F02C35FA
:1024600031F001C0C101213208F00EC138C1AD8088
:10247000BE80A80EB91E80E2D6011B968C931B97D6
:102480003BC1B701A701D201982CED81FE81E40F79
:10249000F51F20815A010894A11CB11C213208F4B7
:1024A00069C02F3209F421C12C3509F41EC12E3226
:1024B00019F06A177B0778F0A830B10509F0E6C07B
:1024C0002E3209F0E5C0990C990CA50169817A8139
:1024D000AB81BC81DACF222314F4F3E09F2A822F50
:1024E00081588F3118F08F558D31E8F4ED81FE81E0
:1024F000EA0DFB1D3081832F80548F3320F08054F0
:102500008D3708F0C7C0CD0101976817790708F02B
:10251000C3C04E5F5F4FF601E60FF71F2083318384
:102520006E5F7F4FB2CF422F50E04232510509F427
:10253000B5C0E2E0F1E08191882331F090E04817E6
:102540005907C9F746E0B1C0822F81548A3118F487
:10255000F2E09F2A07C0822F81568A3118F481E069
:10256000982A2052F601E60FF71F20836F5F7F4FF6
:10257000A5018BCFED81FE81AE0EBF1E892D44E0FB
:102580006115710509F48CC0F6019081953E11F436
:1025900095E09083A830B10519F4982E990C990C08
:1025A000892D90E09C01237030702130310509F4B1
:1025B00040618C7090708430910509F44860D601B8
:1025C0001B964C931B9798C0F801468557856089E8
:1025D0007189808191810E94150B882341F5D80172
:1025E00052964D915C915397FA019081992309F489
:1025F00092C0938593FD13C054966D917C9155972D
:102600009A01255F3F4FDB016A01482F04C0E217A2
:10261000F30709F47AC091918D919817C1F3C8011D
:10262000B7010E946310882379F2482F01C0482F18
:10263000D8015496ED91FC91559783854430A9F5C6
:1026400085FF0BC0F8011682178210861186138A47
:10265000128A82FFD4CE40E028C082FF23C044E02B
:1026600024C01B968C911B9784FF1EC0F8018081AB
:102670009181BD010E942705DC01CB01F801868311
:102680009783A087B187BBCE46E00FC046E00DC060
:1026900046E00BC046E009C046E007C046E005C082
:1026A00046E003C045E001C045E0842F26960FB602
:1026B000F894DEBF0FBECDBFDF91CF911F910F9178
:1026C000FF90EF90DF90CF90BF90AF909F908F9052
:1026D0007F906F905F904F903F902F900895AD80C6
:1026E000BE80A80EB91E84E2C7CE8D819E81A80E41
:1026F000B91E892D482D44CFC801B7010E946D0D28
:10270000482F882309F460CF93CFD601FB0183853E
:1027100082FFA7CFCACFD8015496ED91FC9155976F
:1027200083858ECFEF92FF920F931F93CF938C01EF
:1027300060E070E00E946D0DC82F8823D9F5D801A4
:102740001E964D915D916D917C9151978D919C91CB
:102750000E94150BC82F882369F5D8015296ED9178
:10276000FC9153978081853E61F1882351F1C80126
:1027700061E070E00E946310C82F882301F31AC043
:10278000F801E288F388C70160E070E040E250E0C1
:102790000E941D05D80154966D917C915597C701F3
:1027A0004BE050E00E941005D801ED91FC9111978B
:1027B00081E084838C2FCF911F910F91FF90EF9038
:1027C0000895F801468557856089718980819181D6
:1027D0000E94150BC82F882369F7D2CFCF93DF93C0
:1027E000EC0184E017C0888199810E94150B882331
:1027F000E1F4EA89FB8990819923F1F0953E19F083
:10280000938593FF16C0CE0160E070E00E946310D4
:10281000882359F44E855F8568897989411551056A
:102820006105710501F7882321F01E861F86188A2D
:10283000198ADF91CF91089584E0F7CF7F928F922C
:102840009F92AF92BF92CF92DF92EF92FF920F933F
:102850001F93CF93DF93EC014A015B014230510596
:102860006105710508F455C08A8D9B8DAC8DBD8DB9
:10287000481759076A077B0708F04DC003C0460197
:10288000570102C077247394CE01B501A4010E94C0
:10289000610C6B017C016115710581059105E9F100
:1028A00091E0C916D104E104F104C9F18FEFC81613
:1028B0008FEFD8068FEFE8068FEFF80691F1CE0183
:1028C000B501A40100E010E098010E94500E882399
:1028D00049F54E855F85688979894F3F9FEF590794
:1028E0009FEF69079FEF790749F04F5F5F4F6F4F89
:1028F0007F4F4E875F87688B798B7D824A8D5B8D9A
:102900006C8D7D8DC416D506E606F70608F4B7CFA4
:1029100009C082E007C082E005C080E003C082E019
:1029200001C081E0DF91CF911F910F91FF90EF9057
:10293000DF90CF90BF90AF909F908F907F90089541
:10294000882391F4E0912B01F0912C01309709F04C
:1029500010826115710511F0FB01108270932C013A
:1029600060932B0180E008958BE008954F925F9271
:102970006F927F928F929F92AF92BF92CF92DF928F
:10298000EF92FF920F931F93CF93DF93CDB7DEB7F4
:10299000A4970FB6F894DEBF0FBECDBF7C017CA319
:1029A0006BA3009709F4EAC0FC0111821082042F86
:1029B0000F714E71CE018396BE016F5F7F4F0E94F3
:1029C000A406182F882309F0DAC0CE0147969E8B03
:1029D0008D8B6BA17CA1CE0101960E94A811CB88A2
:1029E000DC88882321F4C114D10409F486E0402F47
:1029F00050E09A012C7130702115310509F45BC04B
:102A0000882371F0843009F0B7C0CE0101960E948E
:102A10009213CB88DC88882309F0AEC0086007C019
:102A2000F6018385817109F0C2C002FDC2C003FFB7
:102A3000C6C00E94270CF60166877787808B918B32
:102A40001386148E158E168E178E89819A81B60183
:102A50000E9427054B015C01C60140E050E0BA012D
:102A60000E944C05E981FA8181E0848381149104FC
:102A7000A104B10409F4A3C046A457A460A871A896
:102A8000CF01B501A4010E941E14882309F074C06F
:102A9000E981FA81D501C4010197A109B1098287B1
:102AA0009387A487B587CF01B301A2010E94150BBC
:102AB000882369F061C0882309F05EC0F601838530
:102AC00084FD79C001FF7BC080FD77C078C00062C3
:102AD000A980BA80F50186A597A5A0A9B1A9F7019B
:102AE000828F938FA48FB58FD78EC68E0483C50136
:102AF000B6010E942705DC01CB01F7018687978785
:102B0000A08BB18BF601878D90E0A0E0B0E0782F2C
:102B1000662755274427868D90E0A0E0B0E0DC01D1
:102B200099278827482B592B6A2B7B2B848D90E083
:102B3000A0E0B0E0482B592B6A2B7B2B958D80E0D1
:102B4000A0E0B0E0842B952BA62BB72BF701828752
:102B50009387A487B5871682178210861186168AF6
:102B6000178A108E118EB182A082F501868197811D
:102B7000F7019383828303C0182F01C019E0812FCE
:102B8000A4960FB6F894DEBF0FBECDBFDF91CF91F4
:102B90001F910F91FF90EF90DF90CF90BF90AF907B
:102BA0009F908F907F906F905F904F90089587E0F7
:102BB000E3CF88E0E1CF84E0DFCF87E0DDCF03FF24
:102BC00087CF85CF2F923F924F925F926F927F92E5
:102BD0008F929F92AF92BF92CF92DF92FF920F930C
:102BE0001F93CF93DF9300D000D000D0CDB7DEB7D6
:102BF0009E838D83062F172F6A011901D9011D921B
:102C00001C920E94E705F82E882309F0A0C1ED81EF
:102C1000FE81848188230CF492C180FF94C1828557
:102C20009385A485B5854681578160857185841B10
:102C3000950BA60BB70BA60160E070E08417950713
:102C4000A607B70708F46C01C114D10409F47FC1C9
:102C500009831A832D813E81205E3F4F3C832B8365
:102C6000AD81BE8116964D915D916D917C911997C4
:102C7000DB01CA019170A070B0700097A105B10589
:102C800009F01AC1AD81BE81ED91FC91DB01CA0151
:102C9000072E79E0B695A795979587957A95D1F700
:102CA000702D12811150182309F041C041155105B2
:102CB0006105710539F4ED81FE8186859785A089CE
:102CC000B1890DC0AD81BE8152964D915D916D91DE
:102CD0007C915597CF010E94610CDC01CB018230C1
:102CE0009105A105B10548F4ED81FE8184818068DC
:102CF0008483FF246894F1F82AC18F3FFFEF9F0778
:102D0000FFEFAF07FFEFBF0761F4AD81BE811496FF
:102D10008C911497806814968C931497FF24F394E5
:102D200016C1ED81FE81828B938BA48BB58BAD8117
:102D3000BE814D905C90119752964D915D916D9131
:102D40007C915597C2010E942B0CDC01CB010097AE
:102D5000A105B10549F4ED81FE81848180688483F9
:102D6000FF246894F1F8F3C04C015D01810E911CC1
:102D7000A11CB11C3601672C772466946114710480
:102D800009F44EC0D20112964C911297C301810FE3
:102D9000911D242F30E02817390720F4C9013C0188
:102DA000611A7108F201818169817A81A50194011A
:102DB000062D0E943702882361F0AD81BE811496F2
:102DC0008C911497806814968C931497FF24F39435
:102DD000BEC0ED81FE81848186FF1DC086899789F2
:102DE000A08DB18D88199909AA09BB09A30160E0DA
:102DF00070E084179507A607B70768F4982F88270F
:102E0000990F29813A81820F931F6B817C8140E069
:102E100052E00E9410058301102F0027110F6AC095
:102E2000AD81BE8156960D911D912D913C91599782
:102E3000081519052A053B05B9F114968C911497CC
:102E400086FF1CC0F20181816B817C81A901980100
:102E500001E00E948D02882361F0AD81BE8114964D
:102E60008C911497806814968C931497FF24F39494
:102E70006EC0ED81FE8184818F7B8483AD81BE81B4
:102E8000ED91FC9181816B817C81A501940101E030
:102E90000E943702882341F0ED81FE8184818068A1
:102EA0008483FF24F39453C0AD81BE8156968D92E6
:102EB0009D92AD92BC925997ED81FE8146815781DA
:102EC00060857185CA01917020E032E0281B390BC2
:102ED00086012C153D0508F48901BA017170605E08
:102EE0007F4F8D819E81680F791F89819A81A8010A
:102EF0000E941005A981BA81A00FB11FBA83A983CE
:102F0000A80160E070E0ED81FE8186819781A08557
:102F1000B185840F951FA61FB71F86839783A0874F
:102F2000B187D1018D919C911197800F911F1196BE
:102F30009C938E93C01AD10A09F092CE08C0FF2448
:102F40006894F1F804C00F2EF7E0FF2EF02D8F2DBE
:102F500026960FB6F894DEBF0FBECDBFDF91CF919E
:102F60001F910F91FF90DF90CF90BF90AF909F90F7
:102F70008F907F906F905F904F903F902F9008952B
:102F80002F923F924F925F926F927F928F929F9279
:102F9000AF92BF92CF92DF92EF92FF920F931F9367
:102FA000CF93DF9300D000D00F92CDB7DEB77C0176
:102FB000862E672E6A012901D9011D921C920E945A
:102FC000E705182F882309F0C6C1F70184818823FB
:102FD0000CF4BEC181FFBEC14285538564857585F1
:102FE000C601A0E0B0E0840F951FA61FB71F84178D
:102FF0009507A607B70708F490C1C114D10409F4D6
:103000008CC189826A829701205E3F4F3C832B836B
:10301000D70116964D915D916D917C911997DB01C9
:10302000CA019170A070B0700097A105B10509F0B8
:1030300030C1F70120813181DB01CA01072E79E01F
:10304000B695A795979587957A95D1F7702DF90143
:103050008280E82DE150E823ED83EE2309F04FC094
:103060004115510561057105B9F4F701868597850C
:10307000A089B1890097A105B105F9F4C90140E023
:1030800050E0BA010E94410FDC01CB01F7018687B5
:103090009787A08BB18B0CC0D70152964D915D9153
:1030A0006D917C915597C9010E94410FDC01CB01C4
:1030B0000097A105B10509F430C181309105A10542
:1030C000B10531F4F70184818068848312E043C143
:1030D0008F3FFFEF9F07FFEFAF07FFEFBF0751F4F1
:1030E000D70114968C911497806814968C9314973A
:1030F00011E031C1F701828B938BA48BB58BD70183
:1031000014968C91149786FF1EC0ED91FC91119737
:1031100056962D913D914D915C91599781816B818E
:103120007C8101E00E948D02882331F0F7018481C7
:103130008068848311E00FC1D70114968C91149795
:103140008F7B14968C93F7012080318042895389BC
:1031500064897589C1010E942B0CDC01CB010097A9
:10316000A105B10551F4D70114968C91149780688C
:1031700014968C93149712E0EEC04C015D01ED8122
:103180008E0E911CA11CB11C3601672C772466940D
:103190006114710409F44DC0D10112964C9112973B
:1031A000C3018E0F911D242F30E02817390720F41A
:1031B000C9013C016E1A7108D10111968C91698187
:1031C0007A81A5019401062D0E948D02882331F099
:1031D000F70184818068848311E0BDC0F70186898E
:1031E0009789A08DB18D88199909AA09BB09A301F6
:1031F00060E070E084179507A607B707B0F4BC013C
:10320000762F6627770F29813A81620F731F8B8192
:103210009C8140E052E00E941005D70114968C91E9
:1032200014978F7B14968C931497762C6624770CC6
:1032300051C0F70186899789A08DB18D88159905B0
:10324000AA05BB05F9F086819781A085B1854285E5
:1032500053856485758584179507A607B70790F48D
:10326000D10111968C916B817C81A501940101E0C3
:103270000E943702882331F0F701848180688483BB
:1032800011E069C0D70156968D929D92AD92BC9285
:103290005997F7014681578160857185CA01917000
:1032A00020E032E0281B390B36012C153D0508F4CF
:1032B0003901CA01917080968E0D9F1D69817A81B6
:1032C000A3010E941005D70114968C911497806475
:1032D00014968C93E981FA81E60DF71DFA83E98350
:1032E000A30160E070E0F70186819781A085B18538
:1032F000840F951FA61FB71F86839783A087B1876A
:10330000D2018D919C911197860D971D11969C93DA
:103310008E93C618D70809F07BCEF7018681978176
:10332000A085B18542855385648575854817590701
:103330006A077B0720F482879387A487B587D70124
:1033400014968C911497806214968C93149703C0F2
:1033500012E001C017E0812F0F900F900F900F9097
:103360000F90DF91CF911F910F91FF90EF90DF9021
:10337000CF90BF90AF909F908F907F906F905F9015
:103380004F903F902F9008950F931F93CF93DF930B
:10339000EC010E94E705882309F04CC09C8195FF51
:1033A00049C096FF12C0E881F981BE01605E7F4F7F
:1033B0002E893F89488D598D818101E00E948D02BF
:1033C0008823B9F58C818F7B8C834A8D5B8D6C8DC6
:1033D0007D8D888199810E94150B882359F50E8D6A
:1033E0001F8DF8018385806283878A85848F8B8512
:1033F000858F8C85868F8D85878F4E855F856889C3
:103400007989C8010E944C050E94270CF801668B3F
:10341000778B808F918F128A138A8C818F7D8C831A
:10342000E881F98181E08483888199810E949B0BE6
:1034300001C081E0DF91CF911F910F910895CF934B
:10344000DF93EC010E94C419882311F419821882B9
:10345000DF91CF910895882319F410922D010895DA
:103460008BE00895EF92FF921F93CF93DF93CDB738
:10347000DEB7A4970FB6F894DEBF0FBECDBF9CA3F6
:103480008BA3CE018396BE016F5F7F4F40E00E9409
:10349000A406182F882381F5CE0147969E8B8D8B2D
:1034A0006BA17CA1CE0101960E94A811182F882340
:1034B00001F5EB89FC89309759F4E981FA818F8114
:1034C0009885A985BA85868B978BA08FB18F14C0FC
:1034D000838584FF1EC0E980FA80C701BF010E9476
:1034E0002705DC01CB01F701868B978BA08FB18F6D
:1034F00003C0843009F415E0812FA4960FB6F89428
:10350000DEBF0FBECDBFDF91CF911F91FF90EF9037
:10351000089515E0F1CF2F923F924F925F926F92F4
:103520007F928F929F92AF92BF92CF92DF92EF9253
:10353000FF920F931F93CF93DF9300D000D000D062
:10354000CDB7DEB79E838D836A017B010E94E705BC
:10355000182F882309F0E6C1AD81BE8114962C9105
:10356000149722230CF4DDC11A968D919D910D9034
:10357000BC91A02D8C159D05AE05BF0520F421FD45
:1035800002C06C017D01ED81FE814681578160851D
:1035900071851682178210861186C114D104E10448
:1035A000F10409F4BFC120803180F101828190E0F3
:1035B000A0E0B0E04C015D01072E79E0880C991C79
:1035C000AA1CBB1C7A95D1F7702D411551056105D8
:1035D0007105F1F12A013B01089441085108610885
:1035E0007108C701B6016150704080409040A5014C
:1035F00094010E943D2429833A834B835C83C30159
:10360000B201A50194010E943D2489819A81AB8178
:10361000BC8182179307A407B507D0F088279927A4
:10362000DC0188199909AA09BB0984219521A621E1
:10363000B721ED81FE8186839783A087B187C81A61
:10364000D90AEA0AFB0A428953896489758942C00A
:10365000AD81BE811E964D915D916D917C9151978A
:10366000411551056105710569F5C10140E050E062
:10367000BA010E94410FAB01BC0141305105610507
:10368000710539F4ED81FE8184818068848312E0C4
:1036900049C14F3FFFEF5F07FFEF6F07FFEF7F0766
:1036A00059F4AD81BE8114968C911497806814965C
:1036B0008C93149711E036C1ED81FE8146875787C0
:1036C000608B718BAD81BE8152964D935D936D93EE
:1036D0007C935597411551056105710509F4AAC000
:1036E0008C149D04AE04BF0408F068C04D805E8059
:1036F000F201848181FF0CC0808191810E94410F81
:10370000AB01BC01411551056105710539F452C089
:10371000808191810E94610CAB01BC014F3FBFEFE2
:103720005B07BFEF6B07BFEF7B0741F45E824D8203
:10373000F20184818068848311E0F4C04230510535
:103740006105710560F0D201ED91FC91828D938D40
:10375000A48DB58D481759076A077B0740F05E8234
:103760004D82F20184818068848312E0DBC0D20143
:1037700052964D935D936D937C93559716968D91CC
:103780009D910D90BC91A02D880D991DAA1DBB1D6A
:10379000F20186839783A087B187C818D908EA0801
:1037A000FB088C149D04AE04BF0408F4A1CF5E8214
:1037B0004D8204C05E824D8275016401ED81FE81FF
:1037C00086819781A085B1858C0D9D1DAE1DBF1D85
:1037D00086839783A087B187D701C6019170A070B7
:1037E000B0700097A105B10549F1808191810E94D7
:1037F0002B0CDC01CB010097A105B10559F4AD817B
:10380000BE8114968C911497806814968C931497AB
:1038100012E088C046015701072E79E0B694A794BC
:10382000979487947A95D1F7702D880E991EAA1EC9
:10383000BB1E07C088249924540103C088249924FE
:103840005401ED81FE8186819781A085B1859170BB
:10385000A070B0700097A105B10509F44BC0C688EF
:10386000D788E08CF18CC814D904EA04FB0409F46D
:1038700041C0848186FF1FC00190F081E02D6D81E1
:103880007E81605E7F4F8181A701960101E00E94E9
:103890008D02882359F0AD81BE8114968C911497C6
:1038A000806814968C93149711E03CC0ED81FE81E2
:1038B00084818F7B8483AD81BE81ED91FC911197D2
:1038C000BD01605E7F4F8181A501940101E00E94EE
:1038D0003702882339F0ED81FE81848180688483FA
:1038E00011E020C0AD81BE8156968D929D92AD9221
:1038F000BC925997ED81FE8186819781A085B18523
:103900004285538564857585481759076A077B0783
:1039100048F482879387A487B587848180628483F3
:1039200001C012E0812F26960FB6F894DEBF0FBEBD
:10393000CDBFDF91CF911F910F91FF90EF90DF905E
:10394000CF90BF90AF909F908F907F906F905F903F
:103950004F903F902F900895EF92FF920F931F93F7
:10396000CF93DF93CDB7DEB72E970FB6F894DEBFB7
:103970000FBECDBF8C017E876D87009709F44CC0C8
:10398000CE010D96B80140E00E94A406D801ED904A
:10399000FC9011978823E1F5CE01019655969C93F2
:1039A0008E9354976D857E85C8010E94A811882347
:1039B00011F5D8015296ED91FC915397309771F023
:1039C000838584FF1BC0C701BF010E942705DC015E
:1039D000CB01F80186839783A087B187D70116961C
:1039E0008D919C911797F80193838283C80160E0C1
:1039F00070E00E946D0D843011F404C085E08823CE
:103A000061F001C085E0D80111961C921E9205C09C
:103A1000F8011182108201C089E02E960FB6F89449
:103A2000DEBF0FBECDBFDF91CF911F910F91FF90F1
:103A3000EF900895CF92DF92EF92FF921F93CF9372
:103A4000DF93CDB7DEB72C970FB6F894DEBF0FBE6D
:103A5000CDBF7C016B010E94E705182F882381F5FB
:103A6000C114D10439F4C70160E070E00E946D0D0B
:103A7000182F26C0CE010196F701958B848BC701C4
:103A80000E94EE13843031F4F70116861786108AEF
:103A9000118A02C0882389F4C701B6010E94550526
:103AA000C70160E070E00E946310843041F4F701C8
:103AB00016861786108A118A03C0182F01C0182F86
:103AC000812F2C960FB6F894DEBF0FBECDBFDF91CD
:103AD000CF911F91FF90EF90DF90CF900895EF92DC
:103AE000FF921F93CF93DF93CDB7DEB7A4970FB6A6
:103AF000F894DEBF0FBECDBF9CA38BA37B01CE018C
:103B00008396BE016F5F7F4F40E00E94A406182F8E
:103B10008823C1F4CE0147969E8B8D8B6BA17CA12F
:103B2000CE0101960E94A811182F882359F48B8981
:103B30009C89009731F0CE010196B7010E9455058E
:103B400001C016E0812FA4960FB6F894DEBF0FBE19
:103B5000CDBFDF91CF911F91FF90EF9008952F92ED
:103B60003F924F925F926F927F928F929F92AF920D
:103B7000BF92CF92DF92EF92FF920F931F93CF935A
:103B8000DF93CDB7DEB72C970FB6F894DEBF0FBE2C
:103B9000CDBF9A8389831B018A01CE010196BA01A8
:103BA00040E00E94A406B82ED8010D911C911197F7
:103BB000882309F002C1F80186859785A089B1891B
:103BC000C28CD38CE48CF58CB701A60142505040D6
:103BD00060407040481759076A077B0730F0F101D1
:103BE00080839183A283B383E8C0A080B1E0AB1649
:103BF000D9F5CC24DD2476016894C1F844245524F9
:103C00003201C801B701A6010E94610CDC01CB01A1
:103C10008F3FEFEF9E07EFEFAE07EFEFBE0709F420
:103C2000AEC081309105A105B10509F4ABC0009784
:103C3000A105B10529F40894411C511C611C711C9B
:103C40000894C11CD11CE11CF11CF801828D938DDC
:103C5000A48DB58DC816D906EA06FB0690F24686F5
:103C60005786608A718AA4C082A193A1A4A1B5A13C
:103C70008B839C83AD83BE83E0E0F0E020E030E006
:103C8000442455243201A8014E5C5F4F5A8749876E
:103C90003C862B8618010A2D21153105C9F4C10176
:103CA0004B815C816D817E810E94150B882309F018
:103CB0006DC08B819C81AD81BE810196A11DB11D1E
:103CC0008B839C83AD83BE83E985FA8520E032E057
:103CD0000230A1F4918198871F82808190E0AF81AA
:103CE000B8858A2B9B2B009729F40894411C511C02
:103CF000611C711C32962250304031C0838190E0AB
:103D0000A0E0B0E0782F662755274427828190E015
:103D1000A0E0B0E0DC0199278827482B592B6A2BBB
:103D20007B2B808190E0A0E0B0E0842B952BA62B2C
:103D3000B72B91808824A40160E070E0842B952B40
:103D4000A62BB72BBF700097A105B10529F40894E5
:103D5000411C511C611C711C349624503040089445
:103D6000C108D108E108F108C114D104E104F1044B
:103D700009F092CFA02E81012B843C840CC0BB247F
:103D8000B39409C0BB246894B1F805C0A02E81018A
:103D90002B843C84B82EF80146865786608A718A47
:103DA000F3E0AF1629F481E0D80115968C931597AE
:103DB000F10140825182628273828B2D2C960FB664
:103DC000F894DEBF0FBECDBFDF91CF911F910F9151
:103DD000FF90EF90DF90CF90BF90AF909F908F902B
:103DE0007F906F905F904F903F902F900895CF926B
:103DF000DF92EF92FF920F931F93CF93DF93EC012B
:103E0000009709F469C00E94E705882309F065C09E
:103E10009C81992324F091FD69C087E05EC082E017
:103E20005CC04A875B876C877D878C8180628C83CE
:103E3000411551056105710569F44E855F856889F5
:103E40007989888199810E941E141E861F86188A8E
:103E5000198A3CC04A895B896C897D8988819981EE
:103E60000E94610C6B017C0181E0C816D104E10461
:103E7000F10409F44AC081E09FEFC9169FEFD9060B
:103E80009FEFE9069FEFF90609F080E0882301F52E
:103E9000E881F981428D538D648D758DC416D506E8
:103EA000E606F706D0F44A895B896C897D89CF01E3
:103EB0000FEF1FEF2FEF3FE00E94500E882341F4D9
:103EC00088819981B701A6010E941E14882329F0D8
:103ED0009C8190689C8301C089E0DF91CF911F9104
:103EE0000F91FF90EF90DF90CF9008954E815F810A
:103EF000688579850A851B852C853D854017510786
:103F00006207730708F48DCFE8CF82E0E1CFCF924C
:103F1000DF92EF92FF921F93CF93DF93CDB7DEB77F
:103F2000EA970FB6F894DEBF0FBECDBF9AAF89AF48
:103F3000CE01C996BE016F5F7F4F41E00E94A4068B
:103F4000882309F061C0CE018D969E8B8D8B69AD63
:103F50007AADCE0101960E94A811882309F054C0C1
:103F6000ED89FE89838585FF5DC086E04DC0FB013C
:103F7000138510FF5EC087E047C086E045C0F2E0D1
:103F8000CF16D104E104F10408F45CC0CE014796D9
:103F9000BE016F5F7F4F46E150E00E941005CD8E5D
:103FA000DE8EEF8EF8A2CE01479662E070E00E94AE
:103FB0006D0D882349F5CE0147960E94EE138823A4
:103FC00071F0E981FA8146895789608D718D4C15B0
:103FD0005D056E057F0529F08430B1F115C087E0DD
:103FE00013C087E011C0C114D104E104F10441F011
:103FF00089819A81B701A6010E941E14882321F4A9
:1040000089819A810E949B0BEA960FB6F894DEBFD5
:104010000FBECDBFDF91CF911F91FF90EF90DF904A
:10402000CF9008956B897C896115710509F09FCF48
:10403000A4CF89819A810E9427056B017C0114FD20
:104040009ECF02C082E0E0CFCE0101960E94320EE8
:10405000882349F2D9CF2F923F924F925F926F926D
:104060007F928F929F92AF92BF92CF92DF92EF9208
:10407000FF920F931F93CF93DF93CDB7DEB7A8972F
:104080000FB6F894DEBF0FBECDBF9CA38BA30E94DA
:10409000270C6B017C01CE018396BE016F5F7F4FC1
:1040A00041E00E94A406182F882309F0EEC0CE013B
:1040B00047969E8B8D8B6BA17CA1CE0101960E94B1
:1040C000A811882349F0843041F4ED89FE89838565
:1040D00085FFF5C086E001C088E0182FD6C081E0DA
:1040E000481651046104710409F4F9C0EFEF4E164B
:1040F000EFEF5E06EFEF6E06EFEF7E0609F4F1C01C
:1041000001C017E0112309F0A0C089819A8140E025
:1041100050E0BA010E94150B182F882309F095C0B2
:1041200009811A81C801B301A2010E942B0C4B0125
:104130005C010F2EF2E32F2E3324F02D200E311EC2
:10414000C10160E070E040E052E00E941D05C10145
:1041500060E270E04BE050E00E941D058EE2F80145
:1041600082AB80E185AFCDA2E85BFF4FC0828D2D91
:1041700099278EA3F801E75BFF4F8083C701AA2729
:10418000BB278FA3F801E65BFF4F8083CF2CDD2494
:10419000EE24FF24C8A6F801E55BFF4FC082C101F1
:1041A000B301A2010E944C050F2EF2E5CF2EDD24B3
:1041B000F02DC00ED11EC601B10140E250E00E94B8
:1041C0001005F801ED5AFF4F8EE280834F8158852C
:1041D00069857A85E981FA818081833061F486A1DD
:1041E00097A1A0A5B1A584179507A607B70719F44D
:1041F00040E050E0BA01C6010E944C05E981FA8115
:104200000281002309F46FC0CC24C39489819A8170
:10421000FC0186A697A6A0AAB1AA0894811C911CAD
:10422000A11CB11CC48240E050E0BA010E94150BF1
:10423000182F882351F4C10160E070E040E052E0A3
:104240000E941D05015011F74EC089819A81B3016A
:10425000A2010E941E1419C0EB89FC8980E18387AA
:104260008DA1868B8EA1878B8FA1808F88A5818F52
:10427000CF01B301A2010E944C0589819A8121E0FE
:10428000FC0124830E949B0B182F812FA8960FB648
:10429000F894DEBF0FBECDBFDF91CF911F910F917C
:1042A000FF90EF90DF90CF90BF90AF909F908F9056
:1042B0007F906F905F904F903F902F9008958981ED
:1042C0009A8140E050E0BA010E94410F2B013C016D
:1042D000611571058105910509F413CF00CF12E036
:1042E000B4CF11E0B2CFCE0101960E949213182FE5
:1042F000882309F4B1CFA9CF0F931F93CF93DF93F6
:10430000CDB7DEB7A4970FB6F894DEBF0FBECDBF12
:104310009CA38BA3062F142FCE018396BE016F5F43
:104320007F4F41E00E94A406882329F5CE014796DD
:104330009E8B8D8B6BA17CA1CE0101960E94A81152
:104340008823C9F4ED89FE89838585FF1FC086E037
:1043500012C01772912F9095838589230123182FFE
:10436000102B138789819A8121E0FC0124830E940C
:104370009B0B01C086E0A4960FB6F894DEBF0FBE7B
:10438000CDBFDF91CF911F910F910895EB89FC89EB
:104390003097F9F6EFCF0F931F93CF93DF93CDB7FD
:1043A000DEB7A4970FB6F894DEBF0FBECDBF9CA3B7
:1043B0008BA38B01CE018396BE016F5F7F4F41E0DF
:1043C0000E94A406882361F5CE0147969E8B8D8BB3
:1043D0006BA17CA1CE0101960E94A811882301F552
:1043E000ED89FE89838585FF26C086E019C0D80146
:1043F00016968C911697868B17968C911797878BAC
:1044000014968C911497808F15968C91818F898149
:104410009A8121E0FC0124830E949B0B01C086E06D
:10442000A4960FB6F894DEBF0FBECDBFDF91CF913B
:104430001F910F910895EB89FC893097C1F6EFCF5A
:10444000EF92FF920F931F93CF93DF93CDB7DEB719
:10445000CF54D0400FB6F894DEBF0FBECDBF6096EC
:104460009FAF8EAF60978B01CE01825B9F4FBE01E5
:104470006F5F7F4F41E00E94A406882309F0B1C01E
:1044800089819A81988F8F8BCE018E5B9F4F9E8BF7
:104490008D8B60966EAD7FAD6097CE0101960E94C8
:1044A000A811882309F09DC0ED89FE89838585FFC9
:1044B000A6C086E096C0655F7F4FCE018D9645E130
:1044C00050E00E941005CE014796BE016F5F7F4FFE
:1044D00046E150E00E941005CE014796B8010E94C7
:1044E000A811882309F47AC0843009F07AC0CE017B
:1044F00047960E949213882309F073C009A51AA554
:10450000C8010D96BE01615D7F4F43E150E00E94FE
:1045100010058DA58062F8018387E980FA8081E02B
:10452000F70184834F81588569857A858D8D9E8DAD
:10453000AF8DB8A1481759076A077B0709F443C034
:10454000F801838584FF3FC0C701B8010E94270599
:10455000AB01BC01C7010E942B0CAB01BC01411592
:1045600051056105710509F451C0C7010E94150B81
:10457000E981FA818823A9F5DF01AD5ABF4F8C91FB
:104580008E3209F58081833069F44D8D5E8D6F8D9B
:1045900078A186A197A1A0A5B1A5481759076A07D8
:1045A0007B0729F04D8D5E8D6F8D78A103C040E0B3
:1045B00050E0BA01CF018E5A9F4F0E944C05E9810D
:1045C000FA8181E08483CE0101960E94320E882315
:1045D00041F489819A810E949B0B03C088E001C04D
:1045E00084E0C15BDF4F0FB6F894DEBF0FBECDBFD6
:1045F000DF91CF911F910F91FF90EF9008956B89FC
:104600007C896115710509F056CFEACF82E0E9CFC8
:10461000AF92BF92CF92DF92EF92FF920F931F93D0
:10462000CF93DF938FEF8093BA01C4EFD3E00DED0A
:1046300013E00F2EF0E1EF2EF1E0FF2EF02D0F2E04
:10464000FBEBCF2EF1E0DF2EF02D0F2EF2E1AF2E9F
:10465000F1E0BF2EF02D19C080E0BE010E94A01431
:104660008093BA01C801B7010E94AC1C8093BA01C3
:10467000C601B5014AE00E94B6148093BA018823AE
:1046800021F010922701109226018091BA0188230F
:1046900019F7DF91CF911F910F91FF90EF90DF906D
:1046A000CF90BF90AF900895CF93DF930E940823DF
:1046B000CBEBD1E0CE016BE171E04AE050E026EBBC
:1046C00031E00E94C0178093BA01CE010E941F1AE8
:1046D0008093BA0180E090E0DF91CF9108959093AC
:1046E000C5008093C400E1ECF0E088E1808386E0BF
:1046F0008093C20080818068808308958091320118
:104700000895E2E3F1E080818823E9F3909131019B
:10471000E0E3F1E0DF01A90FB11D13968C9113972F
:10472000F89422812150228378949F5F9F73909305
:1047300031010895E5E7F1E090819034E8F7909138
:104740007301E92FF0E0ED58FE4F8383F8948091D8
:1047500075018F5F8093750188EB8093C100789419
:104760009F5F9F739093730108951F920F920FB6EE
:104770000F920BB60F9211248F939F93AF93BF9319
:10478000EF93FF939091C60080913201803470F4D2
:104790008F5F80933201E0E3F1E08081DF01A80FB9
:1047A000B11D13969C938F5F8F738083FF91EF9160
:1047B000BF91AF919F918F910F900BBE0F900FBE45
:1047C0000F901F9018951F920F920FB60F920BB675
:1047D0000F9211242F933F938F939F93AF93BF9387
:1047E000EF93FF93809175018823B1F0282F21501A
:1047F00085E791E020937501FC0132910297DC017D
:10480000A30FB11D13968C9113978093C6003F5F41
:104810003F733083222319F488E98093C100FF910C
:10482000EF91BF91AF919F918F913F912F910F90F9
:104830000BBE0F900FBE0F901F901895629FD00176
:10484000739FF001829FE00DF11D649FE00DF11D4B
:10485000929FF00D839FF00D749FF00D659FF00DFA
:104860009927729FB00DE11DF91F639FB00DE11DE7
:10487000F91FBD01CF0111240895A1E21A2EAA1B30
:10488000BB1BFD010DC0AA1FBB1FEE1FFF1FA21700
:10489000B307E407F50720F0A21BB30BE40BF50BFD
:1048A000661F771F881F991F1A9469F76095709586
:1048B000809590959B01AC01BD01CF010895F894BE
:0248C000FFCF28
:1048C20001222A2B2C3A3B3C3D3E3F5B5D7C7F0024
:1048D2002F002F6774322E7478740068656C6C6FC9
:0848E200776F726C64000100A5
:00000001FF
