:100000000C9446000C9465000C9465000C946500FB
:100010000C9465000C9465000C9465000C946500CC
:100020000C9465000C9465000C9465000C946500BC
:100030000C9465000C9465000C9465000C946500AC
:100040000C9465000C9465000C9465000C9465009C
:100050000C9465000C9465000C9465000C9465008C
:100060000C9465000C9465000C9465000C9465007C
:100070000C9465000C9465000C9465000C9465006C
:100080000C9465000C9465000C94650011241FBE4F
:10009000CFEFD0E4DEBFCDBF11E0A0E0B1E0ECE6F1
:1000A000F1E000E00BBF02C007900D92A030B10755
:1000B000D9F711E0A0E0B1E001C01D92A030B10776
:1000C000E1F70E9493000C94B4000C9400008FE3BD
:1000D0009DE0A3E081509040A040E1F700C0000007
:1000E00081E090E008956115710571F44BB121E054
:1000F00030E0B90102C0660F771F8A95E2F7CB01A5
:10010000809584238BB90CC04BB121E030E0B9015C
:1001100002C0660F771F8A95E2F7CB01842B8BB95B
:1001200081E090E0089580E68AB986E090E061E0A1
:1001300070E00E9473008FE39DE0A3E08150904047
:10014000A040E1F700C0000086E090E060E070E0D1
:100150000E9473008FE39DE0A3E081509040A04097
:0C016000E1F700C00000E1CFF894FFCFF1
:00000001FF
