:100000000C9446000C9465000C9465000C946500FB
:100010000C9465000C9465000C9465000C946500CC
:100020000C9465000C9465000C9465000C946500BC
:100030000C9465000C9465000C9465000C946500AC
:100040000C9465000C9465000C9465000C9465009C
:100050000C9465000C9465000C9465000C9465008C
:100060000C9465000C9465000C9465000C9465007C
:100070000C9465000C9465000C9465000C9465006C
:100080000C9465000C9465000C94650011241FBE4F
:10009000CFEFD0E4DEBFCDBF11E0A0E0B1E0E8E5F6
:1000A000F4E400E00BBF02C007900D92AE31B1073F
:1000B000D9F713E0AEE1B1E001C01D92A53CB10754
:1000C000E1F70E94D51D0C942A220C9400004115E2
:1000D000510549F0A62FB72FE82FF92F8D91819365
:1000E00041505040D9F708954115510531F0E82F9E
:1000F000F92F619341505040E1F70895EF92FF923C
:100100000F931F93CF93DF93FC017B018B01075F5C
:100110001F4F86859785A089B1890097A105B105F4
:1001200009F465C0C289D3892881203299F0DE01A3
:100130001196F80180E090E035EE03C02D91203259
:1001400049F0253009F4232F21938F01019688303F
:100150009105A1F78885803281F08EE2F8018083D5
:100160008885803209F04CC00F5F1F4F06C08C019C
:1001700004C0F80123830C5F1F4F8B85F701808734
:100180008F8D90E0A0E0B0E0B82FAA2799278827AC
:100190004E8D50E060E070E0BA0155274427482BAF
:1001A000592B6A2B7B2B8C8D90E0A0E0B0E0482B84
:1001B000592B6A2B7B2B9D8D80E0A0E0B0E0842B37
:1001C000952BA62BB72B80839183A283B383398D84
:1001D00020E0888D90E0822B932B958384839F89E8
:1001E00080E02E8930E0822B932B97838683F80161
:1001F0001082DF91CF911F910F91FF90EF900895A2
:10020000F8018183C80102962985203209F4AFCF15
:100210002283C80103962A85203209F0AACFA7CFEE
:10022000009781F0FC012081222371F02681378123
:100230002617370759F481810E94911F80FF08C05B
:1002400083E0089589E0089589E0089589E008959C
:1002500080E008950F931F93CF93DF93EC019A01F1
:10026000AB01BC01625D7F4F898101E010E00E941B
:100270006320882309F083C0FE01E35DFD4F908178
:1002800080E0FE01E45DFD4F208130E0822B932B66
:100290002AEA8535920709F074C0FE01E959FF4F3B
:1002A000808190E0A0E0B0E0B82FAA2799278827A6
:1002B000FE01EA59FF4F408150E060E070E0BA0172
:1002C00055274427482B592B6A2B7B2BFE01EC59D1
:1002D000FF4F808190E0A0E0B0E0482B592B6A2BC3
:1002E0007B2BFE01EB59FF4F908180E0A0E0B0E056
:1002F000482B592B6A2B7B2B7070463481E45807AE
:1003000084E5680780E07807F1F1FE01ED57FF4FC3
:10031000808190E0A0E0B0E0B82FAA279927882735
:10032000FE01EE57FF4F408150E060E070E0BA01FF
:1003300055274427482B592B6A2B7B2BFE01E0586D
:10034000FF4F808190E0A0E0B0E0482B592B6A2B52
:100350007B2BCF57DF4F988180E0A0E0B0E0482BA7
:10036000592B6A2B7B2B707081E0463491E459073E
:1003700094E5690790E0790739F480E005C083E0EF
:1003800003C082E001C080E0DF91CF911F910F9107
:1003900008952F923F924F925F926F927F928F9229
:1003A0009F92AF92BF92CF92DF92EF92FF920F9304
:1003B0001F93CF93DF93CDB7DEB760970FB6F89456
:1003C000DEBF0FBECDBFDC01042FED91FC91119774
:1003D000808190E0C0978A30910550F421812A33C2
:1003E00039F432961196FC93EE93009709F099C375
:1003F000E0901E01F0901F01DB011196FC92EE923D
:10040000E114F10409F48FC3F7018081882361F0BE
:1004100081810E94911F80FD07C0002309F485C3DC
:1004200082FD85C380E0A4C3D7011C9211961C9263
:1004300080E00E94981F80FD7CC3002311F082FDA4
:100440007AC3C70140E050E0BA010E942A0181301E
:10045000E9F5F701E051FE4F8081882309F46DC36F
:10046000F701E950FE4F808190E0A0E0B0E0B82FA6
:10047000AA2799278827F701EA50FE4F408150E0CC
:1004800060E070E0BA0155274427842B952BA62BFA
:10049000B72BF701EC50FE4F408150E060E070E078
:1004A000482B592B6A2B7B2BF701EB50FE4F908189
:1004B00080E04C01AA24BB24842A952AA62AB72AC4
:1004C000C701B501A4010E942A0103C08824992410
:1004D0005401833009F433C3882309F032C3F70190
:1004E00092AD80E021AD30E0822B932BF2E08030A2
:1004F0009F0709F028C3F701EB5BFF4F308120E035
:10050000F701EC5BFF4F808190E0822B932B2C0155
:1005100066247724411451046104710489F5F701BC
:10052000EB5AFF4F408150E060E070E0742F662787
:1005300055274427F701EC5AFF4F808190E0A0E057
:10054000B0E0DC0199278827482B592B6A2B7B2B9D
:10055000F701EE5AFF4F808190E0A0E0B0E0482B19
:10056000592B6A2B7B2BF701ED5AFF4F908180E0CE
:10057000A0E0B0E02A013B01482A592A6A2A7B2AD6
:10058000D7015A964D925D926D927C925D97DE9660
:10059000CC90DE971396CC9213978C2D815082309D
:1005A00008F0D3C2DB96DC90DB971296DC921297B0
:1005B000DD2009F4CCC28D2D90E09C01215030400B
:1005C00082239323009709F0C4C2F701E05CFF4F38
:1005D000308120E0F70187AD90E01901282A392AFF
:1005E00031862086C1018F709070009709F0B3C2E8
:1005F000EE5BFF4F308120E0F701EF5BFF4F808122
:1006000090E0822B932B8C0120E030E009831A8349
:100610002B833C830115110521053105A9F5F7014F
:10062000EF5AFF4F808190E0A0E0B0E0782F66277E
:1006300055274427F701E05BFF4F808190E0A0E061
:10064000B0E0DC0199278827482B592B6A2B7B2B9C
:10065000F701E25BFF4F808190E0A0E0B0E0482B23
:10066000592B6A2B7B2BF701E15BFF4F908180E0D8
:10067000A0E0B0E08A019B01082B192B2A2B3B2B11
:1006800009831A832B833C83D701DD963C91DD9748
:1006900020E0DC968C91DC9790E08901082B192BE7
:1006A0000115110509F459C22C2D30E040E050E04D
:1006B000C301B2010E94E9216D877E878F87988BE5
:1006C000980140E050E029873A874B875C87C10159
:1006D000929582958F7089279F708927A0E0B0E05E
:1006E000820F931FA41FB51F0D851E852F85388986
:1006F000080F191F2A1F3B1F0D831E832F83388766
:1007000089819A81AB81BC8180179107A207B307C9
:1007100008F425C2BC01CD01601B710B820B930B49
:100720002D2D30E040E050E00E94082289019A011E
:10073000D901C801011511052105310509F411C2BE
:10074000063FEFE01E07E0E02E07E0E03E0718F46A
:10075000DD24D39403C0DD246894D1F8863FFFEFF5
:100760009F07F0E0AF07F0E0BF0708F01AC2B90139
:10077000A8014E5F5F4F6F4F7F4FD70156964D9345
:100780005D936D937C9359978D819E81AF81B885E0
:10079000880D991DAA1DBB1DF70186A397A3A0A7CD
:1007A000B1A789859A85AB85BC85880D991DAA1D41
:1007B000BB1D868F978FA0A3B1A3F3E0DF1609F0CE
:1007C00041C02114310409F0CEC1F701E35AFF4FB3
:1007D000808190E0A0E0B0E0382F22271127002789
:1007E000F701E45AFF4F808190E0A0E0B0E0DC0127
:1007F00099278827082B192B2A2B3B2BF701E65A20
:10080000FF4F808190E0A0E0B0E0082B192B2A2B4D
:100810003B2BF701E55AFF4F908180E0A0E0B0E06C
:10082000802B912BA22BB32BF70182A393A3A4A31C
:10083000B5A3440F551F661F771F440F551F661F32
:10084000771F2FC02114310409F48FC10D851E8537
:100850002F853889800F911FA21FB31FF70182A334
:1008600093A3A4A3B5A3F2E0DF1629F4440F551F08
:10087000661F771F16C0DB01CA01880F991FAA1FC8
:10088000BB1F840F951FA61FB71FB695A7959795F9
:1008900087954170507060707070480F591F6A1FC3
:1008A0007B1FDB01CA0181509E4FAF4FBF4F072E08
:1008B00079E0B695A795979587957A95D1F7702D9C
:1008C000481659066A067B0608F451C18FEF9FEF60
:1008D000DC01F70186879787A08BB18B1286138680
:1008E00014861586B3E0DB1609F004C11582E15ABF
:1008F000FF4F308120E0F701E25AFF4F808190E006
:10090000822B932BA0E0B0E0A5019401280F391FA2
:100910004A1F5B1FD70152962D933D934D935C93D5
:100920005597B701625D7F4F11968C9101E010E001
:100930000E946320882309F0DDC0F701E35DFD4FCD
:10094000308120E0F701E45DFD4F808190E0822B53
:10095000932BBAEA85359B0709F0CCC0F70141A972
:1009600050E060E070E0742F66275527442780A987
:1009700090E0A0E0B0E0DC0199278827482B592BB4
:100980006A2B7B2B86A590E0A0E0B0E0482B592B8A
:100990006A2B7B2B97A580E0A0E0B0E0842B952B01
:1009A000A62BB72B8235F2E59F07F1E6AF07F1E4FE
:1009B000BF0709F09FC0F701EB5EFD4F808190E01B
:1009C000A0E0B0E0B82FAA2799278827F701EC5EAE
:1009D000FD4F408150E060E070E0BA0155274427A8
:1009E000842B952BA62BB72BF701EE5EFD4F408194
:1009F00050E060E070E0482B592B6A2B7B2BF7010D
:100A0000ED5EFD4F908180E0A0E0B0E0842B952B5F
:100A1000A62BB72B823702E7900701E4A00701E677
:100A2000B00709F067C0F701E35EFD4F808190E0F9
:100A3000A0E0B0E0B82FAA2799278827F701E45E45
:100A4000FD4F408150E060E070E0BA015527442737
:100A5000842B952BA62BB72BF701E65EFD4F40812B
:100A600050E060E070E0482B592B6A2B7B2BF7019C
:100A7000E55EFD4F908180E0A0E0B0E0842B952BF7
:100A8000A62BB72BF70182879387A487B587E75EEC
:100A9000FD4F808190E0A0E0B0E0B82FAA27992711
:100AA0008827F701E85EFD4F408150E060E070E08C
:100AB000BA0155274427842B952BA62BB72BF7017A
:100AC000EA5EFD4F408150E060E070E0482B592B1A
:100AD0006A2B7B2BF701E95EFD4F908180E0A0E05F
:100AE000B0E0842B952BA62BB72BF7018687978731
:100AF000A08BB18BD701DC928091200190912101D4
:100B00000196909321018093200117969C938E93D8
:100B10001697F70112A613A614A615A6148280E054
:100B200027C08BE025C08CE023C080E021C08AE094
:100B30001FC083E01DC08AE01BC08DE019C081E0AA
:100B400017C08DE015C08DE013C08DE011C08DE0A1
:100B50000FC08DE00DC08DE00BC08DE009C08DE0B1
:100B600007C08DE005C08DE003C08DE001C08DE0C1
:100B700060960FB6F894DEBF0FBECDBFDF91CF9168
:100B80001F910F91FF90EF90DF90CF90BF90AF90AB
:100B90009F908F907F906F905F904F903F902F909D
:100BA0000895B901A8014E5F5F4F6F4F7F4FD70186
:100BB00056964D935D936D937C9359978D819E814D
:100BC000AF81B885880D991DAA1DBB1DF70186A3AD
:100BD00097A3A0A7B1A789859A85AB85BC85880D09
:100BE000991DAA1DBB1D868F978FA0A3B1A30F2EA1
:100BF000F3E0DF2EF02DE5CD4F925F926F927F9262
:100C00008F929F92AF92BF92CF92DF92EF92FF921C
:100C10000F931F93CF935C012A013B01FC01C2A4F7
:100C2000D3A4E4A4F5A4C416D506E606F70609F491
:100C300057C084818823E1F10F2EFEE28F2E992484
:100C4000F02D8A0C9B1C8181B401A701960101E063
:100C500010E00E94BB20882309F044C0F5011482F3
:100C6000428D538D648D758D868D978DA0A1B1A118
:100C7000840F951FA61FB71FC816D906EA06FB06E4
:100C8000B8F4C381C230A0F0F501828D938DA48D9C
:100C9000B58DC80ED91EEA1EFB1E8181B401A701C5
:100CA000960101E010E00E94BB20C150C13061F705
:100CB0004114510461047104B9F0B501625D7F4FC4
:100CC000F5018181A301920101E010E00E946320FF
:100CD000882361F4F50142A653A664A675A607C051
:100CE00080E005C081E003C080E001C081E0CF91D9
:100CF0001F910F91FF90EF90DF90CF90BF90AF903A
:100D00009F908F907F906F905F904F900895EF929B
:100D1000FF920F931F93CF937C0140E050E0BA0104
:100D20000E94FC05C82F882309F077C0F701808155
:100D3000833009F069C08581882309F465C012A653
:100D400013A614A615A68701025D1F4FC80160E017
:100D500070E040E052E00E947400F701E45DFD4F56
:100D600085E58083F701E35DFD4F8AEA808382E5B4
:100D7000F70186A787A781E680AB91E491ABEE5E91
:100D8000FD4F22E72083F701ED5EFD4F2083F70141
:100D9000EC5EFD4F9083F701EB5EFD4F8083F70122
:100DA0003685278590898189EA5EFD4F3083F7017A
:100DB000E95EFD4F2083F701E85EFD4F9083F70168
:100DC000E75EFD4F8083F701328523859485858515
:100DD000E65EFD4F3083F701E55EFD4F2083F701AE
:100DE000E45EFD4F9083F701E35EFD4F8083F701E2
:100DF00022893389448955898181B80101E010E055
:100E00000E94BB20F7011582F701818160E040E07C
:100E100050E00E9424218111C1E08C2FCF911F91BD
:100E20000F91FF90EF90089560EC73E28BE293E0F6
:100E300008950F931F93CF93DF93EC01DB01CA0159
:100E40000297A109B1094E895F89688D798D425059
:100E500050406040704084179507A607B70798F484
:100E60002A8130E040E050E0BC01CD010E94E92140
:100E70008B019C018EA19FA1A8A5B9A5080F191FE0
:100E80002A1F3B1F03C000E010E09801602F712F64
:100E9000822F932FDF91CF911F910F910895BF92D1
:100EA000CF92DF92EF92FF920F931F93CF93DF9336
:100EB000EC016A017B01423051056105710508F4BE
:100EC000CFC08E899F89A88DB98D481759076A07A9
:100ED0007B0708F0CAC08881823009F45CC0833087
:100EE00009F47BC0813009F0C5C09A013695279579
:100EF0008901040F151FA801452F5527469560E06D
:100F000070E08E8D9F8DA8A1B9A1480F591F6A1F4F
:100F10007B1FCE010E94FC05882309F0AFC0F801B9
:100F2000F170EC0FFD1FB6A40F5F1F4FA801452FF6
:100F30005527469560E070E08E8D9F8DA8A1B9A1E0
:100F4000480F591F6A1F7B1FCE010E94FC05882392
:100F500009F098C02B2D30E0F801F170EC0FFD1F67
:100F600096A580E0822B932B21E0C222DD24C114C0
:100F7000D10451F0929582958F7089279F708927AF
:100F80008C0120E030E089C08C0120E030E01F704F
:100F90002070307082C0452F562F672F77278E8D97
:100FA0009F8DA8A1B9A1480F591F6A1F7B1FCE01B1
:100FB0000E94FC05882309F069C0F601EE0FFF1FAF
:100FC000F170CE0FDF1F9FA580E00EA510E0802BF3
:100FD000912B8C0120E030E060C0689416F8769583
:100FE0006795579547951694D1F78E8D9F8DA8A13B
:100FF000B9A1480F591F6A1F7B1FCE010E94FC0533
:10100000882309F047C0F601EE0FFF1FEE0FFF1F08
:10101000F170CE0FDF1F09A910E020E030E0302F83
:1010200022271127002788A990E0A0E0B0E0DC018A
:1010300099278827082B192B2A2B3B2B8EA590E06C
:10104000A0E0B0E0082B192B2A2B3B2B9FA580E0BA
:10105000A0E0B0E0082B192B2A2B3B2B3F701DC0C2
:1010600001E010E020E030E018C001E010E020E0F6
:1010700030E013C00FEF1FEF98010FC00FEF1FEF0D
:1010800098010BC00FEF1FEF980107C00FEF1FEF84
:10109000980103C00FEF1FEF9801602F712F822F6F
:1010A000932FDF91CF911F910F91FF90EF90DF90E1
:1010B000CF90BF900895EF92FF920F931F93CF931D
:1010C000DF93EC018B017D836C834E815F816885AA
:1010D0007985413051056105710509F49FC0E881AA
:1010E000F98186899789A08DB18D481759076A07BC
:1010F0007B0708F095C0411551056105710569F53B
:101100008081833049F442A153A164A175A14115A6
:1011100051056105710509F51A861B861C861D8619
:10112000808591850817190708F07CC0C801929541
:1011300082958F7089279F708927AC0160E070E0ED
:1011400082A193A1A4A1B5A1840F951FA61FB71FCB
:101150008E879F87A88BB98B4EC0828190E07C01DF
:10116000EE0CFF1CEE0CFF1CEE0CFF1CEE0CFF1C2B
:101170000E151F0528F1888199810E944F07AB0148
:10118000BC014F3F8FEF58078FEF68078FEF78074D
:1011900009F44AC0423051056105710508F446C0A2
:1011A000E881F98186899789A08DB18D4817590703
:1011B0006A077B07E8F50E191F090E151F05D8F6FB
:1011C0004A875B876C877D87888199810E94190790
:1011D000AB01BC01C801929582958F7089279F70E1
:1011E0008927A0E0B0E0840F951FA61FB71F8E8748
:1011F0009F87A88BB98B888199818E960F7010700C
:10120000000F111F02951295107F1027007F1027E5
:10121000800F911F9B8B8A8B80E00BC082E009C0FE
:1012200082E007C082E005C081E003C082E001C027
:1012300082E0DF91CF911F910F91FF90EF90089581
:10124000CF93DF93EC016C817D810E945B08882342
:1012500091F44E855F8568897989888199810E949A
:10126000FC05882341F4EA89FB8995EE9083E881A7
:10127000F98191E09483DF91CF9108958F929F92AD
:10128000AF92BF92CF92DF92EF92FF920F931F9394
:10129000CF93DF93EC016A017B0148015901423091
:1012A00051056105710508F4CAC08E899F89A88D12
:1012B000B98D481759076A077B0708F0C2C08881B3
:1012C000823009F46AC0833009F482C0813009F0A9
:1012D000B2C09A01369527958901040F151FA80100
:1012E000452F5527469560E070E08E8D9F8DA8A113
:1012F000B9A1480F591F6A1F7B1FCE010E94FC0530
:10130000882309F099C0C8019170E1E0CE22DD2464
:10131000C114D10451F0FE01E80FF91F26A52F706A
:10132000382D3295307F232B01C0282DFE01E80F88
:10133000F91F26A70F5F1F4F81E08C83A801452F5F
:101340005527469560E070E08E8D9F8DA8A1B9A1CC
:10135000480F591F6A1F7B1FCE010E94FC0588237E
:1013600009F06AC01170C114D10449F0689413F8EF
:10137000B694A794979487941694D1F709C0FE0168
:10138000E00FF11F26A5207F992D9F70822E892ABC
:101390000C0F1D1FF80186A64FC0452F562F672F33
:1013A00077278E8D9F8DA8A1B9A1480F591F6A1F5D
:1013B0007B1FCE010E94FC05882309F03DC0F60189
:1013C000EE0FFF1FF170EC0FFD1F86A697A634C02D
:1013D000689416F876956795579547951694D1F7C2
:1013E0008E8D9F8DA8A1B9A1480F591F6A1F7B1F21
:1013F000CE010E94FC058823F9F49601220F331FC9
:10140000220F331F3170FE01E20FF31F41A950E09C
:1014100060E070E0742F66275527442740705070B5
:101420006070707F482959296A297B2946A757A7E8
:1014300060AB71AB01C082E091E09C8303C082E0AD
:1014400001C082E0DF91CF911F910F91FF90EF904B
:10145000DF90CF90BF90AF909F908F9008952F9284
:101460003F924F925F926F927F928F929F92AF9234
:10147000BF92CF92DF92EF92FF920F931F93CF9381
:10148000DF9300D000D0CDB7DEB71C0149835A836B
:101490006B837C834115510561057105C1F4DC0145
:1014A0001A968D909D90AD90BC901D9781149104DB
:1014B000A104B10451F156968D919D910D90BC916E
:1014C000A02D88169906AA06BB0620F527C04981DB
:1014D0005A816B817C810E944F078B019C01623095
:1014E00071058105910508F4ADC0F10186899789E0
:1014F000A08DB18D081719072A073B0708F4B6C05D
:1015000089809A80AB80BC8009C0882499245401CA
:10151000839404C088249924540183947501640140
:10152000442455243201689441F80894C11CD11C0C
:10153000E11CF11CF10186899789A08DB18DC81637
:10154000D906EA06FB0648F0F2E08F169104A104E2
:10155000B10408F47CC073016201C101B701A601A6
:101560000E944F078B019C01611571058105910552
:10157000A9F00F3F8FEF18078FEF28078FEF38077D
:1015800009F474C0013011052105310509F46EC05C
:10159000C814D904EA04FB0441F65DC08C2C4D2C20
:1015A000BE2CAF2CC1014C2D5D2D6E2D7F2D0FEF6C
:1015B0001FEF2FEF3FE00E943E098823E9F5898164
:1015C0009A81AB81BC810097A105B10569F0C10189
:1015D00049815A816B817C810C2D1D2D2E2D3F2D33
:1015E0000E943E09882341F5D1011A968C921A97E0
:1015F0001B964C921B971C96BC921C971D96AC9206
:101600001D971E968D919D910D90BC91A02D8F3FA1
:10161000EFEF9E07EFEFAE07EFEFBE0701F1019787
:10162000A109B109F10186879787A08BB18B81E071
:101630008583970186011AC08130A1F40FEF1FEF57
:10164000980114C001E010E020E030E00FC000E09D
:1016500010E098010BC000E010E0980107C097016E
:10166000860104C001E010E020E030E0602F712F1F
:10167000822F932F0F900F900F900F90DF91CF91AB
:101680001F910F91FF90EF90DF90CF90BF90AF90A0
:101690009F908F907F906F905F904F903F902F9092
:1016A00008958F929F92AF92BF92CF92DF92EF9266
:1016B000FF920F931F93CF93DF938C01EB01DC011B
:1016C0001496ED90FC9015970894E11CF11CE11420
:1016D000F10409F409C11E968D919D910D90BC9164
:1016E000A02D0097A105B10509F400C10F2EFFE060
:1016F000CF2EDD24F02DCE20DF20C114D10409F03F
:10170000D8C00196A11DB11DF80186879787A08BCF
:10171000B18B4285538564857585411551056105F9
:10172000710551F40190F081E02D80859185E816D6
:10173000F90608F0DDC0BDC00190F081E02D828186
:1017400090E001979701329522952F7023273F70E3
:10175000232782239323009709F0ABC0CF010E9477
:101760004F074B015C01623071058105910508F45A
:10177000C1C06F3FEFEF7E07EFEF8E07EFEF9E07E1
:1017800009F4BAC0D801ED91FC9186899789A08DA2
:10179000B18D88169906AA06BB0608F478C0209772
:1017A00009F4ACC0D8011A964D915D916D917C9170
:1017B0001D97CF010E942F0A4B015C016115710535
:1017C0008105910509F49CC0613071058105910581
:1017D00009F498C06F3FEFEF7E07EFEF8E07EFEF52
:1017E0009E0709F491C0D8018D919C9140E050E092
:1017F000BA010E94FC05882309F088C0F8018081A5
:1018000091818E9660E070E040E052E00E947400AA
:10181000D801CD91DC91CE01B501A4010E94190738
:10182000DC01CB018AA79BA7ACA7BDA7C0E0D1E094
:101830001BC0D483F8018081918140E050E0BA015F
:101840000E94FC05882309F063C0D801ED91FC914A
:1018500082A593A5A4A5B5A50196A11DB11D82A73A
:1018600093A7A4A7B5A7CF5FD801ED91FC911197DD
:101870008281C817F0F282A593A5A4A5B5A58C1BFB
:101880009109A109B10982A793A7A4A7B5A7F80157
:1018900082869386A486B58680819181B501A40154
:1018A0000E941907DC01CB01F80186879787A08B7E
:1018B000B18BD8011596FC92EE9214978D919C9164
:1018C00011978E96CC0CDD1CCC0CDD1CCC0CDD1CD9
:1018D000CC0CDD1CCC0CDD1C8C0D9D1D53969C93FB
:1018E0008E93529780E015C084E013C084E011C04D
:1018F00084E00FC082E00DC081E00BC084E009C02D
:1019000087E007C082E005C081E003C081E001C03C
:1019100081E0DF91CF911F910F91FF90EF90DF90C9
:10192000CF90BF90AF909F908F9008952F923F924D
:101930004F925F926F927F928F929F92AF92BF92DF
:10194000CF92DF92EF92FF920F931F93CF93DF938B
:1019500000D000D000D0CDB7DEB78C017B01DB0119
:101960008C918F3211F08C3519F40894E11CF11C24
:10197000F8011682178210861186D7018C91803269
:1019800050F4C80160E070E00E945B08482FF80145
:10199000138A128A47C1CC24DD242224332468947C
:1019A00023F888242B823C820F2EFBE0BF2EF02DE3
:1019B00099245A824982F7019F0181918F32E1F384
:1019C0008C35D1F33E832D83D80154966D907C9055
:1019D0005597C30160E270E04BE050E00E94740054
:1019E000B601A601D101A82CED81FE81E40FF51FFF
:1019F00020817A010894E11CF11C213208F469C0AD
:101A00002F3209F429C12C3509F426C12E3219F0E0
:101A10006A177B0778F0A830B10509F0F4C02E32C0
:101A200009F0F3C0AA0CAA0CA7016B817C81AB2D35
:101A3000B92DDACF222314F4F3E0AF2A822F815894
:101A40008F3118F08F558D31E8F4ED81FE81EE0D68
:101A5000FF1D3081832F80548F3320F080548D37C9
:101A600008F0D5C0CD0101976817790708F0D1C0FB
:101A70004E5F5F4FF301E60FF71F208331836E5FE8
:101A80007F4FB2CF422F50E04232510509F4C3C01C
:101A9000E1E0F1E08191882331F090E048175907A7
:101AA000C9F746E0BFC0822F81548A3118F4F2E0B2
:101AB000AF2A07C0822F81568A3118F431E0A32A59
:101AC0002052F301E60FF71F20836F5F7F4FA701BE
:101AD0008BCF8D819E81E80EF91E9A2D44E0611511
:101AE000710509F49AC0F3018081853E11F425E067
:101AF0002083A830B10519F4A92EAA0CAA0C8A2DAE
:101B000090E09C01237030702130310509F4406170
:101B10008C7090708430910509F44860D3011B9655
:101B20004C93C801B6010E945B08882399F5F8011F
:101B30004685578560897189808191810E94FC0565
:101B4000882351F5D80152964D915C915397FA0133
:101B50009081992309F48EC0938593FD13C0549608
:101B60006D917C9155979A01255F3F4FDB013A01BA
:101B7000482F04C0E217F30709F475C091918D91C5
:101B80009817C1F3C801B6010E94510B882379F25E
:101B9000482F03C0482F01C0482FD8015496ED911B
:101BA000FC91559783854430E9F582FF38C044E0C5
:101BB00039C0F301838584FF34C0F589FA83198223
:101BC000D30154968C9190E0E981FA818E2B9F2B62
:101BD000A0E0B0E0BC0155274427D3015B965C90A0
:101BE0005B9744245A968C9190E084299529A0E033
:101BF000B0E0842B952BA62BB72BF8018683978317
:101C0000A087B187D8CE46E00DC046E00BC046E0C5
:101C100009C046E007C046E005C046E003C045E015
:101C200001C045E0842F26960FB6F894DEBF0FBEA4
:101C3000CDBFDF91CF911F910F91FF90EF90DF907B
:101C4000CF90BF90AF909F908F907F906F905F905C
:101C50004F903F902F9008952D813E81E20EF31E0C
:101C60009A2D482D3CCFDB011B969C911B9792FF30
:101C7000A0CFD8CFD8015496ED91FC91559783858C
:101C800094CFEF92FF920F931F93CF938C0160E05C
:101C900070E00E945B08C82F8823D9F5D8011E96F2
:101CA0004D915D916D917C9151978D919C910E9488
:101CB000FC05C82F882369F5D8015296ED91FC9157
:101CC00053978081853E61F1882351F1C80161E01D
:101CD00070E00E94510BC82F882301F31AC0F8014D
:101CE000E288F388C70160E070E040E250E00E94C3
:101CF0007400D80154966D917C915597C7014BE0C3
:101D000050E00E946700D801ED91FC91119781E0AD
:101D100084838C2FCF911F910F91FF90EF900895A6
:101D2000F8014685578560897189808191810E947B
:101D3000FC05C82F882369F7D2CFCF93DF93EC013E
:101D400084E019C0888199810E94FC058823F1F400
:101D5000EA89FB899081992301F1953E29F09E3211
:101D600019F0938593FF16C0CE0160E070E00E94E9
:101D7000510B882359F44E855F856889798941150F
:101D8000510561057105F1F6882321F01E861F8635
:101D9000188A198ADF91CF91089584E0F7CF7F9256
:101DA0008F929F92AF92BF92CF92DF92EF92FF926B
:101DB0000F931F93CF93DF93EC014A015B014230F5
:101DC00051056105710508F455C08E899F89A88D5C
:101DD000B98D481759076A077B0708F04DC003C043
:101DE0004601570102C077247394CE01B501A401C6
:101DF0000E944F076B017C016115710581059105FA
:101E0000E9F191E0C916D104E104F104C9F18FEFC1
:101E1000C8168FEFD8068FEFE8068FEFF80691F11E
:101E2000CE01B501A40100E010E098010E943E0936
:101E3000882349F54E855F85688979894F3F9FEFF3
:101E400059079FEF69079FEF790749F04F5F5F4F91
:101E50006F4F7F4F4E875F87688B798B7D824E896E
:101E60005F89688D798DC416D506E606F70608F4F5
:101E7000B7CF09C082E007C082E005C080E003C0A0
:101E800082E001C081E0DF91CF911F910F91FF901F
:101E9000EF90DF90CF90BF90AF909F908F907F900A
:101EA0000895882391F4E0911E01F0911F0130976D
:101EB00009F010826115710511F0FB011082709319
:101EC0001F0160931E0180E008958BE008954F92FA
:101ED0005F926F927F928F929F92AF92BF92CF92BA
:101EE000DF92EF92FF921F93CF93DF93CDB7DEB7D0
:101EF000A4970FB6F894DEBF0FBECDBF6C017CA3D4
:101F00006BA3DC011D921C92142F1F714E71CE0128
:101F10008396BE016F5F7F4F0E94C901282FCE01BB
:101F200047969E8B8D8B222309F040C16BA17CA12B
:101F3000CE0101960E94960C282FEB88FC888823FE
:101F400021F4E114F10409F426E0412F50E0CA0124
:101F50008C719070009709F482C0222379F02430AC
:101F600009F00DC1CE0101960E94410E282FEB8889
:101F7000FC88882309F003C1186007C0F701838536
:101F8000817109F016C112FD16C113FF1AC10E941A
:101F90001407D7011E966C931E971F967C931F976C
:101FA00050968C93509751969C9351971B961C92E8
:101FB0001B975C961C925C975D961C925D975E9653
:101FC0001C925E975F961C925F9755963C91559731
:101FD00020E054968C9190E0822B932BA0E0B0E00F
:101FE0005C0199248824F701338D20E0828D90E0F4
:101FF000822B932BA0E0B0E0882A992AAA2ABB2A38
:10200000128E138E148A158AE981FA8181E0848305
:1020100081149104A104B10409F4D3C042A453A4CF
:1020200064A475A4CF01B501A4010E94CF0E282F8E
:10203000882309F0A4C0E981FA81D501C401019780
:10204000A109B10982879387A487B587CF01B3011E
:10205000A2010E94FC05282F882381F090C0222332
:1020600009F08DC0D7011B968C911B9784FDA5C0EC
:1020700011FFA7C080FDA3C0A4C020E01062E981C9
:10208000FA8142A553A564A575A5D6015A964D932C
:102090005D936D937C935D975F96FC92EE925E9755
:1020A00014961C93D70155965C91559740E0549631
:1020B0008C9190E0842B952BA0E0B0E05C019924FA
:1020C0008824D7015B965C915B9740E05A968C918F
:1020D00090E0842B952BA0E0B0E0882A992AAA2AC8
:1020E000BB2AD6011E968D929D92AD92BC925197BD
:1020F000D7015F968C9190E0A0E0B0E0B82EAA24C2
:1021000099248824D7015E964C915E9750E060E058
:1021100070E0BA0155274427482959296A297B29A3
:102120005C968C9190E0A0E0B0E0482B592B6A2B94
:102130007B2BD7015D969C9180E0A0E0B0E0482B1E
:10214000592B6A2B7B2BD6011A964D935D936D9379
:102150007C931D9716961D921D921D921C921997A5
:1021600056961D921D921D921C9259971196FC93A2
:10217000EE938681978113969C938E931297822F6C
:10218000A4960FB6F894DEBF0FBECDBFDF91CF91FE
:102190001F91FF90EF90DF90CF90BF90AF909F90F6
:1021A0008F907F906F905F904F900895EB88FC88A0
:1021B000CCCE27E0E4CF28E0E2CF24E0E0CF27E058
:1021C000DECF13FD5ACF20E05ACF2F923F924F928D
:1021D0005F926F927F928F929F92BF92CF92DF9287
:1021E000EF92FF920F931F93CF93DF9300D000D015
:1021F000CDB7DEB79C838B83C62E172F4A011901FA
:10220000D9011D921C92FC016281738180819181B0
:102210000E941001B82E882309F07CC1AB81BC81DB
:1022200014968C91149788230CF46CC180FF6EC1B6
:102230001A968D919D910D90BC91A02DEB81FC8102
:102240004681578160857185841B950BA60BB70B62
:10225000A40160E070E084179507A607B70708F4AB
:102260004C018114910409F455C1C9821A83AB81D0
:10227000BC8116964D915D916D917C911997DB0112
:10228000CA019170A070B0700097A105B10509F066
:10229000DBC0AB81BC81ED91FC91DB01CA01072E53
:1022A00079E0B695A795979587957A95D1F7702D92
:1022B00012811150182309F041C0411551056105E3
:1022C000710539F4EB81FC8186859785A089B189F8
:1022D0000DC0AB81BC8152964D915D916D917C9109
:1022E0005597CF010E944F07DC01CB018230910549
:1022F000A105B10548F4EB81FC8184818068848369
:10230000BB246894B1F806C18F3FFFEF9F07FFEF32
:10231000AF07FFEFBF0761F4AB81BC8114968C91CE
:102320001497806814968C931497BB24B394F2C0CE
:10233000EB81FC81828B938BA48BB58BAB81BC81B1
:102340006D907C90119752964D915D916D917C911D
:102350005597C3010E941907DC01CB010097A10525
:10236000B10549F4EB81FC81848180688483BB24BE
:102370006894B1F8CFC06C017D01C10ED11CE11C85
:10238000F11C2401452C552446944114510409F4B0
:1023900053C0D30112964C911297C201810F911D27
:1023A000242F30E02817390720F4C9012C01411AE5
:1023B0005108F301818169817A81A7019601042D79
:1023C00010E00E946320882361F0AB81BC811496E9
:1023D0008C911497806814968C931497BB24B394B3
:1023E00099C0AB81BC81ED91FC91119784818823C8
:1023F000F1F082A593A5A4A5B5A58C199D09AE09F8
:10240000BF09A20160E070E084179507A607B7072F
:1024100070F4982F8827990FBF01625D7F4FE98183
:10242000FA818E0F9F1F40E052E00E946700620118
:10243000DC2CCC24DD0C41C0AB81BC815696CD9206
:10244000DD92ED92FC925997EB81FC81C680D7809A
:10245000E084F18446895789608D718D80819181F6
:102460000E94FC05882361F0AB81BC8114968C919D
:102470001497806814968C931497BB24B3944AC025
:10248000C6019170E0E0F2E0E81BF90B6401E81589
:10249000F90508F46F01AB81BC8116966D917C91B2
:1024A00017977170CB018E966D917C91680F791F93
:1024B00089819A81A6010E946700E981FA81EC0D69
:1024C000FD1DFA83E983A60160E070E0EB81FC81E9
:1024D00086819781A085B185840F951FA61FB71FA0
:1024E00086839783A087B187D1018D919C911197A5
:1024F0008C0D9D1D11969C938E938C189D0809F050
:10250000B6CE08C0BB246894B1F804C00F2EF7E023
:10251000BF2EF02D8B2D0F900F900F900F90DF910D
:10252000CF911F910F91FF90EF90DF90CF90BF90D0
:102530009F908F907F906F905F904F903F902F90E3
:1025400008952F923F924F925F926F927F928F9257
:102550009F92AF92BF92CF92DF92EF92FF920F9332
:102560001F93CF93DF9300D000D0CDB7DEB79C830D
:102570008B83C62E172F4A011901D9011D921C9277
:10258000FC0162817381808191810E941001B82ECB
:10259000882309F0FDC1AB81BC8114968C911497FE
:1025A00088230CF4EDC181FFEFC11A964D915D9126
:1025B0006D917C911D97C401A0E0B0E0840F951F40
:1025C000A61FB71F84179507A607B70708F4BBC156
:1025D0008114910409F4B7C1C9821A83AA24A3946F
:1025E000EB81FC814681578160857185DB01CA01E1
:1025F0009170A070B0700097A105B10509F040C1BD
:1026000020813181DB01CA01072E79E0B695A795BB
:10261000979587957A95D1F7702DF9011281115010
:10262000182309F058C04115510561057105C9F419
:10263000EB81FC8186859785A089B1890097A105EA
:10264000B10509F5C90140E050E0BA010E942F0A26
:10265000DC01CB01EB81FC8186879787A08BB18B56
:102660000DC0AB81BC8152964D915D916D917C9175
:102670005597C9010E942F0ADC01CB010097A105E3
:10268000B10509F460C181309105A105B10549F496
:10269000EB81FC81848180688483BB246894B1F8D9
:1026A00077C18F3FFFEF9F07FFEFAF07FFEFBF0738
:1026B00061F4AB81BC8114968C9114978068149658
:1026C0008C931497BB24B39463C1EB81FC81828B00
:1026D000938BA48BB58BAB81BC812D913C91F9017F
:1026E00082A593A5A4A5B5A5EB81FC814689578950
:1026F000608D718D84179507A607B707A1F4C901EE
:1027000040E050E0BA010E94FC05882361F0AB81F3
:10271000BC8114968C911497806814968C931497AE
:10272000BB24B39435C1EB81FC8140805180428948
:10273000538964897589C2010E941907DC01CB01A4
:102740000097A105B10569F4AB81BC8114968C9109
:102750001497806814968C931497BB246894B1F8EE
:1027600017C16C017D01C10ED11CE11CF11C3401AB
:10277000672C772466946114710409F450C0F20147
:102780004281C301810F911D242F30E028173907A2
:1027900020F4C9013C01611A7108D20111968C9193
:1027A00069817A81A7019601062D10E00E94BB2065
:1027B000882341F0EB81FC81848180688483BB2481
:1027C000B394E6C0AB81BC81ED91FC9182A593A549
:1027D000A4A5B5A58C199D09AE09BF09A30160E0A8
:1027E00070E084179507A607B707A0F4BC01762F01
:1027F0006627770F29813A81620F731FCF018E966A
:1028000040E052E00E946700AB81BC81ED91FC91F9
:10281000119714826301DC2CCC24DD0C70C0EB8199
:10282000FC8186819781A085B18542855385648529
:10283000758584179507A607B707E0F0C20140E049
:1028400050E0BA010E94FC05882361F0AB81BC8195
:1028500014968C911497806814968C931497BB24CB
:10286000B39496C0AB81BC81ED91FC91C2A6D3A676
:10287000E4A6F5A6EB81FC81C68AD78AE08EF18EAC
:10288000AB81BC811696CD90DD90ED90FC901997B0
:1028900056964D915D916D917C9159978D919C913A
:1028A0000E94FC05882341F0EB81FC8184818068D3
:1028B0008483BB24B3946CC0C601917020E032E0E5
:1028C000281B390B64012815390508F46901AB810F
:1028D000BC8116968D919C91179791709C01225DF9
:1028E0003F4F8D919C91820F931F69817A81A60140
:1028F0000E946700AB81BC81ED91FC91A482E981CB
:10290000FA81EC0DFD1DFA83E983A60160E070E019
:10291000EB81FC8186819781A085B185840F951F0D
:10292000A61FB71F86839783A087B187D1018D919A
:102930009C9111978C0D9D1D11969C938E938C18D4
:102940009D0809F04DCEEB81FC8186819781A085A1
:10295000B1854285538564857585481759076A078F
:102960007B0720F482879387A487B587AB81BC81DE
:1029700014968C911497806214968C93149708C0C7
:10298000BB246894B1F804C00F2EF7E0BF2EF02DE1
:102990008B2D0F900F900F900F90DF91CF911F9183
:1029A0000F91FF90EF90DF90CF90BF90AF909F90EE
:1029B0008F907F906F905F904F903F902F900895F1
:1029C0000F931F93CF93DF93EC016A817B81888102
:1029D00099810E9410018823A9F59C8195FF32C03E
:1029E0004A8D5B8D6C8D7D8D888199810E94FC055F
:1029F000882341F50E8D1F8DF801838580628387C2
:102A00008A85848F8B85858F8C85868F8D85878F32
:102A10008E85828F8F85838F8889848B8989858B2A
:102A20000E941407F801668B778B808F918F8C81C1
:102A30008F7D8C83E881F98181E08483888199810D
:102A40000E948706DF91CF911F910F910895CF9338
:102A5000DF93EC010E94E014882311F4198218829C
:102A6000DF91CF9108952F923F924F925F926F9294
:102A70007F928F929F92AF92BF92CF92DF92EF920E
:102A8000FF921F93CF93DF9300D000D000D0CDB73B
:102A9000DEB79E838D836A017B01DC0112966D9106
:102AA0007C9113978D919C910E941001182F88237F
:102AB00009F0A5C1ED81FE81248122230CF49EC181
:102AC00082859385A485B5858C159D05AE05BF05CA
:102AD00020F421FD02C06C017D01AD81BE811696FE
:102AE0004D915D916D917C911997FD011682178230
:102AF00010861186C114D104E104F10409F47FC1E8
:102B000020803180D10112968C9190E0A0E0B0E05D
:102B10004C015D01072E79E0880C991CAA1CBB1C96
:102B20007A95D1F7702D4115510561057105F1F1C7
:102B30002A013B0108944108510861087108C70146
:102B4000B6016150704080409040A50194010E9400
:102B5000082229833A834B835C83C301B201A50118
:102B600094010E94082289819A81AB81BC818217DD
:102B70009307A407B507D0F088279927DC018819A7
:102B80009909AA09BB0984219521A621B721ED81C4
:102B9000FE8186839783A087B187C81AD90AEA0A7B
:102BA000FB0A428953896489758942C0AD81BE811F
:102BB0001E964D915D916D917C91519741155105F6
:102BC0006105710569F5C10140E050E0BA010E945C
:102BD0002F0AAB01BC01413051056105710539F483
:102BE000ED81FE8184818068848312E008C14F3FBB
:102BF000FFEF5F07FFEF6F07FFEF7F0759F4AD812E
:102C0000BE8114968C911497806814968C931497B7
:102C100011E0F5C0ED81FE8146875787608B718B8F
:102C2000AD81BE8152964D935D936D937C93559784
:102C3000411551056105710509F4A8C08C149D0466
:102C4000AE04BF0408F068C04D805E80F20184814C
:102C500081FF0CC0808191810E942F0AAB01BC01D1
:102C6000411551056105710539F452C0808191818A
:102C70000E944F07AB01BC014F3FBFEF5B07BFEFA7
:102C80006B07BFEF7B0741F45E824D82F2018481C6
:102C90008068848311E0B3C042305105610571053D
:102CA00060F0D201ED91FC9186899789A08DB18D5C
:102CB000481759076A077B0740F05E824D82F20190
:102CC00084818068848312E09AC0D20152964D9329
:102CD0005D936D937C93559716968D919D910D9074
:102CE000BC91A02D880D991DAA1DBB1DF2018683E4
:102CF0009783A087B187C818D908EA08FB088C1405
:102D00009D04AE04BF0408F4A1CF5E824D8204C0CE
:102D10005E824D8275016401ED81FE81868197811D
:102D2000A085B1858C0D9D1DAE1DBF1D868397832B
:102D3000A087B187D701C6019170A070B0700097CD
:102D4000A105B10539F1808191810E941907DC014B
:102D5000CB010097A105B10559F4AD81BE81149650
:102D60008C911497806814968C93149712E047C046
:102D70000B2EB9E0F694E794D794C794BA95D1F79F
:102D8000B02DC80ED91EEA1EFB1E07C0CC24DD24C0
:102D9000760103C0CC24DD247601ED81FE8186819D
:102DA0009781A085B1859170A070B0700097A10542
:102DB000B10569F086899789A08DB18D8C159D0527
:102DC000AE05BF0521F0C68AD78AE08EF18EED816F
:102DD000FE8186819781A085B18542855385648572
:102DE0007585481759076A077B0748F482879387D8
:102DF000A487B58784818062848301C012E0812F1B
:102E000026960FB6F894DEBF0FBECDBFDF91CF91EF
:102E10001F91FF90EF90DF90CF90BF90AF909F9069
:102E20008F907F906F905F904F903F902F9008957C
:102E30000F931F93CF93DF93CDB7DEB72E970FB6C7
:102E4000F894DEBF0FBECDBF8C017E876D87CE01AB
:102E50000D96B80140E00E94C901882309F04AC0DC
:102E6000CE010196D80155969C938E9354976D850B
:102E70007E85C8010E94960C8823B1F5D801529630
:102E8000ED91FC915397309701F1838584FF2FC01A
:102E9000358920E0848990E0822B932BAC0160E09F
:102EA00070E0BA0155274427938D80E0228D30E0F1
:102EB000822B932BA0E0B0E0482B592B6A2B7B2B65
:102EC000F8014683578360877187D801ED91FC91A3
:102ED00011978681978113969C938E931297C801C0
:102EE00060E070E00E945B08843019F003C085E068
:102EF00001C085E02E960FB6F894DEBF0FBECDBFA1
:102F0000DF91CF911F910F910895CF92DF92EF92B1
:102F1000FF921F93CF93DF93CDB7DEB72C970FB6F9
:102F2000F894DEBF0FBECDBF7C016B01FC01628156
:102F30007381808191810E941001182F882381F56F
:102F4000C114D10439F4C70160E070E00E945B084D
:102F5000182F26C0CE010196F701958B848BC701EF
:102F60000E949D0E843031F4F70116861786108A70
:102F7000118A02C0882389F4C701B6010E947E002D
:102F8000C70160E070E00E94510B843041F4F7010A
:102F900016861786108A118A03C0182F01C0182FB1
:102FA000812F2C960FB6F894DEBF0FBECDBFDF91F8
:102FB000CF911F91FF90EF90DF90CF900895EF9207
:102FC000FF921F93CF93DF93CDB7DEB7A4970FB6D1
:102FD000F894DEBF0FBECDBF9CA38BA37B01CE01B7
:102FE0008396BE016F5F7F4F40E00E94C901182F9A
:102FF0008823C1F4CE0147969E8B8D8B6BA17CA15B
:10300000CE0101960E94960C182F882359F48B89C3
:103010009C89009731F0CE010196B7010E947E0095
:1030200001C016E0812FA4960FB6F894DEBF0FBE44
:10303000CDBFDF91CF911F91FF90EF9008952F9218
:103040003F924F925F926F927F928F929F92AF9238
:10305000BF92CF92DF92EF92FF920F931F93CF9385
:10306000DF93CDB7DEB72A970FB6F894DEBF0FBE59
:10307000CDBF9A8389837C836B833A01CE0101960D
:10308000BA0140E00E94C901182F882309F0FBC053
:10309000D301ED91FC9186859785A089B189C68879
:1030A000D788E08CF18CB701A601425050406040B7
:1030B0007040481759076A077B0738F0EB81FC819D
:1030C00080839183A283B383DEC00081013009F045
:1030D0003FC0CC24DD2476016894C1F8882499246B
:1030E0005401D3018D919C91B701A6010E944F0715
:1030F000DC01CB018F3FEFEF9E07EFEFAE07EFEF65
:10310000BE0709F4A4C081309105A105B10509F4F9
:10311000A0C00097A105B10529F40894811C911C59
:10312000A11CB11C0894C11CD11CE11CF11CD301D1
:10313000ED91FC9186899789A08DB18DC816D9062D
:10314000EA06FB0670F286869786A08AB18A95C049
:10315000268C378C40A051A0E0E0F0E020E030E089
:103160008824992454017E826D8232012101211527
:103170003105C1F4ED81FE8180819181B301A2010D
:103180000E94FC05882309F066C00894411C511C6C
:10319000611C711CAD81BE81ED91FC911197BE96B1
:1031A00020E032E00230A1F4B181B8871F82808133
:1031B00090E04F815885842B952B009729F4089433
:1031C000811C911CA11CB11C32962250304031C090
:1031D000838190E0A0E0B0E0782F66275527442750
:1031E000828190E0A0E0B0E0DC0199278827482B9D
:1031F000592B6A2B7B2B808190E0A0E0B0E0842BE0
:10320000952BA62BB72B31802224A10160E070E022
:10321000842B952BA62BB72BBF700097A105B1056A
:1032200029F40894811C911CA11CB11C34962450D3
:1032300030400894C108D108E108F108C114D10454
:10324000E104F10409F093CF6D807E8007C011E0A6
:1032500005C012E003C06D807E80182FD301ED9170
:10326000FC91119786869786A08AB18A033029F44B
:10327000ED91FC91119781E08583EB81FC81808247
:103280009182A282B382812F2A960FB6F894DEBF74
:103290000FBECDBFDF91CF911F910F91FF90EF90A7
:1032A000DF90CF90BF90AF909F908F907F906F9066
:1032B0005F904F903F902F900895CF92DF92EF92C2
:1032C000FF920F931F93CF93DF93EC016A817B8171
:1032D000888199810E941001882309F063C09C8134
:1032E000992324F091FD67C087E05CC082E05AC05A
:1032F0004A875B876C877D878C8180628C834115D0
:1033000051056105710569F44E855F856889798984
:10331000888199810E94CF0E1E861F86188A198A7D
:103320003CC04A895B896C897D89888199810E942A
:103330004F076B017C0181E0C816D104E104F10460
:1033400009F448C081E09FEFC9169FEFD9069FEFAF
:10335000E9069FEFF90609F080E0882301F5E8818E
:10336000F98146895789608D718DC416D506E606A8
:10337000F706C0F44A895B896C897D89CF010FEF1C
:103380001FEF2FEF3FE00E943E09882341F4888120
:103390009981B701A6010E94CF0E882319F09C8164
:1033A00090689C83DF91CF911F910F91FF90EF90D8
:1033B000DF90CF9008954E815F81688579850A8579
:1033C0001B852C853D85401751076207730708F45C
:1033D0008FCFE8CF82E0E3CFCF92DF92EF92FF92E0
:1033E000CF93DF93CDB7DEB7EA970FB6F894DEBF81
:1033F0000FBECDBF9AAF89AFCE01C996BE016F5F38
:103400007F4F41E00E94C901882309F04FC0CE01DF
:103410008D969E8B8D8B69AD7AADCE0101960E9403
:10342000960C882309F042C0EB89FC89309729F07B
:10343000838580FF51C087E039C086E037C082E0D5
:10344000C816D104E104F104F0F1CE014796BE01A3
:103450006F5F7F4F46E150E00E946700CD8EDE8EA9
:10346000EF8EF8A2CE01479662E070E00E945B0802
:103470008823E1F4CE0147960E949D0E882319F01F
:10348000843019F113C087E011C0C114D104E104E4
:10349000F10441F089819A81B701A6010E94CF0E03
:1034A000882321F489819A810E948706EA960FB6C3
:1034B000F894DEBF0FBECDBFDF91CF91FF90EF90AC
:1034C000DF90CF90089582E0F1CFCE0101960E9467
:1034D00020098823D1F2EACF958980E0448950E021
:1034E000842B952BAC0160E070E0BA01552744278E
:1034F000938D80E0C28CDD248C299D296C01EE2403
:10350000FF24C42AD52AE62AF72A838584FD97CF8B
:10351000DCCF2F923F924F925F926F927F928F9269
:103520009F92AF92BF92CF92DF92EF92FF920F9352
:103530001F93CF93DF93CDB7DEB7A9970FB6F8945B
:10354000DEBF0FBECDBF9CA38BA30E9414076B01EF
:103550007C01CE018396BE016F5F7F4F41E00E94E8
:10356000C901182F882309F019C1CE0147969E8BF7
:103570008D8B6BA17CA1CE0101960E94960C8823B5
:1035800009F409C1843009F008C189819A8140E0B9
:1035900050E0BA010E942F0A2B013C016115710510
:1035A0008105910591F081E0481651046104710490
:1035B00009F40EC1EFEF4E16EFEF5E06EFEF6E0669
:1035C000EFEF7E0609F406C101C017E0112309F0F0
:1035D000C1C089819A8140E050E0BA010E94FC0597
:1035E000182F882309F0B6C009811A81C801B301D8
:1035F000A2010E9419074B015C010F2EFEE22F2E43
:103600003324F02D200E311EC10160E070E040E057
:1036100052E00E947400C10160E270E04BE050E0B3
:103620000E9474008EE2F80186A780E181AFCDA2EE
:10363000EC5BFF4FC0828D2D99278EA3F801EB5BC9
:10364000FF4F8083C701AA27BB278FA3F801EA5B3E
:10365000FF4F8083CF2CDD24EE24FF24C8A6F80181
:10366000E95BFF4FC08249A6F801E85BFF4F40824B
:10367000852D9927D82EF801E75BFF4F8083C30182
:10368000AA27BB27E82EF801EE5BFF4F8083892F26
:103690009927F82EF801ED5BFF4F8083C801825B0C
:1036A0009F4FB10140E250E00E946700F801E15BEA
:1036B000FF4F8EE280834F81588569857A85298105
:1036C0003A81F9018081833061F482A193A1A4A1A0
:1036D000B5A184179507A607B70719F440E050E095
:1036E000BA01F801E859FF4F4083F801E759FF4F4D
:1036F0005083AB0166277727F801EE59FF4F4083CF
:10370000F801ED59FF4F5083F9010281002309F4BC
:1037100063C0CC24C39489819A81FC0182A693A6BC
:10372000A4A6B5A60894811C911CA11CB11CC4823E
:1037300040E050E0BA010E94FC05182F882351F4A4
:10374000C10160E070E040E052E00E94740001506E
:1037500011F742C089819A81B301A2010E94CF0E64
:103760001DC0EB89FC8980E183878DA1868B8EA1AA
:10377000878B8FA1808F88A5818F89A5828FD38E1B
:10378000E48AF58A89819A8121E0FC0124830E94E0
:103790008706182F03C018E001C0182F812FA996A3
:1037A0000FB6F894DEBF0FBECDBFDF91CF911F9152
:1037B0000F91FF90EF90DF90CF90BF90AF909F90D0
:1037C0008F907F906F905F904F903F902F900895D3
:1037D00012E0C0CF11E0BECFCE0101960E94410E93
:1037E000182F882309F4BDCFB5CF0F931F93CF9324
:1037F000DF93CDB7DEB7A4970FB6F894DEBF0FBE48
:10380000CDBF9CA38BA3062F142FCE018396BE01A0
:103810006F5F7F4F41E00E94C901882311F5CE01FF
:1038200047969E8B8D8B6BA17CA1CE0101960E9449
:10383000960C8823B1F4EB89FC89309789F01772D4
:10384000912F9095838589230123182F102B13879F
:1038500089819A8121E0FC0124830E94870601C0AE
:1038600086E0A4960FB6F894DEBF0FBECDBFDF9101
:10387000CF911F910F9108950F931F93CF93DF93D3
:10388000CDB7DEB7A4970FB6F894DEBF0FBECDBF9D
:103890009CA38BA38B01CE018396BE016F5F7F4FEC
:1038A00041E00E94C901882349F5CE0147969E8BCD
:1038B0008D8B6BA17CA1CE0101960E94960C882372
:1038C000E9F4EB89FC893097C1F0D80116968C9108
:1038D0001697868B17968C911797878B14968C91D9
:1038E0001497808F15968C91818F89819A8121E020
:1038F000FC0124830E94870601C086E0A4960FB6CF
:10390000F894DEBF0FBECDBFDF91CF911F910F9115
:103910000895EF92FF920F931F93CF93DF93CDB74C
:10392000DEB7CF54D0400FB6F894DEBF0FBECDBF88
:1039300060969FAF8EAF60978B01CE01825B9F4FE9
:10394000BE016F5F7F4F41E00E94C901882309F0EB
:10395000D0C089819A81988F8F8BCE018E5B9F4FCB
:103960009E8B8D8B60966EAD7FAD6097CE0101967C
:103970000E94960C882309F0BCC06B897C89611574
:10398000710509F4B3C0655F7F4FCE018D9645E1A7
:1039900050E00E946700CE014796BE016F5F7F4FE7
:1039A00046E150E00E946700CE014796B8010E94B0
:1039B000960C882309F49CC0843009F09AC0CE018B
:1039C00047960E94410E882309F093C009A51AA5C5
:1039D000C8010D96BE01615D7F4F43E150E00E943A
:1039E00067008DA58062F8018387E981FA8181E013
:1039F00084834F81588569857A858D8D9E8DAF8DA5
:103A0000B8A1481759076A077B0709F464C0F80191
:103A1000838584FF60C0EF88F88C358920E0848935
:103A200090E0822B932BAC0160E070E0BA01552747
:103A30004427338D20E0828D90E0822B932BA0E0F1
:103A4000B0E0482B592B6A2B7B2BC7010E9419072A
:103A5000AB01BC01411551056105710509F457C061
:103A6000C7010E94FC05EF89F88D882309F041C049
:103A7000DF01A15BBF4F8C918E3269F5808183306D
:103A800069F44D8D5E8D6F8D78A182A193A1A4A163
:103A9000B5A1481759076A077B0729F04D8D5E8D40
:103AA0006F8D78A103C040E050E0BA01DF01A85952
:103AB000BF4F4C93DF01A759BF4F5C93AB01662703
:103AC0007727DF01AE59BF4F4C93DF01AD59BF4F90
:103AD0005C9381E08483CE0101960E9420098823B3
:103AE00041F489819A810E94870603C084E001C065
:103AF00088E0C15BDF4F0FB6F894DEBF0FBECDBFCD
:103B0000DF91CF911F910F91FF90EF90089582E088
:103B1000F0CFAF92BF92CF92DF92EF92FF920F93CE
:103B20001F93CF93DF938FEF80932C01C7E9D1E0F0
:103B30000EE711E00F2EFFE0EF2EF1E0FF2EF02D4B
:103B40000F2EFDE2CF2EF1E0DF2EF02D0F2EF1E152
:103B5000AF2EF1E0BF2EF02D19C080E0BE010E9413
:103B6000510F80932C01C801B7010E941817809350
:103B70002C01C601B5014AE00E94670F80932C0119
:103B8000882321F010921C0110921B0180912C01BE
:103B9000882319F7DF91CF911F910F91FF90EF903C
:103BA000DF90CF90BF90AF9008950E94891D80E074
:103BB00090E0089523B10197E9F70895FC01819100
:103BC000882314F42D9A01C02D982F9A2F9886FFE0
:103BD00002C02D9A01C02D982F9A2F9885FF02C000
:103BE0002D9A01C02D982F9A2F9884FF02C02D9AEC
:103BF00001C02D982F9A2F9883FF02C02D9A01C0E3
:103C00002D982F9A2F9882FF02C02D9A01C02D98CF
:103C10002F9A2F9881FF02C02D9A01C02D982F9ABC
:103C20002F9880FF02C02D9A01C02D982F9A2F98AF
:103C30006150704021F60895FC012D9A21E030E09A
:103C400093B12F9A2F98822F96FF832F880F1E995A
:103C50008F5F2F9A2F98880F1E998F5F2F9A2F981A
:103C6000880F1E998F5F2F9A2F98880F1E998F5F4C
:103C70002F9A2F98880F1E998F5F2F9A2F98880F51
:103C80001E998F5F2F9A2F98880F1E998F5F2F9AFA
:103C90002F9881936150704099F608950F931F9368
:103CA000CF93DF930F92CDB7DEB708E813E1CE01D3
:103CB000019661E070E00E941C1E89818F3F39F0FF
:103CC00084E690E00E94DA1D0150104081F781E007
:103CD00090E00115110511F480E090E00F90DF9164
:103CE000CF911F910F910895CF93DF930F92CDB78E
:103CF000DEB72C9ACE01019661E070E00E941C1E96
:103D00000F90DF91CF910895CF93DF930F92CDB7AE
:103D1000DEB72C98CE01019661E070E00E941C1E77
:103D20000E944E1E009729F40E94741E80E090E0CD
:103D300002C081E090E00F90DF91CF910895CF9283
:103D4000DF92EF92FF920F931F93CF93DF9300D0F8
:103D5000CDB7DEB77C016B0108EE13E0CE01019612
:103D600061E070E00E941C1E89818F3F39F484E677
:103D700090E00E94DA1D0150104081F789818E3F4A
:103D800069F4C701B6010E941C1ECE01019662E0D3
:103D900070E00E941C1E81E090E002C080E090E094
:103DA0000F900F90DF91CF911F910F91FF90EF90A7
:103DB000DF90CF900895EF92FF921F93CF93DF9300
:103DC00000D0CDB7DEB77C01162F0E944E1E0097A3
:103DD00019F11983CE01019661E070E00E94DE1DA9
:103DE0001D3FE9F0C70160E072E00E94DE1DCE01D8
:103DF000019662E070E00E941C1ECE01019661E017
:103E000070E00E941C1E29812F7181E090E0253016
:103E100041F080E090E005C080E090E002C081E0E9
:103E200090E00F900F90DF91CF911F91FF90EF9056
:103E30000895DF92EF92FF920F931F93CF93DF933A
:103E4000CDB7DEB727970FB6F894DEBF0FBECDBF54
:103E5000182FD42E052FF62EE72E88234CF487E357
:103E600040E050E0BA010E94191F823098F51F7798
:103E70001C30F1F10E94741E0E94841E009749F1CB
:103E8000812F80648A83EB82FC820D83DE82112382
:103E900009F43EC0183099F181E08F83CE0102967B
:103EA00066E070E00E94DE1D1C3031F4CE01019608
:103EB00061E070E00E941C1E1AE0CE01019661E0F4
:103EC00070E00E941C1E8981882324F41150A9F7F8
:103ED00001C08FEF27960FB6F894DEBF0FBECDBF9F
:103EE000DF91CF911F910F91FF90EF90DF90089598
:103EF0008CE48A83EB82FC820D83DE82CDCF87E85F
:103F00008F83CE01029666E070E00E94DE1DD4CF62
:103F100085E98F83CE01029666E070E00E94DE1D87
:103F2000CBCF882319F480911D01089581E0089575
:103F3000EF92FF920F931F93CF93DF9300D000D0A7
:103F4000CDB7DEB7882309F0B1C080E197E20E94C7
:103F5000DA1D249A2C9A279A2F98259A0AE0CE01E6
:103F6000019661E070E00E941C1E0150C1F780E0E4
:103F700040E050E0BA010E94191F813009F07BC077
:103F800088E04AEA51E060E070E00E94191F813049
:103F900009F03DC0CE01019664E070E00E941C1E55
:103FA0008B81813009F069C08C818A3A09F067C041
:103FB00008EE13E089EA40E050E060E070E40E941F
:103FC000191F882349F088EE93E00E94DA1D015002
:103FD000104081F7FF2460C00115110509F451C09C
:103FE0008AE340E050E0BA010E94191F882309F0DB
:103FF0004AC0CE01019664E070E00E941C1E8981D7
:1040000086FF43C00F2EFCE0FF2EF02D45C089EA4D
:1040100040E050E0BA010E94191F823040F40F2E98
:10402000F9EAEF2EF02DFF246894F1F804C0EE2495
:10403000E394FF24F39408EE13E08E2D40E050E06B
:10404000BA010E94191F882349F088EE93E00E946C
:10405000DA1D0150104089F7FF241EC0011511051B
:10406000C1F080E140E052E060E070E00E94191F82
:10407000882389F411C0FF240FC0FF240DC0FF2442
:104080000BC0FF2409C0FF2407C0FF246894F2F886
:1040900003C0FF2401C0FF24F092220101E0F110CF
:1040A00000E000931D010E94741E01C003E0802FF8
:1040B0000F900F900F900F90DF91CF911F910F9164
:1040C000FF90EF900895BF92CF92DF92EF92FF9210
:1040D0000F931F93CF93DF93EB0169017A010E9445
:1040E000911F80FD3DC08091220183FD09C00B2EF0
:1040F000B9E0CC0CDD1CEE1CFF1CBA95D1F7B02D3D
:104100000230110528F00F2EF2E1BF2EF02D04C071
:104110000F2EF1E1BF2EF02D8B2DB701A6010E94CD
:10412000191F8823A9F4CE0160E072E00E949F1E4F
:10413000009729F0C050DE4F01501040A1F782E1F6
:10414000B81631F48CE040E050E0BA010E94191F2B
:104150000E94741E81E00115110519F480E001C070
:1041600083E0DF91CF911F910F91FF90EF90DF904F
:10417000CF90BF900895CF92DF92EF92FF920F936E
:104180001F93CF93DF93EB0169017A010E94911F86
:1041900080FD50C08091220190E083FD09C00B2E6C
:1041A000B9E0CC0CDD1CEE1CFF1CBA95D1F7B02D8C
:1041B0000130110571F488E1B701A6010E94191FB1
:1041C000882381F5CE016EEF0E94DB1E009729F552
:1041D00029C086709070009731F0A80160E070E00F
:1041E00087E90E94191F89E1B701A6010E94191FE2
:1041F0008823C1F4CE016CEF0E94DB1E009729F0EA
:10420000C050DE4F01501040A9F780E090E06DEF04
:104210000E94DB1E009721F005C000E010E002C004
:1042200001E010E00E94741E81E00115110519F4EF
:1042300080E001C083E0DF91CF911F910F91FF904B
:10424000EF90DF90CF900895EF92FF920F931F931E
:10425000CF93DF93CDB7DEB760970FB6F894DEBF8C
:104260000FBECDBF162F7A010E94911F80FDA2C004
:10427000113069F0113020F0133009F091C085C081
:104280000E94841E009709F08DC011E090C089E063
:1042900040E050E0BA010E94191F882309F084C051
:1042A000CE01019660E170E00E949F1E009709F424
:1042B0007DC089818295869586958370813061F570
:1042C000488550E060E070E04F735070607070702F
:1042D000BA01552744274F5F5F4F6F4F7F4F998536
:1042E00080E02A85820F911DA0E0B0E0480F591FA1
:1042F0006A1F7B1FDB01CA01072E7AE0880F991F16
:10430000AA1FBB1F7A95D1F7702DF7018083918387
:10431000A283B38310E04BC029852295269526956C
:104320002370888590E0880F991F880F991F820F4E
:10433000911D01964F8150E043705070542F4427D7
:10434000550F550F840F951FAC0160E070E09E8102
:104350009F708B85881F8827881F980F9E5F8A858E
:104360008370880F890F90E009978A019B0104C030
:10437000000F111F221F331F8A95D2F7F701008308
:1043800011832283338310E012C080E890E0A0E024
:10439000B0E0F70180839183A283B38310E007C06C
:1043A00014E005C010E003C011E001C011E00E945C
:1043B000741E01C013E0812F60960FB6F894DEBF23
:1043C0000FBECDBFDF91CF911F910F91FF90EF9066
:1043D0000895629FD001739FF001829FE00DF11D4F
:1043E000649FE00DF11D929FF00D839FF00D749F6F
:1043F000F00D659FF00D9927729FB00DE11DF91F1B
:10440000639FB00DE11DF91FBD01CF011124089577
:10441000A1E21A2EAA1BBB1BFD010DC0AA1FBB1FC8
:10442000EE1FFF1FA217B307E407F50720F0A21B3A
:10443000B30BE40BF50B661F771F881F991F1A94A7
:1044400069F760957095809590959B01AC01BD01D1
:08445000CF010895F894FFCF9D
:10445800222A2B2C3A3B3C3D3E3F5B5D7C7F002F64
:0E446800002F646174612E74787400010001ED
:00000001FF
