:100000000C9446000C9465000C9465000C946500FB
:100010000C9465000C9465000C9465000C946500CC
:100020000C9465000C9465000C9465000C946500BC
:100030000C9465000C9465000C9465000C946500AC
:100040000C9465000C9465000C9465000C9465009C
:100050000C9465000C9465000C9465000C9465008C
:100060000C9465000C9465000C9465000C9465007C
:100070000C9465000C9465000C9465000C9465006C
:100080000C9465000C9465000C94650011241FBE4F
:10009000CFEFD0E4DEBFCDBF11E0A0E0B1E0ECECEB
:1000A000F9E000E00BBF02C007900D92A030B1074D
:1000B000D9F711E0A0E0B1E001C01D92A032B10774
:1000C000E1F70E9471040C94E4040C9400008CB5D8
:1000D0008C7F8CBD8DB58E7F8DBD08952C9A089533
:1000E0002C98089580E68AB9089581E080937C0079
:1000F000EAE7F0E08081836C8083089510927C00B1
:10010000EAE7F0E08081836C8083089584B1846B9A
:1001100084B980E58CBD8CB582608CBD8DB58DBDFC
:1001200008958EBD0DB407FEFDCF08958EBD0DB4AC
:1001300007FEFDCF8EB50895EF92FF920F931F93A8
:10014000CF93DF93E82ED42F152F062FF72EC22F33
:100150008FEF0E9491008E2D80640E9491008F2D60
:100160000E949100802F0E949100812F0E94910097
:100170008D2F0E9491008C2F0E9491008FEF0E9482
:1001800091008FEF0E94960080931F018FEF0E94D5
:1001900096008FEF0E9496008FEF0E9496008FEFDF
:1001A0000E9496008093170180911F01DF91CF91EB
:1001B0001F910F91FF90EF900895CF92DF92EF92F1
:1001C000FF920F931F93CF93DF93C82FD92F6A010C
:1001D0007B010E94700081E080931F0188E1B701DC
:1001E000A6012FEF0E949C0080911F018823B1F788
:1001F0008EEF0E9491000C2F1D2FC0E0D0E0F8017F
:1002000081918F010E9491002196F2E0C030DF07BA
:10021000B1F785E90E94910085E90E94910081E093
:1002200080930401C0E1D7E28FEF0E949600809393
:100230000401853E19F40E946E0002C02197A1F7C7
:10024000DF91CF911F910F91FF90EF90DF90CF90B2
:100250000895CF92DF92EF92FF920F931F93CF9367
:10026000DF93C82FD92F6A017B010E94700081E0C3
:1002700080931F0110921B0181E1B701A6012FEFAE
:100280000E949C0080931F018FEF0E9496008E3F7A
:10029000D9F70C2F1D2FC0E0D0E08FEF0E94960001
:1002A000F80181938F012196F2E0C030DF07A9F7B2
:1002B0008FEF0E9496008FEF0E9496000E946E00C2
:1002C000DF91CF911F910F91FF90EF90DF90CF9032
:1002D0000895CF92DF92EF92FF920E9470001092E9
:1002E0001F010F2EF0E4CF2EFDE0DF2EF3E0EF2E06
:1002F000F0E0FF2EF02D8FEF0E94960080931F01FB
:100300000894C108D108E108F108C114D104E1043E
:10031000F10421F40E946E0080E005C08F3F59F780
:100320000E946E0081E0FF90EF90DF90CF900895E3
:100330002A9A08952A9808950E949A0182E00E94BC
:10034000910080E00E94910080E00E94910083E093
:100350000E9491008FEF0E9491008FEF0E94910008
:1003600089E00E94910080E60E94910086E00E9450
:1003700091008AE00E94910080E40E94910080E850
:100380000E9491008BE00E94910080E40E94910005
:1003900080E80E9491008CE00E94910080E00E9421
:1003A000910080E00E9491008DE00E94910080E029
:1003B0000E94910080E00E9491008EE00E949100D6
:1003C00081E00E94910080E00E9491008FE00E94F5
:1003D000910080E00E94910080E00E94910080E105
:1003E0000E94910080E00E94910083E60E949100AB
:1003F0008AE10E94910080E00E94910080E30E94C7
:10040000910081E00E94910081EC0E94910080EDBA
:100410000E9491000E94980108950E949A0182E032
:100420000E94910080E00E94910080E00E94910073
:1004300083E00E9491008FEF0E9491008FEF0E9455
:10044000910089E00E94910080E60E94910086E080
:100450000E9491008AE00E94910080E40E94910035
:1004600080E80E9491008BE00E94910080E40E944D
:10047000910080E80E9491008CE00E94910080E051
:100480000E94910080E00E9491008DE00E94910006
:1004900080E00E94910080E00E9491008EE00E9426
:1004A000910081E00E94910080E00E9491008FE025
:1004B0000E94910080E00E94910080E00E949100E3
:1004C00080E10E94910080E00E94910083E60E94FA
:1004D00091008AE10E94910080E00E94910080E3F7
:1004E0000E94910081E00E94910081E40E949100AD
:1004F00080E50E9491000E94980108950E949C014D
:100500001899FECF0E949A0180E20E9491008FEF1D
:100510000E94960080930A018FEF0E9496008093BC
:1005200003010E94980130910A0120E080910301AB
:1005300090E0822B932B90931A01809319010895D8
:100540000E949A0182E00E94910080E00E94910046
:1005500080E00E94910083E00E9491008FEF0E9452
:1005600091008FEF0E94910089E00E94910080E647
:100570000E94910085E00E9491008AE00E94910013
:1005800080E00E94910080E00E9491008BE00E9438
:10059000910080E00E94910080E00E9491008CE038
:1005A0000E94910080E00E94910080E00E949100F2
:1005B0008DE00E94910080E00E94910080E00E9406
:1005C00091008EE00E94910080E00E94910080E006
:1005D0000E9491008FE00E94910080E00E949100B3
:1005E00080E00E94910080E10E94910080E00E94E2
:1005F000910080E00E9491008AE10E94910080E0D9
:100600000E94910080E30E94910081E00E9491008D
:1006100081EC0E94910080ED0E9491000E9498015F
:1006200008950E949A0182E00E94910080E00E9459
:10063000910080E00E94910083E00E9491008FEF82
:100640000E9491008FEF0E94910089E00E9491002A
:1006500080E60E94910085E00E9491008AE00E945D
:10066000910080E00E94910080E00E9491008BE068
:100670000E94910080E00E94910080E00E94910021
:100680008CE00E94910080E00E94910080E00E9436
:1006900091008DE00E94910080E00E94910080E036
:1006A0000E9491008EE00E94910080E00E949100E3
:1006B00080E00E9491008FE00E94910080E00E9403
:1006C000910080E00E94910080E10E94910080E012
:1006D0000E94910080E00E9491008AE10E949100B6
:1006E00080E00E94910080E30E94910081E00E94DE
:1006F000910081E40E94910080E50E9491000E9497
:10070000980108950E94A0021899FECF0E949A01B4
:1007100080E20E9491008FEF0E94960080930A0170
:100720008FEF0E949600809303010E949801309100
:100730000A0120E08091030190E0822B932B90939B
:100740001A018093190108956115710571F44BB177
:1007500021E030E0B90102C0660F771F8A95E2F709
:10076000CB01809584238BB90CC04BB121E030E0E4
:10077000B90102C0660F771F8A95E2F7CB01842B7F
:100780008BB981E090E00895CF938FE39DE0A3E0E3
:1007900081509040A040E1F700C000000E946E0030
:1007A000CAE08FEF0E949100C150D9F70E947000FB
:1007B0008FEF0E9491008FEF0E94910086E090E001
:1007C00061E070E00E94A40380911F01813059F024
:1007D00080E040E050E0BA0125E90E949C00809151
:1007E0001F018130A9F7809117018A3A91F086E0C4
:1007F00090E060E070E00E94A40388E04AEA51E0E3
:1008000060E070E027E80E949C00809117018A3A1E
:1008100071F780911F018823A1F087E340E050E049
:1008200060E070E42FEF0E949C0089E240E050E01D
:1008300060E070E42FEF0E949C0080911F018823EC
:1008400061F78AE340E050E0BA012FEF0E949C007C
:100850008FEF0E9491000E946E00CF910895209129
:100860007800209318013091790030931E01932F66
:1008700080E030E0282B392B809105019091060112
:10088000822B932B9093060180930501EAE7F0E019
:100890008081806480838091050190910601089594
:1008A0002091780020930701309179003093020164
:1008B000932F80E030E0282B392B8091000190911C
:1008C0000101822B932B9093010180930001EAE7B1
:1008D000F0E080818064808380910001909101012B
:1008E0000895CF93DF93CDB7DEB728970FB6F8946E
:1008F000DEBF0FBECDBF0FE011E0EE24FF246894F1
:10090000E1F8E00EF11ECC24DD246894C2F8C00E9C
:10091000D11E0F2EF6E0AF2EBB24F02DA00EB11E7F
:100920000E9472000E9470000E9486000E94C40310
:100930000E9467000E9475000E942F0490931D0181
:1009400080931C010E947E000E94500490930E012F
:1009500080930D010E9498010E947E0290930901EC
:10096000809308010E94820390930C0180930B01F5
:1009700020911C0130911D01F801318320832091C9
:100980000D0130910E01F701318320832091080180
:1009900030910901F60131832083F5019183808331
:1009A000C80160E070E00E94DD000E9469018823B8
:1009B00009F4B6CFCE01019640E050E0BA010E94A2
:0C09C00029010E946E00ACCFF894FFCF1C
:00000001FF
